{
  "contractName": "ConvertLib",
  "abi": [
    {
      "inputs": [
        {
          "internalType": "uint256",
          "name": "amount",
          "type": "uint256"
        },
        {
          "internalType": "uint256",
          "name": "conversionRate",
          "type": "uint256"
        }
      ],
      "name": "convert",
      "outputs": [
        {
          "internalType": "uint256",
          "name": "convertedAmount",
          "type": "uint256"
        }
      ],
      "stateMutability": "pure",
      "type": "function"
    }
  ],
  "bytecode": "0x6101e4610053600b82828239805160001a607314610046577f4e487b7100000000000000000000000000000000000000000000000000000000600052600060045260246000fd5b30600052607381538281f3fe73000000000000000000000000000000000000000030146080604052600436106100355760003560e01c806396e4ee3d1461003a575b600080fd5b610054600480360381019061004f9190610095565b61006a565b60405161006191906100e4565b60405180910390f35b6000818361007891906100ff565b905092915050565b60008135905061008f81610197565b92915050565b600080604083850312156100ac576100ab610192565b5b60006100ba85828601610080565b92505060206100cb85828601610080565b9150509250929050565b6100de81610159565b82525050565b60006020820190506100f960008301846100d5565b92915050565b600061010a82610159565b915061011583610159565b9250817fffffffffffffffffffffffffffffffffffffffffffffffffffffffffffffffff048311821515161561014e5761014d610163565b5b828202905092915050565b6000819050919050565b7f4e487b7100000000000000000000000000000000000000000000000000000000600052601160045260246000fd5b600080fd5b6101a081610159565b81146101ab57600080fd5b5056fea26474726f6e58221220779aa247ccb4f447f7318254b388e89ef96e4291051abcddd6d92805e3c8fb3f64736f6c63430008060033",
  "source": "pragma solidity ^0.8.4;\n\nlibrary ConvertLib{\n\tfunction convert(uint amount,uint conversionRate) public pure returns (uint convertedAmount)\n\t{\n\t\treturn amount * conversionRate;\n\t}\n}\n",
  "sourcePath": "/home/swatim/TRON/metacoin-box/contracts/ConvertLib.sol",
  "compiler": {
    "name": "solc",
    "version": "0.8.6+commit.0e36fba0.mod.Emscripten.clang"
  },
  "schemaVersion": "2.0.1",
  "updatedAt": "2021-11-22T07:35:41.471Z"
}