{
  "contractName": "CURNFT",
  "abi": [
    {
      "inputs": [
        {
          "internalType": "contract IERC20",
          "name": "addr",
          "type": "address"
        }
      ],
      "stateMutability": "nonpayable",
      "type": "constructor"
    },
    {
      "anonymous": false,
      "inputs": [
        {
          "indexed": true,
          "internalType": "address",
          "name": "owner",
          "type": "address"
        },
        {
          "indexed": true,
          "internalType": "address",
          "name": "approved",
          "type": "address"
        },
        {
          "indexed": true,
          "internalType": "uint256",
          "name": "tokenId",
          "type": "uint256"
        }
      ],
      "name": "Approval",
      "type": "event"
    },
    {
      "anonymous": false,
      "inputs": [
        {
          "indexed": true,
          "internalType": "address",
          "name": "owner",
          "type": "address"
        },
        {
          "indexed": true,
          "internalType": "address",
          "name": "operator",
          "type": "address"
        },
        {
          "indexed": false,
          "internalType": "bool",
          "name": "approved",
          "type": "bool"
        }
      ],
      "name": "ApprovalForAll",
      "type": "event"
    },
    {
      "anonymous": false,
      "inputs": [
        {
          "indexed": true,
          "internalType": "address",
          "name": "_burner",
          "type": "address"
        },
        {
          "indexed": true,
          "internalType": "uint256",
          "name": "_tokenId",
          "type": "uint256"
        },
        {
          "indexed": false,
          "internalType": "uint256",
          "name": "_amt",
          "type": "uint256"
        }
      ],
      "name": "Burn",
      "type": "event"
    },
    {
      "anonymous": false,
      "inputs": [
        {
          "indexed": true,
          "internalType": "address",
          "name": "_burner",
          "type": "address"
        },
        {
          "indexed": true,
          "internalType": "uint256",
          "name": "_tokenId",
          "type": "uint256"
        },
        {
          "indexed": false,
          "internalType": "uint256",
          "name": "_amt",
          "type": "uint256"
        }
      ],
      "name": "Liquidate",
      "type": "event"
    },
    {
      "anonymous": false,
      "inputs": [
        {
          "indexed": true,
          "internalType": "address",
          "name": "_backer",
          "type": "address"
        },
        {
          "indexed": true,
          "internalType": "uint256",
          "name": "_tokenId",
          "type": "uint256"
        },
        {
          "indexed": false,
          "internalType": "uint256",
          "name": "_amt",
          "type": "uint256"
        }
      ],
      "name": "NFTBacker",
      "type": "event"
    },
    {
      "anonymous": false,
      "inputs": [
        {
          "indexed": true,
          "internalType": "address",
          "name": "from",
          "type": "address"
        },
        {
          "indexed": true,
          "internalType": "address",
          "name": "to",
          "type": "address"
        },
        {
          "indexed": true,
          "internalType": "uint256",
          "name": "tokenId",
          "type": "uint256"
        }
      ],
      "name": "Transfer",
      "type": "event"
    },
    {
      "inputs": [
        {
          "internalType": "uint256",
          "name": "tokenId",
          "type": "uint256"
        },
        {
          "internalType": "address",
          "name": "addr",
          "type": "address"
        }
      ],
      "name": "allowBacker",
      "outputs": [
        {
          "internalType": "bool",
          "name": "",
          "type": "bool"
        }
      ],
      "stateMutability": "nonpayable",
      "type": "function"
    },
    {
      "inputs": [
        {
          "internalType": "address",
          "name": "addr",
          "type": "address"
        }
      ],
      "name": "allowSuper",
      "outputs": [],
      "stateMutability": "nonpayable",
      "type": "function"
    },
    {
      "inputs": [
        {
          "internalType": "address",
          "name": "to",
          "type": "address"
        },
        {
          "internalType": "uint256",
          "name": "tokenId",
          "type": "uint256"
        }
      ],
      "name": "approve",
      "outputs": [],
      "stateMutability": "nonpayable",
      "type": "function"
    },
    {
      "inputs": [
        {
          "internalType": "uint256",
          "name": "tokenId",
          "type": "uint256"
        },
        {
          "internalType": "uint256",
          "name": "amt",
          "type": "uint256"
        }
      ],
      "name": "backNFT",
      "outputs": [
        {
          "internalType": "uint256",
          "name": "",
          "type": "uint256"
        }
      ],
      "stateMutability": "nonpayable",
      "type": "function"
    },
    {
      "inputs": [
        {
          "internalType": "address",
          "name": "owner",
          "type": "address"
        }
      ],
      "name": "balanceOf",
      "outputs": [
        {
          "internalType": "uint256",
          "name": "",
          "type": "uint256"
        }
      ],
      "stateMutability": "view",
      "type": "function"
    },
    {
      "inputs": [
        {
          "internalType": "address",
          "name": "newOwner",
          "type": "address"
        }
      ],
      "name": "changeOwner",
      "outputs": [],
      "stateMutability": "nonpayable",
      "type": "function"
    },
    {
      "inputs": [
        {
          "internalType": "uint256",
          "name": "cur",
          "type": "uint256"
        },
        {
          "internalType": "uint256",
          "name": "lockout_time",
          "type": "uint256"
        },
        {
          "internalType": "string",
          "name": "tokenURI",
          "type": "string"
        }
      ],
      "name": "createNFT",
      "outputs": [
        {
          "internalType": "uint256",
          "name": "",
          "type": "uint256"
        }
      ],
      "stateMutability": "nonpayable",
      "type": "function"
    },
    {
      "inputs": [
        {
          "internalType": "uint256",
          "name": "tokenId",
          "type": "uint256"
        },
        {
          "internalType": "address",
          "name": "addr",
          "type": "address"
        }
      ],
      "name": "disallowBacker",
      "outputs": [
        {
          "internalType": "bool",
          "name": "",
          "type": "bool"
        }
      ],
      "stateMutability": "nonpayable",
      "type": "function"
    },
    {
      "inputs": [
        {
          "internalType": "address",
          "name": "addr",
          "type": "address"
        }
      ],
      "name": "disallowSuper",
      "outputs": [],
      "stateMutability": "nonpayable",
      "type": "function"
    },
    {
      "inputs": [
        {
          "internalType": "uint256",
          "name": "tokenId",
          "type": "uint256"
        }
      ],
      "name": "getApproved",
      "outputs": [
        {
          "internalType": "address",
          "name": "",
          "type": "address"
        }
      ],
      "stateMutability": "view",
      "type": "function"
    },
    {
      "inputs": [
        {
          "internalType": "uint256",
          "name": "tokenId",
          "type": "uint256"
        }
      ],
      "name": "getBacking",
      "outputs": [
        {
          "internalType": "uint256",
          "name": "",
          "type": "uint256"
        }
      ],
      "stateMutability": "view",
      "type": "function"
    },
    {
      "inputs": [
        {
          "internalType": "uint256",
          "name": "tokenId",
          "type": "uint256"
        }
      ],
      "name": "getCreatedAt",
      "outputs": [
        {
          "internalType": "uint256",
          "name": "",
          "type": "uint256"
        }
      ],
      "stateMutability": "view",
      "type": "function"
    },
    {
      "inputs": [
        {
          "internalType": "uint256",
          "name": "tokenId",
          "type": "uint256"
        }
      ],
      "name": "getLockedUntil",
      "outputs": [
        {
          "internalType": "uint256",
          "name": "",
          "type": "uint256"
        }
      ],
      "stateMutability": "view",
      "type": "function"
    },
    {
      "inputs": [
        {
          "internalType": "uint256",
          "name": "tokenId",
          "type": "uint256"
        }
      ],
      "name": "getLockoutPeriod",
      "outputs": [
        {
          "internalType": "uint256",
          "name": "",
          "type": "uint256"
        }
      ],
      "stateMutability": "view",
      "type": "function"
    },
    {
      "inputs": [
        {
          "internalType": "address",
          "name": "owner",
          "type": "address"
        },
        {
          "internalType": "address",
          "name": "operator",
          "type": "address"
        }
      ],
      "name": "isApprovedForAll",
      "outputs": [
        {
          "internalType": "bool",
          "name": "",
          "type": "bool"
        }
      ],
      "stateMutability": "view",
      "type": "function"
    },
    {
      "inputs": [
        {
          "internalType": "uint256",
          "name": "tokenId",
          "type": "uint256"
        },
        {
          "internalType": "address",
          "name": "addr",
          "type": "address"
        }
      ],
      "name": "isBackingAllowed",
      "outputs": [
        {
          "internalType": "bool",
          "name": "",
          "type": "bool"
        }
      ],
      "stateMutability": "view",
      "type": "function"
    },
    {
      "inputs": [],
      "name": "name",
      "outputs": [
        {
          "internalType": "string",
          "name": "",
          "type": "string"
        }
      ],
      "stateMutability": "view",
      "type": "function"
    },
    {
      "inputs": [],
      "name": "oldOwner",
      "outputs": [
        {
          "internalType": "address",
          "name": "",
          "type": "address"
        }
      ],
      "stateMutability": "view",
      "type": "function"
    },
    {
      "inputs": [],
      "name": "owner",
      "outputs": [
        {
          "internalType": "address",
          "name": "",
          "type": "address"
        }
      ],
      "stateMutability": "view",
      "type": "function"
    },
    {
      "inputs": [
        {
          "internalType": "uint256",
          "name": "tokenId",
          "type": "uint256"
        }
      ],
      "name": "ownerOf",
      "outputs": [
        {
          "internalType": "address",
          "name": "",
          "type": "address"
        }
      ],
      "stateMutability": "view",
      "type": "function"
    },
    {
      "inputs": [
        {
          "internalType": "uint256",
          "name": "tokenId",
          "type": "uint256"
        }
      ],
      "name": "redeem",
      "outputs": [],
      "stateMutability": "nonpayable",
      "type": "function"
    },
    {
      "inputs": [],
      "name": "revertOwner",
      "outputs": [],
      "stateMutability": "nonpayable",
      "type": "function"
    },
    {
      "inputs": [
        {
          "internalType": "address",
          "name": "from",
          "type": "address"
        },
        {
          "internalType": "address",
          "name": "to",
          "type": "address"
        },
        {
          "internalType": "uint256",
          "name": "tokenId",
          "type": "uint256"
        }
      ],
      "name": "safeTransferFrom",
      "outputs": [],
      "stateMutability": "nonpayable",
      "type": "function"
    },
    {
      "inputs": [
        {
          "internalType": "address",
          "name": "from",
          "type": "address"
        },
        {
          "internalType": "address",
          "name": "to",
          "type": "address"
        },
        {
          "internalType": "uint256",
          "name": "tokenId",
          "type": "uint256"
        },
        {
          "internalType": "bytes",
          "name": "_data",
          "type": "bytes"
        }
      ],
      "name": "safeTransferFrom",
      "outputs": [],
      "stateMutability": "nonpayable",
      "type": "function"
    },
    {
      "inputs": [
        {
          "internalType": "address",
          "name": "operator",
          "type": "address"
        },
        {
          "internalType": "bool",
          "name": "approved",
          "type": "bool"
        }
      ],
      "name": "setApprovalForAll",
      "outputs": [],
      "stateMutability": "nonpayable",
      "type": "function"
    },
    {
      "inputs": [
        {
          "internalType": "bytes4",
          "name": "interfaceId",
          "type": "bytes4"
        }
      ],
      "name": "supportsInterface",
      "outputs": [
        {
          "internalType": "bool",
          "name": "",
          "type": "bool"
        }
      ],
      "stateMutability": "view",
      "type": "function"
    },
    {
      "inputs": [],
      "name": "symbol",
      "outputs": [
        {
          "internalType": "string",
          "name": "",
          "type": "string"
        }
      ],
      "stateMutability": "view",
      "type": "function"
    },
    {
      "inputs": [
        {
          "internalType": "uint256",
          "name": "tokenId",
          "type": "uint256"
        },
        {
          "internalType": "uint256",
          "name": "amt",
          "type": "uint256"
        }
      ],
      "name": "systemBackNFT",
      "outputs": [],
      "stateMutability": "nonpayable",
      "type": "function"
    },
    {
      "inputs": [
        {
          "internalType": "uint256",
          "name": "tokenId",
          "type": "uint256"
        }
      ],
      "name": "timeUntilUnlocked",
      "outputs": [
        {
          "internalType": "uint256",
          "name": "",
          "type": "uint256"
        }
      ],
      "stateMutability": "view",
      "type": "function"
    },
    {
      "inputs": [],
      "name": "tokenId",
      "outputs": [
        {
          "internalType": "uint256",
          "name": "",
          "type": "uint256"
        }
      ],
      "stateMutability": "view",
      "type": "function"
    },
    {
      "inputs": [
        {
          "internalType": "uint256",
          "name": "tokenId",
          "type": "uint256"
        }
      ],
      "name": "tokenURI",
      "outputs": [
        {
          "internalType": "string",
          "name": "",
          "type": "string"
        }
      ],
      "stateMutability": "view",
      "type": "function"
    },
    {
      "inputs": [
        {
          "internalType": "address",
          "name": "from",
          "type": "address"
        },
        {
          "internalType": "address",
          "name": "to",
          "type": "address"
        },
        {
          "internalType": "uint256",
          "name": "tokenId",
          "type": "uint256"
        }
      ],
      "name": "transferFrom",
      "outputs": [],
      "stateMutability": "nonpayable",
      "type": "function"
    }
  ],
  "bytecode": "0x6080604052620f4c476009556000600d553480156200001d57600080fd5b50d380156200002b57600080fd5b50d280156200003957600080fd5b5060405162004eb538038062004eb583398181016040528101906200005f9190620002bf565b6040518060400160405280600681526020017f4355524e465400000000000000000000000000000000000000000000000000008152506040518060400160405280600381526020017f43555200000000000000000000000000000000000000000000000000000000008152508160009080519060200190620000e3929190620001eb565b508060019080519060200190620000fc929190620001eb565b50505033600760006101000a81548173ffffffffffffffffffffffffffffffffffffffff021916908373ffffffffffffffffffffffffffffffffffffffff160217905550600760009054906101000a900473ffffffffffffffffffffffffffffffffffffffff16600860006101000a81548173ffffffffffffffffffffffffffffffffffffffff021916908373ffffffffffffffffffffffffffffffffffffffff16021790555080600c60006101000a81548173ffffffffffffffffffffffffffffffffffffffff021916908373ffffffffffffffffffffffffffffffffffffffff16021790555050620003de565b828054620001f9906200035a565b90600052602060002090601f0160209004810192826200021d576000855562000269565b82601f106200023857805160ff191683800117855562000269565b8280016001018555821562000269579182015b82811115620002685782518255916020019190600101906200024b565b5b5090506200027891906200027c565b5090565b5b80821115620002975760008160009055506001016200027d565b5090565b600081519050620002ac81620003c4565b620002b78162000305565b905092915050565b600060208284031215620002d857620002d7620003bf565b5b6000620002e8848285016200029b565b91505092915050565b6000620002fe8262000319565b9050919050565b60006200031282620002f1565b9050919050565b600073ffffffffffffffffffffffffffffffffffffffff82169050919050565b600074ffffffffffffffffffffffffffffffffffffffffff82169050919050565b600060028204905060018216806200037357607f821691505b602082108114156200038a576200038962000390565b5b50919050565b7f4e487b7100000000000000000000000000000000000000000000000000000000600052602260045260246000fd5b600080fd5b620003cf8162000339565b8114620003db57600080fd5b50565b614ac780620003ee6000396000f3fe608060405234801561001057600080fd5b50d3801561001d57600080fd5b50d2801561002a57600080fd5b506004361061020a5760003560e01c806370a0823111610129578063c54a29eb116100bc578063e18ea3931161008b578063e18ea39314610619578063e985e9c514610649578063eceec72d14610679578063f487404f146106a95761020a565b8063c54a29eb14610581578063c5bc684c1461059d578063c87b56dd146105cd578063db006a75146105fd5761020a565b8063a2285b4b116100f8578063a2285b4b146104fd578063a22cb4651461052d578063a6f9dae114610549578063b88d4fde146105655761020a565b806370a08231146104615780638da5cb5b1461049157806395d89b41146104af5780639676d809146104cd5761020a565b80633ca9f058116101a15780635fe07f87116101705780635fe07f87146103c75780636352211e146103f757806366d810201461042757806370328fd9146104575761020a565b80633ca9f0581461032f5780633caf2db01461034b57806342842e0e1461037b5780634b213580146103975761020a565b806317d70f7c116101dd57806317d70f7c146102a957806323b872dd146102c757806323ff6e39146102e3578063371a38ba146102ff5761020a565b806301ffc9a71461020f57806306fdde031461023f578063081812fc1461025d578063095ea7b31461028d575b600080fd5b61022960048036038101906102249190613458565b6106c7565b6040516102369190613b21565b60405180910390f35b6102476107a9565b6040516102549190613b3c565b60405180910390f35b610277600480360381019061027291906134b2565b61083b565b6040516102849190613a5a565b60405180910390f35b6102a760048036038101906102a291906133eb565b6108c0565b005b6102b16109d8565b6040516102be9190613e7e565b60405180910390f35b6102e160048036038101906102dc91906132d5565b6109de565b005b6102fd60048036038101906102f89190613268565b610a3e565b005b6103196004803603810190610314919061350c565b610af3565b6040516103269190613b21565b60405180910390f35b61034960048036038101906103449190613268565b610bde565b005b610365600480360381019061036091906134b2565b610c93565b6040516103729190613e7e565b60405180910390f35b610395600480360381019061039091906132d5565b610cb0565b005b6103b160048036038101906103ac91906134b2565b610cd0565b6040516103be9190613e7e565b60405180910390f35b6103e160048036038101906103dc919061350c565b610d1c565b6040516103ee9190613b21565b60405180910390f35b610411600480360381019061040c91906134b2565b610d84565b60405161041e9190613a5a565b60405180910390f35b610441600480360381019061043c919061358c565b610e36565b60405161044e9190613e7e565b60405180910390f35b61045f611327565b005b61047b60048036038101906104769190613268565b611463565b6040516104889190613e7e565b60405180910390f35b61049961151b565b6040516104a69190613a5a565b60405180910390f35b6104b7611541565b6040516104c49190613b3c565b60405180910390f35b6104e760048036038101906104e291906134b2565b6115d3565b6040516104f49190613e7e565b60405180910390f35b610517600480360381019061051291906134b2565b6115f0565b6040516105249190613e7e565b60405180910390f35b610547600480360381019061054291906133ab565b61162b565b005b610563600480360381019061055e9190613268565b6117ac565b005b61057f600480360381019061057a9190613328565b6118ad565b005b61059b6004803603810190610596919061354c565b61190f565b005b6105b760048036038101906105b2919061350c565b611bfc565b6040516105c49190613b21565b60405180910390f35b6105e760048036038101906105e291906134b2565b611ce7565b6040516105f49190613b3c565b60405180910390f35b610617600480360381019061061291906134b2565b611e39565b005b610633600480360381019061062e91906134b2565b611e3c565b6040516106409190613e7e565b60405180910390f35b610663600480360381019061065e9190613295565b611e59565b6040516106709190613b21565b60405180910390f35b610693600480360381019061068e919061354c565b611eed565b6040516106a09190613e7e565b60405180910390f35b6106b16124d6565b6040516106be9190613a5a565b60405180910390f35b60007f80ac58cd000000000000000000000000000000000000000000000000000000007bffffffffffffffffffffffffffffffffffffffffffffffffffffffff1916827bffffffffffffffffffffffffffffffffffffffffffffffffffffffff1916148061079257507f5b5e139f000000000000000000000000000000000000000000000000000000007bffffffffffffffffffffffffffffffffffffffffffffffffffffffff1916827bffffffffffffffffffffffffffffffffffffffffffffffffffffffff1916145b806107a257506107a1826124fc565b5b9050919050565b6060600080546107b89061414f565b80601f01602080910402602001604051908101604052809291908181526020018280546107e49061414f565b80156108315780601f1061080657610100808354040283529160200191610831565b820191906000526020600020905b81548152906001019060200180831161081457829003601f168201915b5050505050905090565b600061084682612566565b610885576040517f08c379a000000000000000000000000000000000000000000000000000000000815260040161087c90613d1e565b60405180910390fd5b6004600083815260200190815260200160002060009054906101000a900473ffffffffffffffffffffffffffffffffffffffff169050919050565b60006108cb82610d84565b90508073ffffffffffffffffffffffffffffffffffffffff168373ffffffffffffffffffffffffffffffffffffffff16141561093c576040517f08c379a000000000000000000000000000000000000000000000000000000000815260040161093390613dbe565b60405180910390fd5b8073ffffffffffffffffffffffffffffffffffffffff1661095b6125d2565b73ffffffffffffffffffffffffffffffffffffffff16148061098a5750610989816109846125d2565b611e59565b5b6109c9576040517f08c379a00000000000000000000000000000000000000000000000000000000081526004016109c090613c1e565b60405180910390fd5b6109d383836125da565b505050565b60095481565b6109ef6109e96125d2565b82612693565b610a2e576040517f08c379a0000000000000000000000000000000000000000000000000000000008152600401610a2590613e3e565b60405180910390fd5b610a39838383612771565b505050565b600760009054906101000a900473ffffffffffffffffffffffffffffffffffffffff1673ffffffffffffffffffffffffffffffffffffffff163373ffffffffffffffffffffffffffffffffffffffff1614610a9857600080fd5b6000600f60008373ffffffffffffffffffffffffffffffffffffffff1673ffffffffffffffffffffffffffffffffffffffff16815260200190815260200160002060006101000a81548160ff02191690831515021790555050565b60003373ffffffffffffffffffffffffffffffffffffffff16610b1584610d84565b73ffffffffffffffffffffffffffffffffffffffff1614610b6b576040517f08c379a0000000000000000000000000000000000000000000000000000000008152600401610b6290613d9e565b60405180910390fd5b60006014600085815260200190815260200160002060008473ffffffffffffffffffffffffffffffffffffffff1673ffffffffffffffffffffffffffffffffffffffff16815260200190815260200160002060006101000a81548160ff0219169083151502179055506001905092915050565b600760009054906101000a900473ffffffffffffffffffffffffffffffffffffffff1673ffffffffffffffffffffffffffffffffffffffff163373ffffffffffffffffffffffffffffffffffffffff1614610c3857600080fd5b6001600f60008373ffffffffffffffffffffffffffffffffffffffff1673ffffffffffffffffffffffffffffffffffffffff16815260200190815260200160002060006101000a81548160ff02191690831515021790555050565b600060106000838152602001908152602001600020549050919050565b610ccb838383604051806020016040528060008152506118ad565b505050565b600060126000838152602001908152602001600020544210610cf55760009050610d17565b426012600084815260200190815260200160002054610d149190614044565b90505b919050565b60006014600084815260200190815260200160002060008373ffffffffffffffffffffffffffffffffffffffff1673ffffffffffffffffffffffffffffffffffffffff16815260200190815260200160002060009054906101000a900460ff16905092915050565b6000806002600084815260200190815260200160002060009054906101000a900473ffffffffffffffffffffffffffffffffffffffff169050600073ffffffffffffffffffffffffffffffffffffffff168173ffffffffffffffffffffffffffffffffffffffff161415610e2d576040517f08c379a0000000000000000000000000000000000000000000000000000000008152600401610e2490613c7e565b60405180910390fd5b80915050919050565b60008073ffffffffffffffffffffffffffffffffffffffff16600c60009054906101000a900473ffffffffffffffffffffffffffffffffffffffff1673ffffffffffffffffffffffffffffffffffffffff161415610ec9576040517f08c379a0000000000000000000000000000000000000000000000000000000008152600401610ec090613e1e565b60405180910390fd5b600d5484101580610f275750600760009054906101000a900473ffffffffffffffffffffffffffffffffffffffff1673ffffffffffffffffffffffffffffffffffffffff163373ffffffffffffffffffffffffffffffffffffffff16145b610f66576040517f08c379a0000000000000000000000000000000000000000000000000000000008152600401610f5d90613dfe565b60405180910390fd5b62278d008311610fab576040517f08c379a0000000000000000000000000000000000000000000000000000000008152600401610fa290613d5e565b60405180910390fd5b6000600c60009054906101000a900473ffffffffffffffffffffffffffffffffffffffff1673ffffffffffffffffffffffffffffffffffffffff166370a08231336040518263ffffffff1660e01b81526004016110089190613a5a565b60206040518083038186803b15801561102057600080fd5b505afa158015611034573d6000803e3d6000fd5b505050506040513d601f19601f8201168201806040525081019061105891906134df565b90508481101561109d576040517f08c379a000000000000000000000000000000000000000000000000000000000815260040161109490613c3e565b60405180910390fd5b6000600c60009054906101000a900473ffffffffffffffffffffffffffffffffffffffff1673ffffffffffffffffffffffffffffffffffffffff1663dd62ed3e33306040518363ffffffff1660e01b81526004016110fc929190613a75565b60206040518083038186803b15801561111457600080fd5b505afa158015611128573d6000803e3d6000fd5b505050506040513d601f19601f8201168201806040525081019061114c91906134df565b905085811015611191576040517f08c379a000000000000000000000000000000000000000000000000000000000815260040161118890613cbe565b60405180910390fd5b600c60009054906101000a900473ffffffffffffffffffffffffffffffffffffffff1673ffffffffffffffffffffffffffffffffffffffff166323b872dd3330896040518463ffffffff1660e01b81526004016111f093929190613a9e565b602060405180830381600087803b15801561120a57600080fd5b505af115801561121e573d6000803e3d6000fd5b505050506040513d601f19601f82011682018060405250810190611242919061342b565b5061124d600b6129cd565b6000611259600b6129e3565b905061126533826129f1565b61126f8186612bbf565b866010600083815260200190815260200160002081905550600042905080601160008481526020019081526020016000208190555086816112b09190613f63565b6012600084815260200190815260200160002081905550336013600084815260200190815260200160002060006101000a81548173ffffffffffffffffffffffffffffffffffffffff021916908373ffffffffffffffffffffffffffffffffffffffff160217905550819450505050509392505050565b600860009054906101000a900473ffffffffffffffffffffffffffffffffffffffff1673ffffffffffffffffffffffffffffffffffffffff163373ffffffffffffffffffffffffffffffffffffffff161461138157600080fd5b600760009054906101000a900473ffffffffffffffffffffffffffffffffffffffff1673ffffffffffffffffffffffffffffffffffffffff16600860009054906101000a900473ffffffffffffffffffffffffffffffffffffffff1673ffffffffffffffffffffffffffffffffffffffff1614156113fe57600080fd5b600860009054906101000a900473ffffffffffffffffffffffffffffffffffffffff16600760006101000a81548173ffffffffffffffffffffffffffffffffffffffff021916908373ffffffffffffffffffffffffffffffffffffffff160217905550565b60008073ffffffffffffffffffffffffffffffffffffffff168273ffffffffffffffffffffffffffffffffffffffff1614156114d4576040517f08c379a00000000000000000000000000000000000000000000000000000000081526004016114cb90613c5e565b60405180910390fd5b600360008373ffffffffffffffffffffffffffffffffffffffff1673ffffffffffffffffffffffffffffffffffffffff168152602001908152602001600020549050919050565b600760009054906101000a900473ffffffffffffffffffffffffffffffffffffffff1681565b6060600180546115509061414f565b80601f016020809104026020016040519081016040528092919081815260200182805461157c9061414f565b80156115c95780601f1061159e576101008083540402835291602001916115c9565b820191906000526020600020905b8154815290600101906020018083116115ac57829003601f168201915b5050505050905090565b600060116000838152602001908152602001600020549050919050565b6000601160008381526020019081526020016000205460126000848152602001908152602001600020546116249190614044565b9050919050565b6116336125d2565b73ffffffffffffffffffffffffffffffffffffffff168273ffffffffffffffffffffffffffffffffffffffff1614156116a1576040517f08c379a000000000000000000000000000000000000000000000000000000000815260040161169890613bde565b60405180910390fd5b80600560006116ae6125d2565b73ffffffffffffffffffffffffffffffffffffffff1673ffffffffffffffffffffffffffffffffffffffff16815260200190815260200160002060008473ffffffffffffffffffffffffffffffffffffffff1673ffffffffffffffffffffffffffffffffffffffff16815260200190815260200160002060006101000a81548160ff0219169083151502179055508173ffffffffffffffffffffffffffffffffffffffff1661175b6125d2565b73ffffffffffffffffffffffffffffffffffffffff167f17307eab39ab6107e8899845ad3d59bd9653f200f220920489ca2b5937696c31836040516117a09190613b21565b60405180910390a35050565b600760009054906101000a900473ffffffffffffffffffffffffffffffffffffffff1673ffffffffffffffffffffffffffffffffffffffff163373ffffffffffffffffffffffffffffffffffffffff161461180657600080fd5b600760009054906101000a900473ffffffffffffffffffffffffffffffffffffffff16600860006101000a81548173ffffffffffffffffffffffffffffffffffffffff021916908373ffffffffffffffffffffffffffffffffffffffff16021790555080600760006101000a81548173ffffffffffffffffffffffffffffffffffffffff021916908373ffffffffffffffffffffffffffffffffffffffff16021790555050565b6118be6118b86125d2565b83612693565b6118fd576040517f08c379a00000000000000000000000000000000000000000000000000000000081526004016118f490613e3e565b60405180910390fd5b61190984848484612c33565b50505050565b6000600c60009054906101000a900473ffffffffffffffffffffffffffffffffffffffff1673ffffffffffffffffffffffffffffffffffffffff166370a08231336040518263ffffffff1660e01b815260040161196c9190613a5a565b60206040518083038186803b15801561198457600080fd5b505afa158015611998573d6000803e3d6000fd5b505050506040513d601f19601f820116820180604052508101906119bc91906134df565b905081811015611a01576040517f08c379a00000000000000000000000000000000000000000000000000000000081526004016119f890613c3e565b60405180910390fd5b6000600c60009054906101000a900473ffffffffffffffffffffffffffffffffffffffff1673ffffffffffffffffffffffffffffffffffffffff1663dd62ed3e33306040518363ffffffff1660e01b8152600401611a60929190613a75565b60206040518083038186803b158015611a7857600080fd5b505afa158015611a8c573d6000803e3d6000fd5b505050506040513d601f19601f82011682018060405250810190611ab091906134df565b905082811015611af5576040517f08c379a0000000000000000000000000000000000000000000000000000000008152600401611aec90613cbe565b60405180910390fd5b600c60009054906101000a900473ffffffffffffffffffffffffffffffffffffffff1673ffffffffffffffffffffffffffffffffffffffff166323b872dd3330866040518463ffffffff1660e01b8152600401611b5493929190613a9e565b602060405180830381600087803b158015611b6e57600080fd5b505af1158015611b82573d6000803e3d6000fd5b505050506040513d601f19601f82011682018060405250810190611ba6919061342b565b50826010600086815260200190815260200160002054611bc69190613f63565b601060008681526020019081526020016000208190555082600e6000828254611bef9190613f63565b9250508190555050505050565b60003373ffffffffffffffffffffffffffffffffffffffff16611c1e84610d84565b73ffffffffffffffffffffffffffffffffffffffff1614611c74576040517f08c379a0000000000000000000000000000000000000000000000000000000008152600401611c6b90613d9e565b60405180910390fd5b60016014600085815260200190815260200160002060008473ffffffffffffffffffffffffffffffffffffffff1673ffffffffffffffffffffffffffffffffffffffff16815260200190815260200160002060006101000a81548160ff0219169083151502179055506001905092915050565b6060611cf282612566565b611d31576040517f08c379a0000000000000000000000000000000000000000000000000000000008152600401611d2890613cfe565b60405180910390fd5b6000600660008481526020019081526020016000208054611d519061414f565b80601f0160208091040260200160405190810160405280929190818152602001828054611d7d9061414f565b8015611dca5780601f10611d9f57610100808354040283529160200191611dca565b820191906000526020600020905b815481529060010190602001808311611dad57829003601f168201915b505050505090506000611ddb612c8f565b9050600081511415611df1578192505050611e34565b600082511115611e26578082604051602001611e0e929190613a36565b60405160208183030381529060405292505050611e34565b611e2f84612ca6565b925050505b919050565b50565b600060126000838152602001908152602001600020549050919050565b6000600560008473ffffffffffffffffffffffffffffffffffffffff1673ffffffffffffffffffffffffffffffffffffffff16815260200190815260200160002060008373ffffffffffffffffffffffffffffffffffffffff1673ffffffffffffffffffffffffffffffffffffffff16815260200190815260200160002060009054906101000a900460ff16905092915050565b60008073ffffffffffffffffffffffffffffffffffffffff16611f0f84610d84565b73ffffffffffffffffffffffffffffffffffffffff161415611f66576040517f08c379a0000000000000000000000000000000000000000000000000000000008152600401611f5d90613b5e565b60405180910390fd5b3373ffffffffffffffffffffffffffffffffffffffff16611f8684610d84565b73ffffffffffffffffffffffffffffffffffffffff16148061200257506014600084815260200190815260200160002060003373ffffffffffffffffffffffffffffffffffffffff1673ffffffffffffffffffffffffffffffffffffffff16815260200190815260200160002060009054906101000a900460ff165b806120565750600f60003373ffffffffffffffffffffffffffffffffffffffff1673ffffffffffffffffffffffffffffffffffffffff16815260200190815260200160002060009054906101000a900460ff165b612095576040517f08c379a000000000000000000000000000000000000000000000000000000000815260040161208c90613dde565b60405180910390fd5b600082116120d8576040517f08c379a00000000000000000000000000000000000000000000000000000000081526004016120cf90613e5e565b60405180910390fd5b600060106000858152602001908152602001600020549050600083826120fe9190613f63565b90506000600c60009054906101000a900473ffffffffffffffffffffffffffffffffffffffff1673ffffffffffffffffffffffffffffffffffffffff166370a08231336040518263ffffffff1660e01b815260040161215d9190613a5a565b60206040518083038186803b15801561217557600080fd5b505afa158015612189573d6000803e3d6000fd5b505050506040513d601f19601f820116820180604052508101906121ad91906134df565b9050848110156121f2576040517f08c379a00000000000000000000000000000000000000000000000000000000081526004016121e990613c3e565b60405180910390fd5b6000600c60009054906101000a900473ffffffffffffffffffffffffffffffffffffffff1673ffffffffffffffffffffffffffffffffffffffff1663dd62ed3e33306040518363ffffffff1660e01b8152600401612251929190613a75565b60206040518083038186803b15801561226957600080fd5b505afa15801561227d573d6000803e3d6000fd5b505050506040513d601f19601f820116820180604052508101906122a191906134df565b9050858110156122e6576040517f08c379a00000000000000000000000000000000000000000000000000000000081526004016122dd90613cbe565b60405180910390fd5b600c60009054906101000a900473ffffffffffffffffffffffffffffffffffffffff1673ffffffffffffffffffffffffffffffffffffffff166323b872dd3330896040518463ffffffff1660e01b815260040161234593929190613a9e565b602060405180830381600087803b15801561235f57600080fd5b505af1158015612373573d6000803e3d6000fd5b505050506040513d601f19601f82011682018060405250810190612397919061342b565b5060006011600089815260200190815260200160002054601260008a8152602001908152602001600020546123cc9190614044565b90506000600186866123de9190613fb9565b6123e89190614044565b826123f39190613fea565b90506305265c00811115612409576305265c0090505b8082601160008c8152602001908152602001600020546124299190613f63565b6124339190613f63565b601260008b81526020019081526020016000208190555084601060008b81526020019081526020016000208190555087600e60008282546124749190613f63565b92505081905550883373ffffffffffffffffffffffffffffffffffffffff167fa07360ab202626d13fac2c1584f519f168d6c31868f45d0305be044f2630f26f8a6040516124c29190613e7e565b60405180910390a350505050505092915050565b600860009054906101000a900473ffffffffffffffffffffffffffffffffffffffff1681565b60007f01ffc9a7000000000000000000000000000000000000000000000000000000007bffffffffffffffffffffffffffffffffffffffffffffffffffffffff1916827bffffffffffffffffffffffffffffffffffffffffffffffffffffffff1916149050919050565b60008073ffffffffffffffffffffffffffffffffffffffff166002600084815260200190815260200160002060009054906101000a900473ffffffffffffffffffffffffffffffffffffffff1673ffffffffffffffffffffffffffffffffffffffff1614159050919050565b600033905090565b816004600083815260200190815260200160002060006101000a81548173ffffffffffffffffffffffffffffffffffffffff021916908373ffffffffffffffffffffffffffffffffffffffff160217905550808273ffffffffffffffffffffffffffffffffffffffff1661264d83610d84565b73ffffffffffffffffffffffffffffffffffffffff167f8c5be1e5ebec7d5bd14f71427d1e84f3dd0314c0f7b2291e5b200ac8c7c3b92560405160405180910390a45050565b600061269e82612566565b6126dd576040517f08c379a00000000000000000000000000000000000000000000000000000000081526004016126d490613bfe565b60405180910390fd5b60006126e883610d84565b90508073ffffffffffffffffffffffffffffffffffffffff168473ffffffffffffffffffffffffffffffffffffffff16148061275757508373ffffffffffffffffffffffffffffffffffffffff1661273f8461083b565b73ffffffffffffffffffffffffffffffffffffffff16145b8061276857506127678185611e59565b5b91505092915050565b8273ffffffffffffffffffffffffffffffffffffffff1661279182610d84565b73ffffffffffffffffffffffffffffffffffffffff16146127e7576040517f08c379a00000000000000000000000000000000000000000000000000000000081526004016127de90613d3e565b60405180910390fd5b600073ffffffffffffffffffffffffffffffffffffffff168273ffffffffffffffffffffffffffffffffffffffff161415612857576040517f08c379a000000000000000000000000000000000000000000000000000000000815260040161284e90613bbe565b60405180910390fd5b612862838383612d4d565b61286d6000826125da565b6001600360008573ffffffffffffffffffffffffffffffffffffffff1673ffffffffffffffffffffffffffffffffffffffff16815260200190815260200160002060008282546128bd9190614044565b925050819055506001600360008473ffffffffffffffffffffffffffffffffffffffff1673ffffffffffffffffffffffffffffffffffffffff16815260200190815260200160002060008282546129149190613f63565b92505081905550816002600083815260200190815260200160002060006101000a81548173ffffffffffffffffffffffffffffffffffffffff021916908373ffffffffffffffffffffffffffffffffffffffff160217905550808273ffffffffffffffffffffffffffffffffffffffff168473ffffffffffffffffffffffffffffffffffffffff167fddf252ad1be2c89b69c2b068fc378daa952ba7f163c4a11628f55a4df523b3ef60405160405180910390a4505050565b6001816000016000828254019250508190555050565b600081600001549050919050565b600073ffffffffffffffffffffffffffffffffffffffff168273ffffffffffffffffffffffffffffffffffffffff161415612a61576040517f08c379a0000000000000000000000000000000000000000000000000000000008152600401612a5890613cde565b60405180910390fd5b612a6a81612566565b15612aaa576040517f08c379a0000000000000000000000000000000000000000000000000000000008152600401612aa190613b9e565b60405180910390fd5b612ab660008383612d4d565b6001600360008473ffffffffffffffffffffffffffffffffffffffff1673ffffffffffffffffffffffffffffffffffffffff1681526020019081526020016000206000828254612b069190613f63565b92505081905550816002600083815260200190815260200160002060006101000a81548173ffffffffffffffffffffffffffffffffffffffff021916908373ffffffffffffffffffffffffffffffffffffffff160217905550808273ffffffffffffffffffffffffffffffffffffffff16600073ffffffffffffffffffffffffffffffffffffffff167fddf252ad1be2c89b69c2b068fc378daa952ba7f163c4a11628f55a4df523b3ef60405160405180910390a45050565b612bc882612566565b612c07576040517f08c379a0000000000000000000000000000000000000000000000000000000008152600401612bfe90613c9e565b60405180910390fd5b80600660008481526020019081526020016000209080519060200190612c2e929190613047565b505050565b612c3e848484612771565b612c4a84848484612d52565b612c89576040517f08c379a0000000000000000000000000000000000000000000000000000000008152600401612c8090613b7e565b60405180910390fd5b50505050565b606060405180602001604052806000815250905090565b6060612cb182612566565b612cf0576040517f08c379a0000000000000000000000000000000000000000000000000000000008152600401612ce790613d7e565b60405180910390fd5b6000612cfa612c8f565b90506000815111612d1a5760405180602001604052806000815250612d45565b80612d2484612ed3565b604051602001612d35929190613a36565b6040516020818303038152906040525b915050919050565b505050565b6000612d5d84613034565b15612ec6578373ffffffffffffffffffffffffffffffffffffffff1663150b7a02612d866125d2565b8786866040518563ffffffff1660e01b8152600401612da89493929190613ad5565b602060405180830381600087803b158015612dc257600080fd5b505af1925050508015612df357506040513d601f19601f82011682018060405250810190612df09190613485565b60015b612e76573d8060008114612e23576040519150601f19603f3d011682016040523d82523d6000602084013e612e28565b606091505b50600081511415612e6e576040517f08c379a0000000000000000000000000000000000000000000000000000000008152600401612e6590613b7e565b60405180910390fd5b805181602001fd5b63150b7a0260e01b7bffffffffffffffffffffffffffffffffffffffffffffffffffffffff1916817bffffffffffffffffffffffffffffffffffffffffffffffffffffffff191614915050612ecb565b600190505b949350505050565b60606000821415612f1b576040518060400160405280600181526020017f3000000000000000000000000000000000000000000000000000000000000000815250905061302f565b600082905060005b60008214612f4d578080612f36906141b2565b915050600a82612f469190613fb9565b9150612f23565b60008167ffffffffffffffff811115612f6957612f686142e8565b5b6040519080825280601f01601f191660200182016040528015612f9b5781602001600182028036833780820191505090505b5090505b6000851461302857600182612fb49190614044565b9150600a85612fc391906141fb565b6030612fcf9190613f63565b60f81b818381518110612fe557612fe46142b9565b5b60200101907effffffffffffffffffffffffffffffffffffffffffffffffffffffffffffff1916908160001a905350600a856130219190613fb9565b9450612f9f565b8093505050505b919050565b600080823b905060008111915050919050565b8280546130539061414f565b90600052602060002090601f01602090048101928261307557600085556130bc565b82601f1061308e57805160ff19168380011785556130bc565b828001600101855582156130bc579182015b828111156130bb5782518255916020019190600101906130a0565b5b5090506130c991906130cd565b5090565b5b808211156130e65760008160009055506001016130ce565b5090565b60006130fd6130f884613ebe565b613e99565b9050828152602081018484840111156131195761311861431c565b5b61312484828561410d565b509392505050565b600061313f61313a84613eef565b613e99565b90508281526020810184848401111561315b5761315a61431c565b5b61316684828561410d565b509392505050565b60008135905061317d81614a35565b61318681614078565b905092915050565b60008135905061319d81614a4c565b92915050565b6000815190506131b281614a4c565b92915050565b6000813590506131c781614a63565b92915050565b6000815190506131dc81614a63565b92915050565b600082601f8301126131f7576131f6614317565b5b81356132078482602086016130ea565b91505092915050565b600082601f83011261322557613224614317565b5b813561323584826020860161312c565b91505092915050565b60008135905061324d81614a7a565b92915050565b60008151905061326281614a7a565b92915050565b60006020828403121561327e5761327d614326565b5b600061328c8482850161316e565b91505092915050565b600080604083850312156132ac576132ab614326565b5b60006132ba8582860161316e565b92505060206132cb8582860161316e565b9150509250929050565b6000806000606084860312156132ee576132ed614326565b5b60006132fc8682870161316e565b935050602061330d8682870161316e565b925050604061331e8682870161323e565b9150509250925092565b6000806000806080858703121561334257613341614326565b5b60006133508782880161316e565b94505060206133618782880161316e565b93505060406133728782880161323e565b925050606085013567ffffffffffffffff81111561339357613392614321565b5b61339f878288016131e2565b91505092959194509250565b600080604083850312156133c2576133c1614326565b5b60006133d08582860161316e565b92505060206133e18582860161318e565b9150509250929050565b6000806040838503121561340257613401614326565b5b60006134108582860161316e565b92505060206134218582860161323e565b9150509250929050565b60006020828403121561344157613440614326565b5b600061344f848285016131a3565b91505092915050565b60006020828403121561346e5761346d614326565b5b600061347c848285016131b8565b91505092915050565b60006020828403121561349b5761349a614326565b5b60006134a9848285016131cd565b91505092915050565b6000602082840312156134c8576134c7614326565b5b60006134d68482850161323e565b91505092915050565b6000602082840312156134f5576134f4614326565b5b600061350384828501613253565b91505092915050565b6000806040838503121561352357613522614326565b5b60006135318582860161323e565b92505060206135428582860161316e565b9150509250929050565b6000806040838503121561356357613562614326565b5b60006135718582860161323e565b92505060206135828582860161323e565b9150509250929050565b6000806000606084860312156135a5576135a4614326565b5b60006135b38682870161323e565b93505060206135c48682870161323e565b925050604084013567ffffffffffffffff8111156135e5576135e4614321565b5b6135f186828701613210565b9150509250925092565b61360481614078565b82525050565b6136138161408a565b82525050565b600061362482613f20565b61362e8185613f36565b935061363e81856020860161411c565b6136478161432b565b840191505092915050565b600061365d82613f2b565b6136678185613f47565b935061367781856020860161411c565b6136808161432b565b840191505092915050565b600061369682613f2b565b6136a08185613f58565b93506136b081856020860161411c565b80840191505092915050565b60006136c9603883613f47565b91506136d48261433c565b604082019050919050565b60006136ec603283613f47565b91506136f78261438b565b604082019050919050565b600061370f601c83613f47565b915061371a826143da565b602082019050919050565b6000613732602483613f47565b915061373d82614403565b604082019050919050565b6000613755601983613f47565b915061376082614452565b602082019050919050565b6000613778602c83613f47565b91506137838261447b565b604082019050919050565b600061379b603883613f47565b91506137a6826144ca565b604082019050919050565b60006137be601d83613f47565b91506137c982614519565b602082019050919050565b60006137e1602a83613f47565b91506137ec82614542565b604082019050919050565b6000613804602983613f47565b915061380f82614591565b604082019050919050565b6000613827602e83613f47565b9150613832826145e0565b604082019050919050565b600061384a602b83613f47565b91506138558261462f565b604082019050919050565b600061386d602083613f47565b91506138788261467e565b602082019050919050565b6000613890603183613f47565b915061389b826146a7565b604082019050919050565b60006138b3602c83613f47565b91506138be826146f6565b604082019050919050565b60006138d6602983613f47565b91506138e182614745565b604082019050919050565b60006138f9601b83613f47565b915061390482614794565b602082019050919050565b600061391c602f83613f47565b9150613927826147bd565b604082019050919050565b600061393f602583613f47565b915061394a8261480c565b604082019050919050565b6000613962602183613f47565b915061396d8261485b565b604082019050919050565b6000613985604883613f47565b9150613990826148aa565b606082019050919050565b60006139a8602283613f47565b91506139b38261491f565b604082019050919050565b60006139cb602383613f47565b91506139d68261496e565b604082019050919050565b60006139ee603183613f47565b91506139f9826149bd565b604082019050919050565b6000613a11601f83613f47565b9150613a1c82614a0c565b602082019050919050565b613a3081614103565b82525050565b6000613a42828561368b565b9150613a4e828461368b565b91508190509392505050565b6000602082019050613a6f60008301846135fb565b92915050565b6000604082019050613a8a60008301856135fb565b613a9760208301846135fb565b9392505050565b6000606082019050613ab360008301866135fb565b613ac060208301856135fb565b613acd6040830184613a27565b949350505050565b6000608082019050613aea60008301876135fb565b613af760208301866135fb565b613b046040830185613a27565b8181036060830152613b168184613619565b905095945050505050565b6000602082019050613b36600083018461360a565b92915050565b60006020820190508181036000830152613b568184613652565b905092915050565b60006020820190508181036000830152613b77816136bc565b9050919050565b60006020820190508181036000830152613b97816136df565b9050919050565b60006020820190508181036000830152613bb781613702565b9050919050565b60006020820190508181036000830152613bd781613725565b9050919050565b60006020820190508181036000830152613bf781613748565b9050919050565b60006020820190508181036000830152613c178161376b565b9050919050565b60006020820190508181036000830152613c378161378e565b9050919050565b60006020820190508181036000830152613c57816137b1565b9050919050565b60006020820190508181036000830152613c77816137d4565b9050919050565b60006020820190508181036000830152613c97816137f7565b9050919050565b60006020820190508181036000830152613cb78161381a565b9050919050565b60006020820190508181036000830152613cd78161383d565b9050919050565b60006020820190508181036000830152613cf781613860565b9050919050565b60006020820190508181036000830152613d1781613883565b9050919050565b60006020820190508181036000830152613d37816138a6565b9050919050565b60006020820190508181036000830152613d57816138c9565b9050919050565b60006020820190508181036000830152613d77816138ec565b9050919050565b60006020820190508181036000830152613d978161390f565b9050919050565b60006020820190508181036000830152613db781613932565b9050919050565b60006020820190508181036000830152613dd781613955565b9050919050565b60006020820190508181036000830152613df781613978565b9050919050565b60006020820190508181036000830152613e178161399b565b9050919050565b60006020820190508181036000830152613e37816139be565b9050919050565b60006020820190508181036000830152613e57816139e1565b9050919050565b60006020820190508181036000830152613e7781613a04565b9050919050565b6000602082019050613e936000830184613a27565b92915050565b6000613ea3613eb4565b9050613eaf8282614181565b919050565b6000604051905090565b600067ffffffffffffffff821115613ed957613ed86142e8565b5b613ee28261432b565b9050602081019050919050565b600067ffffffffffffffff821115613f0a57613f096142e8565b5b613f138261432b565b9050602081019050919050565b600081519050919050565b600081519050919050565b600082825260208201905092915050565b600082825260208201905092915050565b600081905092915050565b6000613f6e82614103565b9150613f7983614103565b9250827fffffffffffffffffffffffffffffffffffffffffffffffffffffffffffffffff03821115613fae57613fad61422c565b5b828201905092915050565b6000613fc482614103565b9150613fcf83614103565b925082613fdf57613fde61425b565b5b828204905092915050565b6000613ff582614103565b915061400083614103565b9250817fffffffffffffffffffffffffffffffffffffffffffffffffffffffffffffffff04831182151516156140395761403861422c565b5b828202905092915050565b600061404f82614103565b915061405a83614103565b92508282101561406d5761406c61422c565b5b828203905092915050565b6000614083826140c2565b9050919050565b60008115159050919050565b60007fffffffff0000000000000000000000000000000000000000000000000000000082169050919050565b600073ffffffffffffffffffffffffffffffffffffffff82169050919050565b600074ffffffffffffffffffffffffffffffffffffffffff82169050919050565b6000819050919050565b82818337600083830152505050565b60005b8381101561413a57808201518184015260208101905061411f565b83811115614149576000848401525b50505050565b6000600282049050600182168061416757607f821691505b6020821081141561417b5761417a61428a565b5b50919050565b61418a8261432b565b810181811067ffffffffffffffff821117156141a9576141a86142e8565b5b80604052505050565b60006141bd82614103565b91507fffffffffffffffffffffffffffffffffffffffffffffffffffffffffffffffff8214156141f0576141ef61422c565b5b600182019050919050565b600061420682614103565b915061421183614103565b9250826142215761422061425b565b5b828206905092915050565b7f4e487b7100000000000000000000000000000000000000000000000000000000600052601160045260246000fd5b7f4e487b7100000000000000000000000000000000000000000000000000000000600052601260045260246000fd5b7f4e487b7100000000000000000000000000000000000000000000000000000000600052602260045260246000fd5b7f4e487b7100000000000000000000000000000000000000000000000000000000600052603260045260246000fd5b7f4e487b7100000000000000000000000000000000000000000000000000000000600052604160045260246000fd5b600080fd5b600080fd5b600080fd5b600080fd5b6000601f19601f8301169050919050565b7f5468697320746f6b656e2065697468657220646f6573206e6f7420796574206560008201527f78697374206f7220686173206265656e206275726e65642e0000000000000000602082015250565b7f4552433732313a207472616e7366657220746f206e6f6e20455243373231526560008201527f63656976657220696d706c656d656e7465720000000000000000000000000000602082015250565b7f4552433732313a20746f6b656e20616c7265616479206d696e74656400000000600082015250565b7f4552433732313a207472616e7366657220746f20746865207a65726f2061646460008201527f7265737300000000000000000000000000000000000000000000000000000000602082015250565b7f4552433732313a20617070726f766520746f2063616c6c657200000000000000600082015250565b7f4552433732313a206f70657261746f7220717565727920666f72206e6f6e657860008201527f697374656e7420746f6b656e0000000000000000000000000000000000000000602082015250565b7f4552433732313a20617070726f76652063616c6c6572206973206e6f74206f7760008201527f6e6572206e6f7220617070726f76656420666f7220616c6c0000000000000000602082015250565b7f496e73756666696369656e742043555220746f206261636b204e46542e000000600082015250565b7f4552433732313a2062616c616e636520717565727920666f7220746865207a6560008201527f726f206164647265737300000000000000000000000000000000000000000000602082015250565b7f4552433732313a206f776e657220717565727920666f72206e6f6e657869737460008201527f656e7420746f6b656e0000000000000000000000000000000000000000000000602082015250565b7f45524337323155524953746f726167653a2055524920736574206f66206e6f6e60008201527f6578697374656e7420746f6b656e000000000000000000000000000000000000602082015250565b7f4e6f7420656e6f75676820746f6b656e7320617070726f766564207072696f7260008201527f20746f206d696e74696e67000000000000000000000000000000000000000000602082015250565b7f4552433732313a206d696e7420746f20746865207a65726f2061646472657373600082015250565b7f45524337323155524953746f726167653a2055524920717565727920666f722060008201527f6e6f6e6578697374656e7420746f6b656e000000000000000000000000000000602082015250565b7f4552433732313a20617070726f76656420717565727920666f72206e6f6e657860008201527f697374656e7420746f6b656e0000000000000000000000000000000000000000602082015250565b7f4552433732313a207472616e73666572206f6620746f6b656e2074686174206960008201527f73206e6f74206f776e0000000000000000000000000000000000000000000000602082015250565b7f4d696e696d756d206c6f636b6f757420697320333020646179732e0000000000600082015250565b7f4552433732314d657461646174613a2055524920717565727920666f72206e6f60008201527f6e6578697374656e7420746f6b656e0000000000000000000000000000000000602082015250565b7f4f6e6c7920746865204e4654206f776e65722063616e20616c7465722062616360008201527f6b6572732e000000000000000000000000000000000000000000000000000000602082015250565b7f4552433732313a20617070726f76616c20746f2063757272656e74206f776e6560008201527f7200000000000000000000000000000000000000000000000000000000000000602082015250565b7f4f6e6c79207468652063757272656e74204e4654206f776e6572206f7220617560008201527f74686f72697a6564206164647265737365732063616e20696e6372656173652060208201527f6261636b696e672e000000000000000000000000000000000000000000000000604082015250565b7f536f6d6520435552206d757374206265207573656420746f206261636b204e4660008201527f542e000000000000000000000000000000000000000000000000000000000000602082015250565b7f546f6b656e206164647265737320686173206e6f7420796574206265656e207360008201527f6574210000000000000000000000000000000000000000000000000000000000602082015250565b7f4552433732313a207472616e736665722063616c6c6572206973206e6f74206f60008201527f776e6572206e6f7220617070726f766564000000000000000000000000000000602082015250565b7f5768792061726520796f75206261636b696e672077697468207a65726f3f2100600082015250565b614a3e816140e2565b8114614a4957600080fd5b50565b614a558161408a565b8114614a6057600080fd5b50565b614a6c81614096565b8114614a7757600080fd5b50565b614a8381614103565b8114614a8e57600080fd5b5056fea26474726f6e58221220525b9369cb1392be7a0e2c5a3d5771206823610a8c567d42f2f129458aeb554264736f6c63430008060033",
  "source": "// SPDX-License-Identifier: GPL-3.0\n\npragma solidity ^0.8.0;\n\nimport \"@openzeppelin/contracts/token/ERC721/extensions/ERC721URIStorage.sol\";\nimport \"@openzeppelin/contracts/utils/Counters.sol\";\nimport \"@openzeppelin/contracts/utils/math/SafeMath.sol\";\nimport \"@openzeppelin/contracts/interfaces/IERC20.sol\";\n\nimport \"@openzeppelin/contracts/utils/Strings.sol\";\nimport \"@openzeppelin/contracts/utils/Address.sol\";\n\ncontract Owned {\n  address public owner;\n  address public oldOwner;\n  uint256 public tokenId = 1002567;\n  uint256 lastChangedOwnerAt;\n  constructor() {\n    owner = msg.sender;\n    oldOwner = owner;\n  }\n  modifier isOwner() {\n    require(msg.sender == owner);\n    _;\n  }\n  modifier isOldOwner() {\n    require(msg.sender == oldOwner);\n    _;\n  }\n  modifier sameOwner() {\n    address addr = msg.sender;\n    // Ensure that the address is a contract\n    uint256 size;\n    assembly { size := extcodesize(addr) }\n    require(size > 0);\n\n    // Ensure that the contract's parent is\n    Owned own = Owned(addr);\n    require(own.owner() == owner);\n     _;\n  }\n  // Be careful with this option!\n  function changeOwner(address newOwner) public isOwner {\n   // lastChangedOwnerAt = block.timestamp;\n    oldOwner = owner;\n    owner = newOwner;\n  }\n  // Allow a revert to old owner ONLY IF it has been less than a day\n  function revertOwner() public isOldOwner {\n    require(oldOwner != owner);\n   // require((block.timestamp - lastChangedOwnerAt) * 1 seconds < 86400);\n    owner = oldOwner;\n  }\n}\n\n\n// Considering changing to ERC1155 standard with an ERC-20 fungible token associated with each NFT to create a fractional NFT system.\n// Then we could have the burn/redeem feature generate an \"available balance\" and use ERC-20 tokens to redeem. Easy for burn, but if I include the redeem feature\n// then it becomes much harder to figure out how much each ERC-20 token should yield.\n// I would also need to figure out how many tokens are given for each NFT, who has control over it, etc. Most likely it'll have an \"ownerMint\" feature.\n\n// Another idea along these lines is that tokens are generated when CUR is added. I don't like this approach quite as much, but maybe it's an option.\n// I suppose it could always be set up to give the NFT creator the option of creating one or the other.\n// One thing is if I do it this way, the owner should not be able to mint more tokens right before they burn, otherwise they could do a rug pull.\ncontract CURNFT is ERC721URIStorage, Owned {\n    using Counters for Counters.Counter;\n    Counters.Counter private _tokenIds;\n    IERC20 curContract;\n\n    uint256 minimum_mint = 0; // Not fully implemented but will be used to adjust the minimum amount needed to mint an NFT\n\n    uint256 private totalBacking; // Total amount put into backing NFTs\n\n    mapping (address => bool) private superAllowed; // If true for address then that address can back the NFT without causing an increased lockout\n\n    // Should this be wrapped in a struct?\n    mapping (uint256 => uint256) private backing;\n    mapping (uint256 => uint256) private createdAt;\n    mapping (uint256 => uint256) private lockedUntil;\n    mapping (uint256 => address) nft_issuer; // The address of the person who called the mint function\n    mapping (uint256 => mapping (address => bool)) private backingAllowed;\n    // Might want to add MIME type into the NFT info\n\n    event NFTBacker(address indexed _backer, uint256 indexed _tokenId, uint256 _amt);\n    event Liquidate(address indexed _burner, uint256 indexed _tokenId, uint256 _amt);\n    event Burn(address indexed _burner, uint256 indexed _tokenId, uint256 _amt);\n\n    constructor(IERC20 addr) ERC721(\"CURNFT\", \"CUR\") public {\n      curContract = addr;\n    }\n\n    function getCreatedAt(uint256 tokenId) public view returns (uint256) {\n      return createdAt[tokenId];\n    }\n\n    function getLockedUntil(uint256 tokenId) public view returns (uint256) {\n      return lockedUntil[tokenId];\n    }\n\n    function getLockoutPeriod(uint256 tokenId) public view returns (uint256) {\n      return lockedUntil[tokenId] - createdAt[tokenId];\n    }\n\n    function timeUntilUnlocked(uint256 tokenId) public view returns (uint256) {\n      if (block.timestamp >= lockedUntil[tokenId]) return 0;\n      return lockedUntil[tokenId] - block.timestamp;\n    }\n\n    function getBacking(uint256 tokenId) public view returns (uint256) {\n      return backing[tokenId];\n    }\n\n    function isBackingAllowed(uint256 tokenId, address addr) public view returns (bool) {\n      return backingAllowed[tokenId][addr];\n    }\n\n    function allowBacker(uint256 tokenId, address addr) public returns (bool) {\n      require(ownerOf(tokenId) == msg.sender, \"Only the NFT owner can alter backers.\");\n      backingAllowed[tokenId][addr] = true;\n      return true;\n    }\n\n    function disallowBacker(uint256 tokenId, address addr) public returns (bool) {\n      require(ownerOf(tokenId) == msg.sender, \"Only the NFT owner can alter backers.\");\n      backingAllowed[tokenId][addr] = false;\n      return true;\n    }\n\n    function createNFT(uint256 cur, uint256 lockout_time, string memory tokenURI) public returns (uint256) {\n        require(curContract != IERC20(address(0)), \"Token address has not yet been set!\");\n        require(cur >= minimum_mint || msg.sender == owner, \"Some CUR must be used to back NFT.\");\n        require(lockout_time > 30 days , \"Minimum lockout is 30 days.\");\n\n        uint256 balance = curContract.balanceOf(msg.sender);\n        require(balance >= cur, \"Insufficient CUR to back NFT.\");\n\n        uint256 allowance = curContract.allowance(msg.sender, address(this));\n        require(allowance >= cur, \"Not enough tokens approved prior to minting\");\n    \t\tcurContract.transferFrom(msg.sender, address(this), cur);\n\n        _tokenIds.increment();\n\n        uint256 newItemId = _tokenIds.current();\n        _mint(msg.sender, newItemId);\n        _setTokenURI(newItemId, tokenURI);\n\n        backing[newItemId] = cur;\n\n        uint256 created_at = block.timestamp;\n\n        createdAt[newItemId] = created_at;\n        lockedUntil[newItemId] = created_at + lockout_time;\n        nft_issuer[newItemId] = msg.sender;\n\n        return newItemId;\n    }\n\n    /**\n     * @dev Adds more CUR to back the NFT\n     * @param tokenId uint256 id of the ERC721 token to be backed.\n     * @param amt uint256 amt of CUR to give.\n     *\n     * This backing system is nice and simple. However, it could be really nice to have a rolling system where each individual backing slowly reaches maturity.\n     * It would require a heavy rewrite as instead of a single backing, I would probably need a linked list of <backing_amount, date_backed>\n     */\n    function backNFT(uint256 tokenId, uint256 amt) public returns (uint256) {\n      require(ownerOf(tokenId) != address(0), \"This token either does not yet exist or has been burned.\");\n      require(ownerOf(tokenId) == msg.sender || backingAllowed[tokenId][msg.sender] || superAllowed[msg.sender], \"Only the current NFT owner or authorized addresses can increase backing.\");\n      require(amt > 0, \"Why are you backing with zero?!\");\n\n      uint256 old_backing = backing[tokenId];\n      uint256 new_backing = old_backing + amt;\n\n      uint256 balance = curContract.balanceOf(msg.sender);\n      require(balance >= amt, \"Insufficient CUR to back NFT.\");\n\n      uint256 allowance = curContract.allowance(msg.sender, address(this));\n      require(allowance >= amt, \"Not enough tokens approved prior to minting\");\n      curContract.transferFrom(msg.sender, address(this), amt);\n\n      // Update lockout time\n      uint256 lo_len = lockedUntil[tokenId] - createdAt[tokenId];\n      uint256 add_time = lo_len * (new_backing/old_backing - 1);\n      if (add_time > 1000 days) add_time = 1000 days; // Prevent any amount from adding more than 1,000 additional days to lockout period.\n      lockedUntil[tokenId] = createdAt[tokenId] + lo_len + add_time;\n\n      backing[tokenId] = new_backing;\n      totalBacking += amt;\n\n      emit NFTBacker(msg.sender, tokenId, amt);\n    }\n\n    // Similar to backNFT, but doesn't increase lockout time. Limited access for obvious reasons. Used by Project Curate to give out bonuses, awards, etc.\n    function systemBackNFT(uint256 tokenId, uint256 amt) public {\n     // require(isSuperAllowed[msg.sender], \"Not authorized, please use backNFT operation instead.\");\n\n      uint256 balance = curContract.balanceOf(msg.sender);\n      require(balance >= amt, \"Insufficient CUR to back NFT.\");\n\n      uint256 allowance = curContract.allowance(msg.sender, address(this));\n      require(allowance >= amt, \"Not enough tokens approved prior to minting\");\n      curContract.transferFrom(msg.sender, address(this), amt);\n\n      backing[tokenId] = backing[tokenId] + amt;\n      totalBacking += amt;\n    }\n\n    function allowSuper(address addr) public isOwner {\n      superAllowed[addr] = true;\n    }\n\n    function disallowSuper(address addr) public isOwner {\n      superAllowed[addr] = false;\n    }\n\n    // Returns the amount of CUR that the user would receive if they burned the NFT.\n    // When single backing is rewritten to allow for a linked list of multiple backings, burnValue will traverse the list to calculate the total burn value\n    // function burnValue(uint256 tokenId) public view returns (uint256 amt) {\n    //   uint256 backed = backing[tokenId];\n    //   uint256 total = totalBacking;\n    //   backing[tokenId] = 0;\n\n    //   address t_owner = ownerOf(tokenId);\n\n    //   // Need to replace this section with a _willReceive function which will calculate how much a user will receive on burn.\n    //   uint256 bal = curContract.balanceOf(address(this));\n    //   uint256 lo_len = lockedUntil[tokenId] - createdAt[tokenId];\n\n    //   // Calculate multiplier based on how much time the NFT was locked\n    //   uint256 t_mult = lo_len / 500 days;\n    //   if (t_mult < (2 / 10)) t_mult = (2 / 10);\n    //   if (t_mult > 5) t_mult = 5;\n    //   uint256 mult = bal / total;\n\n    //   uint256 will_receive = backed * mult * t_mult;\n    //   if (will_receive < backed) will_receive = backed; // No matter the multiplier, make sure the person gets at least what is staked.\n    //   return will_receive;\n    // }\n\n    /**\n     * @dev Burns a specific ERC721 token.\n     * @param tokenId uint256 id of the ERC721 token to be burned.\n    //  */\n    // function burn(uint256 tokenId) public {\n    //     require(_isApprovedOrOwner(msg.sender, tokenId));\n    //     require(lockedUntil[tokenId] <= block.timestamp, \"Lockout period has not ended.\");\n\n    //     uint256 backed = backing[tokenId];\n    //     uint256 total = totalBacking;\n    //     backing[tokenId] = 0;\n\n    //     address t_owner = ownerOf(tokenId);\n    //     _burn(tokenId);\n\n    //     // Need to replace this section with a _willReceive function which will calculate how much a user will receive on burn.\n    //     uint256 bal = curContract.balanceOf(address(this));\n    //     uint256 lo_len = lockedUntil[tokenId] - createdAt[tokenId];\n\n    //     // Calculate multiplier based on how much time the NFT was locked\n    //     uint256 t_mult = lo_len / 500 days;\n    //     if (t_mult < (2 / 10)) t_mult = (2 /10);\n    //     if (t_mult > 5) t_mult = 5;\n    //     uint256 mult = bal / total;\n\n    //     uint256 will_receive = backed * mult * t_mult;\n    //     if (will_receive < backed) will_receive = backed; // No matter the multiplier, make sure the person gets at least what is staked.\n\n    //     // It shouldn't ever happen but if the contract doesn't have enough CUR, the system will revert.\n    //     require(bal >= will_receive, \"Insufficient CUR in the contract!\");\n\n    //     totalBacking -= backed;\n\n    //     curContract.transfer(t_owner, will_receive);\n    //     emit Burn(msg.sender, tokenId, will_receive);\n    // }\n\n    /* @dev Liquidates an NFT\n    * Like burn, but allows the original NFT to be preserved. Because the NFT is being preserved, there's a 20% penalty.\n    * @param tokenId uint256 id of the ERC721 token to be burned.\n    */\n    function redeem(uint256 tokenId) public {\n\n    }\n\n}\n",
  "sourcePath": "/home/swatim/TRON/metacoin-box/contracts/nft.sol",
  "compiler": {
    "name": "solc",
    "version": "0.8.6+commit.0e36fba0.mod.Emscripten.clang"
  },
  "schemaVersion": "2.0.1",
  "updatedAt": "2021-11-22T13:24:52.504Z"
}