{
  "contractName": "ForgableToken",
  "abi": [
    {
      "anonymous": false,
      "inputs": [
        {
          "indexed": true,
          "internalType": "address",
          "name": "_owner",
          "type": "address"
        },
        {
          "indexed": true,
          "internalType": "address",
          "name": "_spender",
          "type": "address"
        },
        {
          "indexed": false,
          "internalType": "uint256",
          "name": "_value",
          "type": "uint256"
        }
      ],
      "name": "Approval",
      "type": "event"
    },
    {
      "anonymous": false,
      "inputs": [
        {
          "indexed": true,
          "internalType": "address",
          "name": "_to",
          "type": "address"
        },
        {
          "indexed": false,
          "internalType": "uint256",
          "name": "_cost",
          "type": "uint256"
        },
        {
          "indexed": false,
          "internalType": "uint256",
          "name": "_amt",
          "type": "uint256"
        }
      ],
      "name": "Forged",
      "type": "event"
    },
    {
      "anonymous": false,
      "inputs": [
        {
          "indexed": true,
          "internalType": "address",
          "name": "_address",
          "type": "address"
        },
        {
          "indexed": false,
          "internalType": "uint256",
          "name": "_fee",
          "type": "uint256"
        }
      ],
      "name": "NewSmith",
      "type": "event"
    },
    {
      "anonymous": false,
      "inputs": [
        {
          "indexed": true,
          "internalType": "address",
          "name": "_from",
          "type": "address"
        },
        {
          "indexed": true,
          "internalType": "address",
          "name": "_to",
          "type": "address"
        },
        {
          "indexed": false,
          "internalType": "uint256",
          "name": "_value",
          "type": "uint256"
        }
      ],
      "name": "Transfer",
      "type": "event"
    },
    {
      "inputs": [
        {
          "internalType": "address",
          "name": "_owner",
          "type": "address"
        },
        {
          "internalType": "address",
          "name": "_spender",
          "type": "address"
        }
      ],
      "name": "allowance",
      "outputs": [
        {
          "internalType": "uint256",
          "name": "remaining",
          "type": "uint256"
        }
      ],
      "stateMutability": "view",
      "type": "function"
    },
    {
      "inputs": [
        {
          "internalType": "address",
          "name": "_spender",
          "type": "address"
        },
        {
          "internalType": "uint256",
          "name": "_value",
          "type": "uint256"
        }
      ],
      "name": "approve",
      "outputs": [
        {
          "internalType": "bool",
          "name": "success",
          "type": "bool"
        }
      ],
      "stateMutability": "nonpayable",
      "type": "function"
    },
    {
      "inputs": [
        {
          "internalType": "address",
          "name": "_owner",
          "type": "address"
        }
      ],
      "name": "balanceOf",
      "outputs": [
        {
          "internalType": "uint256",
          "name": "balance",
          "type": "uint256"
        }
      ],
      "stateMutability": "view",
      "type": "function"
    },
    {
      "inputs": [],
      "name": "canSmith",
      "outputs": [
        {
          "internalType": "bool",
          "name": "able",
          "type": "bool"
        }
      ],
      "stateMutability": "view",
      "type": "function"
    },
    {
      "inputs": [
        {
          "internalType": "address",
          "name": "newOwner",
          "type": "address"
        }
      ],
      "name": "changeOwner",
      "outputs": [],
      "stateMutability": "nonpayable",
      "type": "function"
    },
    {
      "inputs": [],
      "name": "forge",
      "outputs": [
        {
          "internalType": "bool",
          "name": "success",
          "type": "bool"
        }
      ],
      "stateMutability": "payable",
      "type": "function"
    },
    {
      "inputs": [],
      "name": "forgePrice",
      "outputs": [
        {
          "internalType": "uint256",
          "name": "price",
          "type": "uint256"
        }
      ],
      "stateMutability": "nonpayable",
      "type": "function"
    },
    {
      "inputs": [],
      "name": "maxForge",
      "outputs": [
        {
          "internalType": "uint256",
          "name": "amount",
          "type": "uint256"
        }
      ],
      "stateMutability": "view",
      "type": "function"
    },
    {
      "inputs": [],
      "name": "oldOwner",
      "outputs": [
        {
          "internalType": "address",
          "name": "",
          "type": "address"
        }
      ],
      "stateMutability": "view",
      "type": "function"
    },
    {
      "inputs": [],
      "name": "owner",
      "outputs": [
        {
          "internalType": "address",
          "name": "",
          "type": "address"
        }
      ],
      "stateMutability": "view",
      "type": "function"
    },
    {
      "inputs": [],
      "name": "paySmithingFee",
      "outputs": [
        {
          "internalType": "bool",
          "name": "fee",
          "type": "bool"
        }
      ],
      "stateMutability": "payable",
      "type": "function"
    },
    {
      "inputs": [],
      "name": "revertOwner",
      "outputs": [],
      "stateMutability": "nonpayable",
      "type": "function"
    },
    {
      "inputs": [
        {
          "internalType": "address",
          "name": "addr",
          "type": "address"
        }
      ],
      "name": "timeToForge",
      "outputs": [
        {
          "internalType": "uint256",
          "name": "time",
          "type": "uint256"
        }
      ],
      "stateMutability": "view",
      "type": "function"
    },
    {
      "inputs": [],
      "name": "tokenId",
      "outputs": [
        {
          "internalType": "uint256",
          "name": "",
          "type": "uint256"
        }
      ],
      "stateMutability": "view",
      "type": "function"
    },
    {
      "inputs": [
        {
          "internalType": "address",
          "name": "_to",
          "type": "address"
        },
        {
          "internalType": "uint256",
          "name": "_value",
          "type": "uint256"
        }
      ],
      "name": "transfer",
      "outputs": [
        {
          "internalType": "bool",
          "name": "success",
          "type": "bool"
        }
      ],
      "stateMutability": "nonpayable",
      "type": "function"
    },
    {
      "inputs": [
        {
          "internalType": "address",
          "name": "_from",
          "type": "address"
        },
        {
          "internalType": "address",
          "name": "_to",
          "type": "address"
        },
        {
          "internalType": "uint256",
          "name": "_value",
          "type": "uint256"
        }
      ],
      "name": "transferFrom",
      "outputs": [
        {
          "internalType": "bool",
          "name": "success",
          "type": "bool"
        }
      ],
      "stateMutability": "nonpayable",
      "type": "function"
    }
  ],
  "bytecode": "0x6080604052620f4c4760025534801561001757600080fd5b50d3801561002457600080fd5b50d2801561003157600080fd5b50336000806101000a81548173ffffffffffffffffffffffffffffffffffffffff021916908373ffffffffffffffffffffffffffffffffffffffff16021790555060008054906101000a900473ffffffffffffffffffffffffffffffffffffffff16600160006101000a81548173ffffffffffffffffffffffffffffffffffffffff021916908373ffffffffffffffffffffffffffffffffffffffff160217905550610b8e806100e26000396000f3fe6080604052600436106100f35760003560e01c80637d8d91871161008a578063a9059cbb11610059578063a9059cbb14610418578063bba87a1a1461046f578063dd62ed3e146104b4578063f487404f1461050b576100f3565b80637d8d91871461032d57806381989415146103725780638da5cb5b14610390578063a6f9dae1146103d5576100f3565b80636c6f4239116100c65780636c6f42391461024257806370328fd91461026057806370a08231146102915780637b6ab0de146102e8576100f3565b8063095ea7b3146100f857806317d70f7c1461014f57806323b872dd146101945780633ab5e5be146101eb575b600080fd5b34801561010457600080fd5b50d3801561011157600080fd5b50d2801561011e57600080fd5b5061013960048036038101906101349190610941565b610550565b60405161014691906109c9565b60405180910390f35b34801561015b57600080fd5b50d3801561016857600080fd5b50d2801561017557600080fd5b5061017e610558565b60405161018b91906109e4565b60405180910390f35b3480156101a057600080fd5b50d380156101ad57600080fd5b50d280156101ba57600080fd5b506101d560048036038101906101d091906108ee565b61055e565b6040516101e291906109c9565b60405180910390f35b3480156101f757600080fd5b50d3801561020457600080fd5b50d2801561021157600080fd5b5061022c60048036038101906102279190610881565b610567565b60405161023991906109e4565b60405180910390f35b61024a61056e565b60405161025791906109c9565b60405180910390f35b34801561026c57600080fd5b50d3801561027957600080fd5b50d2801561028657600080fd5b5061028f610573565b005b34801561029d57600080fd5b50d380156102aa57600080fd5b50d280156102b757600080fd5b506102d260048036038101906102cd9190610881565b6106d4565b6040516102df91906109e4565b60405180910390f35b3480156102f457600080fd5b50d3801561030157600080fd5b50d2801561030e57600080fd5b506103176106db565b60405161032491906109e4565b60405180910390f35b34801561033957600080fd5b50d3801561034657600080fd5b50d2801561035357600080fd5b5061035c6106e0565b60405161036991906109e4565b60405180910390f35b61037a6106e5565b60405161038791906109c9565b60405180910390f35b34801561039c57600080fd5b50d380156103a957600080fd5b50d280156103b657600080fd5b506103bf6106ea565b6040516103cc91906109ae565b60405180910390f35b3480156103e157600080fd5b50d380156103ee57600080fd5b50d280156103fb57600080fd5b5061041660048036038101906104119190610881565b61070e565b005b34801561042457600080fd5b50d3801561043157600080fd5b50d2801561043e57600080fd5b5061045960048036038101906104549190610941565b610811565b60405161046691906109c9565b60405180910390f35b34801561047b57600080fd5b50d3801561048857600080fd5b50d2801561049557600080fd5b5061049e610819565b6040516104ab91906109c9565b60405180910390f35b3480156104c057600080fd5b50d380156104cd57600080fd5b50d280156104da57600080fd5b506104f560048036038101906104f091906108ae565b61081e565b60405161050291906109e4565b60405180910390f35b34801561051757600080fd5b50d3801561052457600080fd5b50d2801561053157600080fd5b5061053a610826565b60405161054791906109ae565b60405180910390f35b600092915050565b60025481565b60009392505050565b6000919050565b600090565b600160009054906101000a900473ffffffffffffffffffffffffffffffffffffffff1673ffffffffffffffffffffffffffffffffffffffff163373ffffffffffffffffffffffffffffffffffffffff16146105cd57600080fd5b60008054906101000a900473ffffffffffffffffffffffffffffffffffffffff1673ffffffffffffffffffffffffffffffffffffffff16600160009054906101000a900473ffffffffffffffffffffffffffffffffffffffff1673ffffffffffffffffffffffffffffffffffffffff16141561064857600080fd5b6201518060016003544261065c9190610a59565b61066691906109ff565b1061067057600080fd5b600160009054906101000a900473ffffffffffffffffffffffffffffffffffffffff166000806101000a81548173ffffffffffffffffffffffffffffffffffffffff021916908373ffffffffffffffffffffffffffffffffffffffff160217905550565b6000919050565b600090565b600090565b600090565b60008054906101000a900473ffffffffffffffffffffffffffffffffffffffff1681565b60008054906101000a900473ffffffffffffffffffffffffffffffffffffffff1673ffffffffffffffffffffffffffffffffffffffff163373ffffffffffffffffffffffffffffffffffffffff161461076657600080fd5b4260038190555060008054906101000a900473ffffffffffffffffffffffffffffffffffffffff16600160006101000a81548173ffffffffffffffffffffffffffffffffffffffff021916908373ffffffffffffffffffffffffffffffffffffffff160217905550806000806101000a81548173ffffffffffffffffffffffffffffffffffffffff021916908373ffffffffffffffffffffffffffffffffffffffff16021790555050565b600092915050565b600090565b600092915050565b600160009054906101000a900473ffffffffffffffffffffffffffffffffffffffff1681565b60008135905061085b81610b2a565b61086481610a8d565b905092915050565b60008135905061087b81610b41565b92915050565b60006020828403121561089757610896610b25565b5b60006108a58482850161084c565b91505092915050565b600080604083850312156108c5576108c4610b25565b5b60006108d38582860161084c565b92505060206108e48582860161084c565b9150509250929050565b60008060006060848603121561090757610906610b25565b5b60006109158682870161084c565b93505060206109268682870161084c565b92505060406109378682870161086c565b9150509250925092565b6000806040838503121561095857610957610b25565b5b60006109668582860161084c565b92505060206109778582860161086c565b9150509250929050565b61098a81610a8d565b82525050565b61099981610a9f565b82525050565b6109a881610aec565b82525050565b60006020820190506109c36000830184610981565b92915050565b60006020820190506109de6000830184610990565b92915050565b60006020820190506109f9600083018461099f565b92915050565b6000610a0a82610aec565b9150610a1583610aec565b9250817fffffffffffffffffffffffffffffffffffffffffffffffffffffffffffffffff0483118215151615610a4e57610a4d610af6565b5b828202905092915050565b6000610a6482610aec565b9150610a6f83610aec565b925082821015610a8257610a81610af6565b5b828203905092915050565b6000610a9882610aab565b9050919050565b60008115159050919050565b600073ffffffffffffffffffffffffffffffffffffffff82169050919050565b600074ffffffffffffffffffffffffffffffffffffffffff82169050919050565b6000819050919050565b7f4e487b7100000000000000000000000000000000000000000000000000000000600052601160045260246000fd5b600080fd5b610b3381610acb565b8114610b3e57600080fd5b50565b610b4a81610aec565b8114610b5557600080fd5b5056fea26474726f6e58221220eb4e71f3291ee75c01bba2e1f31b3c7277218aa644ba94945b7d98139394998c64736f6c63430008060033",
  "source": "// Built in Safe Math wrapper makes things a lot easier, so I'll be sticking with 0.8+\npragma solidity ^0.8.0;\n\n/* Base token contract for the forgable tokens and also the Arcadium Token */\n\n// Used to handle controlling the contract. The owner can be any address, including another smart contract\n// Eventually it would be a good idea to switch the owner to a governance contract, which interfaces with Titles\n// Alternatively the owner can just use a setGovernance feature? But it can't be changed often or we'd have a problem.\n\ncontract Owned {\n  address public owner;\n  address public oldOwner;\n  uint public tokenId = 1002567;\n  uint lastChangedOwnerAt;\n  constructor() {\n    owner = msg.sender;\n    oldOwner = owner;\n  }\n  modifier isOwner() {\n    require(msg.sender == owner);\n    _;\n  }\n  modifier isOldOwner() {\n    require(msg.sender == oldOwner);\n    _;\n  }\n  modifier sameOwner() {\n    address addr = msg.sender;\n    // Ensure that the address is a contract\n    uint size;\n    assembly { size := extcodesize(addr) }\n    require(size > 0);\n\n    // Ensure that the contract's parent is\n    Owned own = Owned(addr);\n    require(own.owner() == owner);\n     _;\n  }\n  // Be careful with this option!\n  function changeOwner(address newOwner) public isOwner {\n    lastChangedOwnerAt = block.timestamp;\n    oldOwner = owner;\n    owner = newOwner;\n  }\n  // Allow a revert to old owner ONLY IF it has been less than a day\n  function revertOwner() public isOldOwner {\n    require(oldOwner != owner);\n    require((block.timestamp - lastChangedOwnerAt) * 1 seconds < 86400);\n    owner = oldOwner;\n  }\n}\n\n contract ForgableToken is Owned {\n\n  //function totalSupply() public view virtual returns (uint256 supply) {}\n  function balanceOf(address _owner) public view virtual returns (uint256 balance) {}\n  function transfer(address _to, uint256 _value) public virtual returns (bool success) {}\n\n  function transferFrom(address _from, address _to, uint256 _value) public virtual returns (bool success) {}\n\n  function approve(address _spender, uint256 _value) public virtual returns (bool success) {}\n\n  function allowance(address _owner, address _spender) public view virtual returns (uint256 remaining) {}\n\n  function forge() external payable virtual returns (bool success) {}\n  function maxForge() public view virtual returns (uint256 amount) {}\n  //function baseConversionRate() public view virtual returns (uint256 best_price) {}\n  function timeToForge(address addr) public view virtual returns (uint256 time) {}\n  function forgePrice() public virtual returns (uint256 price) {}\n  //function smithCount() public virtual view returns (uint256 count) {}\n  //function smithFee() public view virtual returns (uint256 fee) {}\n  function canSmith() public view virtual returns (bool able) {}\n  //function totalWRLD() public view virtual returns (uint256 wrld) {}\n // function firstMint() public view virtual returns (uint256 date) {}\n  //function lastMint() public view virtual returns (uint256 date) {}\n  function paySmithingFee() external payable virtual returns (bool fee) {}\n\n  event Transfer(address indexed _from, address indexed _to, uint256 _value);\n  event Approval(address indexed _owner, address indexed _spender, uint256 _value);\n  event Forged(address indexed _to, uint _cost, uint _amt);\n  event NewSmith(address indexed _address, uint _fee);\n}\n\n// CUR Token\ncontract CURToken is ForgableToken {\n  address public nftContract;\n\n  constructor() public {\n    totalSupply = 2000000000000;\n    name = \"Project Curate Token\";\n    symbol = \"CUR\";\n    decimals = 6;\n    sendTo = msg.sender;\n    emit Forged(msg.sender, 0, totalSupply);\n    emit Transfer(address(this), msg.sender, totalSupply);\n    balances[msg.sender] = totalSupply;\n  }\n\n  // Allows the owner to set the address for the NFT contract once.\n  function setNFTContract(address addr) public isOwner returns (bool success) {\n    require(nftContract == address(0), \"Address already set.\");\n    nftContract = addr;\n    return true;\n  }\n\n  function transfer(address _to, uint256 _value) public override returns (bool success) {\n      if (balances[msg.sender] >= _value && _value > 0) {\n          balances[msg.sender] -= _value;\n          balances[_to] += _value;\n          emit Transfer(msg.sender, _to, _value);\n          return true;\n      } else { return false; }\n  }\n\n  function transferFrom(address _from, address _to, uint256 _value) public override returns (bool success) {\n      if (balances[_from] >= _value && allowed[_from][msg.sender] >= _value && _value > 0) {\n          balances[_to] += _value;\n          balances[_from] -= _value;\n          allowed[_from][msg.sender] -= _value;\n          emit Transfer(_from, _to, _value);\n          return true;\n      } else { return false; }\n  }\n\n  function balanceOf(address _owner) public view override returns (uint256 balance) {\n      return balances[_owner];\n  }\n\n  function approve(address _spender, uint256 _value) public override returns (bool success) {\n      allowed[msg.sender][_spender] = _value;\n      emit Approval(msg.sender, _spender, _value);\n      return true;\n  }\n\n  function allowance(address _owner, address _spender) public view override returns (uint256 remaining) {\n    return allowed[_owner][_spender];\n  }\n\n  mapping (address => uint256) balances;\n  mapping (address => mapping (address => uint256)) allowed;\n  uint256 public totalSupply;\n  string public name;\n  string public symbol;\n  uint8 public decimals;\n\n  /* This is where all the special operations will occur */\n  // Returns the maximum amount of WRLD that can be sent to mint new tokens\n  function maxForge() public view override returns (uint256) {\n    if (totalWRLD / 1000 < 100000000000) return 100000000000;\n    return totalWRLD / 1000;\n  }\n\n  // Returns the number of seconds until the user can mint tokens again\n  function timeToForge(address addr) public view override returns (uint256) {\n    uint256 dif = (block.timestamp - lastMinted[addr]);\n    if (dif > 3600) return 0;\n    return 3600 - dif;\n  }\n\n  // Mints new tokens based on how many tokens have already been minted\n  // Tempted to require a minting fee...\n  function forge() external payable override returns (bool success) {\n    require(nftContract != address(0), \"No NFT contract address set!\");\n    // Limit minting rate to the greater of 0.1% of the amount of WRLD frozen so far or 100,000 WRLD\n    require(msg.tokenid == tokenId, \"Wrong Token\");\n    require(msg.tokenvalue <= 100000000000 || msg.tokenvalue <= totalWRLD / 1000, \"Maximum WRLD Exceeded\");\n    require(msg.sender == owner || paid[msg.sender], \"Not a Registered Smith\");\n\n    // Only let a person mint once per hour\n    uint256 start = block.timestamp;\n    require(start - lastMinted[msg.sender] > 3600, \"Too Soon to Forge Again\");\n\n    // Calculate the amount of token to be minted. Make sure that there's no chance of overflow!\n    uint256 amt = msg.tokenvalue / _calculateCost(start);\n\n    // Freeze WRLD\n    payable(sendTo).transferToken(msg.tokenvalue, tokenId);\n\n    // Mint tokens\n    totalSupply = totalSupply + ((amt * 11)/10);\n    emit Forged(msg.sender, msg.tokenvalue, amt);\n\n    // Send them to the minter\n    balances[msg.sender] += amt;\n    balances[nftContract] = balances[nftContract] + (amt/10);\n    emit Transfer(address(this), msg.sender, amt);\n    emit Transfer(address(this), nftContract, (amt / 10));\n    lastMinted[msg.sender] = start;\n    if (firstMint == 0) firstMint = start;\n    lastMint = start;\n    totalWRLD += msg.tokenvalue;\n    return true;\n  }\n\n  // Base Minting\n  // While the forge system is open to everyone, and can be used to increase the supply at a cost of WRLD, a supply of tokens will be needed to distribute to our responders.\n  // This function will allow a cetain number of tokens to be minted to fund this effort.\n  uint256 public lastOwnerMint;\n  uint8 public remaining = 24; // Used to decrease the owner mint rate over time, allowing for an initially high rate to fund initial efforts.\n\n  function ownerMint() public isOwner returns (bool success) {\n    uint256 start = block.timestamp;\n    if (start - lastOwnerMint > 2592000) {\n      lastOwnerMint = start;\n      uint256 amt = (totalSupply * remaining) / 2400;\n      totalSupply += amt;\n      emit Forged(owner, 0, amt);\n      if (remaining > 1) remaining -= 1;\n      balances[owner] += amt;\n      emit Transfer(address(this), owner, amt);\n      return true;\n    }\n    return false;\n  }\n\n  // Get the current conversion rate\n  function _calculateCost(uint256 _now) internal returns (uint256) {\n    if (firstMint == 0) return baseConversionRate;\n    uint256 time1 = (_now - firstMint);\n    uint256 time2 = (_now - lastMint);\n    uint256 conv = (time1 * 100) / (time2 * time2 * time2 + 1);\n    if (conv < 100) conv = 100; // Don't let people forge for free!\n    if (conv > 10000) conv = 10000;\n    return (baseConversionRate * conv) / 100;\n  }\n  // Price to mint one ARC token\n  function forgePrice() public override returns (uint256) {\n    return _calculateCost(block.timestamp);\n  }\n  // Allow's the change of the address to which frozen tokens go. Can only be done if sendTo is the default or within the first week after it's changed\n  function changeSendTo(address newAddr) public isOwner {\n    require(sendTo == owner || (block.timestamp - setAt) < 604800); // Add || sendTo == TMPxbVA2Lb6tMBQfffMPSoNtSJLKnhFhwE in case I want to upgrade the faucet at some point\n    setAt = block.timestamp;\n    sendTo = newAddr;\n  }\n  function canSmith(address addr) public view returns (bool) {\n    return addr == owner || paid[msg.sender];\n  }\n  function canSmith() public view override returns (bool) {\n    return canSmith(msg.sender);\n  }\n  function paySmithingFee() external payable override returns (bool success) {\n    if (paid[msg.sender] || msg.value != smithFee || msg.sender == owner) return false;\n    payable(owner).transfer(msg.value);\n    // Every ten smiths increases the smith fee by 100 TRX\n    if (smithFee < 1000000000 && (smithCount + 1) % 10 == 0) smithFee += 100000000;\n    smithCount++;\n    paid[msg.sender] = true;\n    emit NewSmith(msg.sender, msg.value);\n    return true;\n  }\n\n  mapping (address => uint256) public lastMinted;\n  mapping (address => bool) public paid;\n\n  uint256 public smithCount;\n  uint256 public smithFee = 10000000;\n  uint256 public baseConversionRate = 1; // 1 WRLD = 1 CUR\n  uint256 public totalWRLD; // Total amount of world used to mint\n  uint256 public firstMint; // Date of the first minting\n  uint256 public lastMint; // Date of most recent minting\n  address public sendTo;\n  uint256 setAt;\n}\n",
  "sourcePath": "/home/swatim/TRON/metacoin-box/contracts/cur.sol",
  "compiler": {
    "name": "solc",
    "version": "0.8.6+commit.0e36fba0.mod.Emscripten.clang"
  },
  "schemaVersion": "2.0.1",
  "updatedAt": "2021-11-22T07:35:41.477Z"
}