{
  "contractName": "Owned",
  "abi": [
    {
      "inputs": [],
      "stateMutability": "nonpayable",
      "type": "constructor"
    },
    {
      "inputs": [
        {
          "internalType": "address",
          "name": "newOwner",
          "type": "address"
        }
      ],
      "name": "changeOwner",
      "outputs": [],
      "stateMutability": "nonpayable",
      "type": "function"
    },
    {
      "inputs": [],
      "name": "oldOwner",
      "outputs": [
        {
          "internalType": "address",
          "name": "",
          "type": "address"
        }
      ],
      "stateMutability": "view",
      "type": "function"
    },
    {
      "inputs": [],
      "name": "owner",
      "outputs": [
        {
          "internalType": "address",
          "name": "",
          "type": "address"
        }
      ],
      "stateMutability": "view",
      "type": "function"
    },
    {
      "inputs": [],
      "name": "revertOwner",
      "outputs": [],
      "stateMutability": "nonpayable",
      "type": "function"
    },
    {
      "inputs": [],
      "name": "tokenId",
      "outputs": [
        {
          "internalType": "uint256",
          "name": "",
          "type": "uint256"
        }
      ],
      "stateMutability": "view",
      "type": "function"
    }
  ],
  "bytecode": "0x6080604052620f4c4760025534801561001757600080fd5b50d3801561002457600080fd5b50d2801561003157600080fd5b50336000806101000a81548173ffffffffffffffffffffffffffffffffffffffff021916908373ffffffffffffffffffffffffffffffffffffffff16021790555060008054906101000a900473ffffffffffffffffffffffffffffffffffffffff16600160006101000a81548173ffffffffffffffffffffffffffffffffffffffff021916908373ffffffffffffffffffffffffffffffffffffffff1602179055506104cb806100e26000396000f3fe608060405234801561001057600080fd5b50d3801561001d57600080fd5b50d2801561002a57600080fd5b50600436106100715760003560e01c806317d70f7c1461007657806370328fd9146100945780638da5cb5b1461009e578063a6f9dae1146100bc578063f487404f146100d8575b600080fd5b61007e6100f6565b60405161008b9190610401565b60405180910390f35b61009c6100fc565b005b6100a6610235565b6040516100b391906103e6565b60405180910390f35b6100d660048036038101906100d1919061039b565b610259565b005b6100e0610355565b6040516100ed91906103e6565b60405180910390f35b60025481565b600160009054906101000a900473ffffffffffffffffffffffffffffffffffffffff1673ffffffffffffffffffffffffffffffffffffffff163373ffffffffffffffffffffffffffffffffffffffff161461015657600080fd5b60008054906101000a900473ffffffffffffffffffffffffffffffffffffffff1673ffffffffffffffffffffffffffffffffffffffff16600160009054906101000a900473ffffffffffffffffffffffffffffffffffffffff1673ffffffffffffffffffffffffffffffffffffffff1614156101d157600080fd5b600160009054906101000a900473ffffffffffffffffffffffffffffffffffffffff166000806101000a81548173ffffffffffffffffffffffffffffffffffffffff021916908373ffffffffffffffffffffffffffffffffffffffff160217905550565b60008054906101000a900473ffffffffffffffffffffffffffffffffffffffff1681565b60008054906101000a900473ffffffffffffffffffffffffffffffffffffffff1673ffffffffffffffffffffffffffffffffffffffff163373ffffffffffffffffffffffffffffffffffffffff16146102b157600080fd5b60008054906101000a900473ffffffffffffffffffffffffffffffffffffffff16600160006101000a81548173ffffffffffffffffffffffffffffffffffffffff021916908373ffffffffffffffffffffffffffffffffffffffff160217905550806000806101000a81548173ffffffffffffffffffffffffffffffffffffffff021916908373ffffffffffffffffffffffffffffffffffffffff16021790555050565b600160009054906101000a900473ffffffffffffffffffffffffffffffffffffffff1681565b60008135905061038a8161047e565b6103938161041c565b905092915050565b6000602082840312156103b1576103b0610479565b5b60006103bf8482850161037b565b91505092915050565b6103d18161041c565b82525050565b6103e08161046f565b82525050565b60006020820190506103fb60008301846103c8565b92915050565b600060208201905061041660008301846103d7565b92915050565b60006104278261042e565b9050919050565b600073ffffffffffffffffffffffffffffffffffffffff82169050919050565b600074ffffffffffffffffffffffffffffffffffffffffff82169050919050565b6000819050919050565b600080fd5b6104878161044e565b811461049257600080fd5b5056fea26474726f6e58221220c54e0cce659d770516a567db58390b757401ccf53bbe4bd5a84eb31e3b05d66464736f6c63430008060033",
  "source": "// SPDX-License-Identifier: GPL-3.0\n\npragma solidity ^0.8.0;\n\nimport \"@openzeppelin/contracts/token/ERC721/extensions/ERC721URIStorage.sol\";\nimport \"@openzeppelin/contracts/utils/Counters.sol\";\nimport \"@openzeppelin/contracts/utils/math/SafeMath.sol\";\nimport \"@openzeppelin/contracts/interfaces/IERC20.sol\";\n\nimport \"@openzeppelin/contracts/utils/Strings.sol\";\nimport \"@openzeppelin/contracts/utils/Address.sol\";\n\ncontract Owned {\n  address public owner;\n  address public oldOwner;\n  uint256 public tokenId = 1002567;\n  uint256 lastChangedOwnerAt;\n  constructor() {\n    owner = msg.sender;\n    oldOwner = owner;\n  }\n  modifier isOwner() {\n    require(msg.sender == owner);\n    _;\n  }\n  modifier isOldOwner() {\n    require(msg.sender == oldOwner);\n    _;\n  }\n  modifier sameOwner() {\n    address addr = msg.sender;\n    // Ensure that the address is a contract\n    uint256 size;\n    assembly { size := extcodesize(addr) }\n    require(size > 0);\n\n    // Ensure that the contract's parent is\n    Owned own = Owned(addr);\n    require(own.owner() == owner);\n     _;\n  }\n  // Be careful with this option!\n  function changeOwner(address newOwner) public isOwner {\n   // lastChangedOwnerAt = block.timestamp;\n    oldOwner = owner;\n    owner = newOwner;\n  }\n  // Allow a revert to old owner ONLY IF it has been less than a day\n  function revertOwner() public isOldOwner {\n    require(oldOwner != owner);\n   // require((block.timestamp - lastChangedOwnerAt) * 1 seconds < 86400);\n    owner = oldOwner;\n  }\n}\n\n\n// Considering changing to ERC1155 standard with an ERC-20 fungible token associated with each NFT to create a fractional NFT system.\n// Then we could have the burn/redeem feature generate an \"available balance\" and use ERC-20 tokens to redeem. Easy for burn, but if I include the redeem feature\n// then it becomes much harder to figure out how much each ERC-20 token should yield.\n// I would also need to figure out how many tokens are given for each NFT, who has control over it, etc. Most likely it'll have an \"ownerMint\" feature.\n\n// Another idea along these lines is that tokens are generated when CUR is added. I don't like this approach quite as much, but maybe it's an option.\n// I suppose it could always be set up to give the NFT creator the option of creating one or the other.\n// One thing is if I do it this way, the owner should not be able to mint more tokens right before they burn, otherwise they could do a rug pull.\ncontract CURNFT is ERC721URIStorage, Owned {\n    using Counters for Counters.Counter;\n    Counters.Counter private _tokenIds;\n    IERC20 curContract;\n\n    uint256 minimum_mint = 0; // Not fully implemented but will be used to adjust the minimum amount needed to mint an NFT\n\n    uint256 private totalBacking; // Total amount put into backing NFTs\n\n    mapping (address => bool) private superAllowed; // If true for address then that address can back the NFT without causing an increased lockout\n\n    // Should this be wrapped in a struct?\n    mapping (uint256 => uint256) private backing;\n    mapping (uint256 => uint256) private createdAt;\n    mapping (uint256 => uint256) private lockedUntil;\n    mapping (uint256 => address) nft_issuer; // The address of the person who called the mint function\n    mapping (uint256 => mapping (address => bool)) private backingAllowed;\n    // Might want to add MIME type into the NFT info\n\n    event NFTBacker(address indexed _backer, uint256 indexed _tokenId, uint256 _amt);\n    event Liquidate(address indexed _burner, uint256 indexed _tokenId, uint256 _amt);\n    event Burn(address indexed _burner, uint256 indexed _tokenId, uint256 _amt);\n\n    constructor(IERC20 addr) ERC721(\"CURNFT\", \"CUR\") public {\n      curContract = addr;\n    }\n\n    function getCreatedAt(uint256 tokenId) public view returns (uint256) {\n      return createdAt[tokenId];\n    }\n\n    function getLockedUntil(uint256 tokenId) public view returns (uint256) {\n      return lockedUntil[tokenId];\n    }\n\n    function getLockoutPeriod(uint256 tokenId) public view returns (uint256) {\n      return lockedUntil[tokenId] - createdAt[tokenId];\n    }\n\n    function timeUntilUnlocked(uint256 tokenId) public view returns (uint256) {\n      if (block.timestamp >= lockedUntil[tokenId]) return 0;\n      return lockedUntil[tokenId] - block.timestamp;\n    }\n\n    function getBacking(uint256 tokenId) public view returns (uint256) {\n      return backing[tokenId];\n    }\n\n    function isBackingAllowed(uint256 tokenId, address addr) public view returns (bool) {\n      return backingAllowed[tokenId][addr];\n    }\n\n    function allowBacker(uint256 tokenId, address addr) public returns (bool) {\n      require(ownerOf(tokenId) == msg.sender, \"Only the NFT owner can alter backers.\");\n      backingAllowed[tokenId][addr] = true;\n      return true;\n    }\n\n    function disallowBacker(uint256 tokenId, address addr) public returns (bool) {\n      require(ownerOf(tokenId) == msg.sender, \"Only the NFT owner can alter backers.\");\n      backingAllowed[tokenId][addr] = false;\n      return true;\n    }\n\n    function createNFT(uint256 cur, uint256 lockout_time, string memory tokenURI) public returns (uint256) {\n        require(curContract != IERC20(address(0)), \"Token address has not yet been set!\");\n        require(cur >= minimum_mint || msg.sender == owner, \"Some CUR must be used to back NFT.\");\n        require(lockout_time > 30 days , \"Minimum lockout is 30 days.\");\n\n        uint256 balance = curContract.balanceOf(msg.sender);\n        require(balance >= cur, \"Insufficient CUR to back NFT.\");\n\n        uint256 allowance = curContract.allowance(msg.sender, address(this));\n        require(allowance >= cur, \"Not enough tokens approved prior to minting\");\n    \t\tcurContract.transferFrom(msg.sender, address(this), cur);\n\n        _tokenIds.increment();\n\n        uint256 newItemId = _tokenIds.current();\n        _mint(msg.sender, newItemId);\n        _setTokenURI(newItemId, tokenURI);\n\n        backing[newItemId] = cur;\n\n        uint256 created_at = block.timestamp;\n\n        createdAt[newItemId] = created_at;\n        lockedUntil[newItemId] = created_at + lockout_time;\n        nft_issuer[newItemId] = msg.sender;\n\n        return newItemId;\n    }\n\n    /**\n     * @dev Adds more CUR to back the NFT\n     * @param tokenId uint256 id of the ERC721 token to be backed.\n     * @param amt uint256 amt of CUR to give.\n     *\n     * This backing system is nice and simple. However, it could be really nice to have a rolling system where each individual backing slowly reaches maturity.\n     * It would require a heavy rewrite as instead of a single backing, I would probably need a linked list of <backing_amount, date_backed>\n     */\n    function backNFT(uint256 tokenId, uint256 amt) public returns (uint256) {\n      require(ownerOf(tokenId) != address(0), \"This token either does not yet exist or has been burned.\");\n      require(ownerOf(tokenId) == msg.sender || backingAllowed[tokenId][msg.sender] || superAllowed[msg.sender], \"Only the current NFT owner or authorized addresses can increase backing.\");\n      require(amt > 0, \"Why are you backing with zero?!\");\n\n      uint256 old_backing = backing[tokenId];\n      uint256 new_backing = old_backing + amt;\n\n      uint256 balance = curContract.balanceOf(msg.sender);\n      require(balance >= amt, \"Insufficient CUR to back NFT.\");\n\n      uint256 allowance = curContract.allowance(msg.sender, address(this));\n      require(allowance >= amt, \"Not enough tokens approved prior to minting\");\n      curContract.transferFrom(msg.sender, address(this), amt);\n\n      // Update lockout time\n      uint256 lo_len = lockedUntil[tokenId] - createdAt[tokenId];\n      uint256 add_time = lo_len * (new_backing/old_backing - 1);\n      if (add_time > 1000 days) add_time = 1000 days; // Prevent any amount from adding more than 1,000 additional days to lockout period.\n      lockedUntil[tokenId] = createdAt[tokenId] + lo_len + add_time;\n\n      backing[tokenId] = new_backing;\n      totalBacking += amt;\n\n      emit NFTBacker(msg.sender, tokenId, amt);\n    }\n\n    // Similar to backNFT, but doesn't increase lockout time. Limited access for obvious reasons. Used by Project Curate to give out bonuses, awards, etc.\n    function systemBackNFT(uint256 tokenId, uint256 amt) public {\n     // require(isSuperAllowed[msg.sender], \"Not authorized, please use backNFT operation instead.\");\n\n      uint256 balance = curContract.balanceOf(msg.sender);\n      require(balance >= amt, \"Insufficient CUR to back NFT.\");\n\n      uint256 allowance = curContract.allowance(msg.sender, address(this));\n      require(allowance >= amt, \"Not enough tokens approved prior to minting\");\n      curContract.transferFrom(msg.sender, address(this), amt);\n\n      backing[tokenId] = backing[tokenId] + amt;\n      totalBacking += amt;\n    }\n\n    function allowSuper(address addr) public isOwner {\n      superAllowed[addr] = true;\n    }\n\n    function disallowSuper(address addr) public isOwner {\n      superAllowed[addr] = false;\n    }\n\n    // Returns the amount of CUR that the user would receive if they burned the NFT.\n    // When single backing is rewritten to allow for a linked list of multiple backings, burnValue will traverse the list to calculate the total burn value\n    // function burnValue(uint256 tokenId) public view returns (uint256 amt) {\n    //   uint256 backed = backing[tokenId];\n    //   uint256 total = totalBacking;\n    //   backing[tokenId] = 0;\n\n    //   address t_owner = ownerOf(tokenId);\n\n    //   // Need to replace this section with a _willReceive function which will calculate how much a user will receive on burn.\n    //   uint256 bal = curContract.balanceOf(address(this));\n    //   uint256 lo_len = lockedUntil[tokenId] - createdAt[tokenId];\n\n    //   // Calculate multiplier based on how much time the NFT was locked\n    //   uint256 t_mult = lo_len / 500 days;\n    //   if (t_mult < (2 / 10)) t_mult = (2 / 10);\n    //   if (t_mult > 5) t_mult = 5;\n    //   uint256 mult = bal / total;\n\n    //   uint256 will_receive = backed * mult * t_mult;\n    //   if (will_receive < backed) will_receive = backed; // No matter the multiplier, make sure the person gets at least what is staked.\n    //   return will_receive;\n    // }\n\n    /**\n     * @dev Burns a specific ERC721 token.\n     * @param tokenId uint256 id of the ERC721 token to be burned.\n    //  */\n    // function burn(uint256 tokenId) public {\n    //     require(_isApprovedOrOwner(msg.sender, tokenId));\n    //     require(lockedUntil[tokenId] <= block.timestamp, \"Lockout period has not ended.\");\n\n    //     uint256 backed = backing[tokenId];\n    //     uint256 total = totalBacking;\n    //     backing[tokenId] = 0;\n\n    //     address t_owner = ownerOf(tokenId);\n    //     _burn(tokenId);\n\n    //     // Need to replace this section with a _willReceive function which will calculate how much a user will receive on burn.\n    //     uint256 bal = curContract.balanceOf(address(this));\n    //     uint256 lo_len = lockedUntil[tokenId] - createdAt[tokenId];\n\n    //     // Calculate multiplier based on how much time the NFT was locked\n    //     uint256 t_mult = lo_len / 500 days;\n    //     if (t_mult < (2 / 10)) t_mult = (2 /10);\n    //     if (t_mult > 5) t_mult = 5;\n    //     uint256 mult = bal / total;\n\n    //     uint256 will_receive = backed * mult * t_mult;\n    //     if (will_receive < backed) will_receive = backed; // No matter the multiplier, make sure the person gets at least what is staked.\n\n    //     // It shouldn't ever happen but if the contract doesn't have enough CUR, the system will revert.\n    //     require(bal >= will_receive, \"Insufficient CUR in the contract!\");\n\n    //     totalBacking -= backed;\n\n    //     curContract.transfer(t_owner, will_receive);\n    //     emit Burn(msg.sender, tokenId, will_receive);\n    // }\n\n    /* @dev Liquidates an NFT\n    * Like burn, but allows the original NFT to be preserved. Because the NFT is being preserved, there's a 20% penalty.\n    * @param tokenId uint256 id of the ERC721 token to be burned.\n    */\n    function redeem(uint256 tokenId) public {\n\n    }\n\n}\n",
  "sourcePath": "/home/swatim/TRON/metacoin-box/contracts/nft.sol",
  "compiler": {
    "name": "solc",
    "version": "0.8.6+commit.0e36fba0.mod.Emscripten.clang"
  },
  "schemaVersion": "2.0.1",
  "updatedAt": "2021-11-22T13:24:52.540Z"
}