{
  "contractName": "PaymentSplitter",
  "abi": [
    {
      "inputs": [
        {
          "internalType": "address[]",
          "name": "payees",
          "type": "address[]"
        },
        {
          "internalType": "uint256[]",
          "name": "shares_",
          "type": "uint256[]"
        }
      ],
      "stateMutability": "payable",
      "type": "constructor"
    },
    {
      "anonymous": false,
      "inputs": [
        {
          "indexed": false,
          "internalType": "address",
          "name": "account",
          "type": "address"
        },
        {
          "indexed": false,
          "internalType": "uint256",
          "name": "shares",
          "type": "uint256"
        }
      ],
      "name": "PayeeAdded",
      "type": "event"
    },
    {
      "anonymous": false,
      "inputs": [
        {
          "indexed": false,
          "internalType": "address",
          "name": "from",
          "type": "address"
        },
        {
          "indexed": false,
          "internalType": "uint256",
          "name": "amount",
          "type": "uint256"
        }
      ],
      "name": "PaymentReceived",
      "type": "event"
    },
    {
      "anonymous": false,
      "inputs": [
        {
          "indexed": false,
          "internalType": "address",
          "name": "to",
          "type": "address"
        },
        {
          "indexed": false,
          "internalType": "uint256",
          "name": "amount",
          "type": "uint256"
        }
      ],
      "name": "PaymentReleased",
      "type": "event"
    },
    {
      "inputs": [
        {
          "internalType": "uint256",
          "name": "index",
          "type": "uint256"
        }
      ],
      "name": "payee",
      "outputs": [
        {
          "internalType": "address",
          "name": "",
          "type": "address"
        }
      ],
      "stateMutability": "view",
      "type": "function"
    },
    {
      "inputs": [
        {
          "internalType": "address payable",
          "name": "account",
          "type": "address"
        }
      ],
      "name": "release",
      "outputs": [],
      "stateMutability": "nonpayable",
      "type": "function"
    },
    {
      "inputs": [
        {
          "internalType": "address",
          "name": "account",
          "type": "address"
        }
      ],
      "name": "released",
      "outputs": [
        {
          "internalType": "uint256",
          "name": "",
          "type": "uint256"
        }
      ],
      "stateMutability": "view",
      "type": "function"
    },
    {
      "inputs": [
        {
          "internalType": "address",
          "name": "account",
          "type": "address"
        }
      ],
      "name": "shares",
      "outputs": [
        {
          "internalType": "uint256",
          "name": "",
          "type": "uint256"
        }
      ],
      "stateMutability": "view",
      "type": "function"
    },
    {
      "inputs": [],
      "name": "totalReleased",
      "outputs": [
        {
          "internalType": "uint256",
          "name": "",
          "type": "uint256"
        }
      ],
      "stateMutability": "view",
      "type": "function"
    },
    {
      "inputs": [],
      "name": "totalShares",
      "outputs": [
        {
          "internalType": "uint256",
          "name": "",
          "type": "uint256"
        }
      ],
      "stateMutability": "view",
      "type": "function"
    },
    {
      "stateMutability": "payable",
      "type": "receive"
    }
  ],
  "bytecode": "0x608060405260405162000cb838038062000cb88339810160408190526200002691620002a8565b8051825114620000535760405162461bcd60e51b81526004016200004a90620003f0565b60405180910390fd5b6000825111620000775760405162461bcd60e51b81526004016200004a906200048d565b60005b8251811015620000fb57620000e6838281518110620000a957634e487b7160e01b600052603260045260246000fd5b6020026020010151838381518110620000d257634e487b7160e01b600052603260045260246000fd5b60200260200101516200010460201b60201c565b80620000f28162000568565b9150506200007a565b505050620005b2565b6001600160a01b0382166200012d5760405162461bcd60e51b81526004016200004a90620003a4565b60008111620001505760405162461bcd60e51b81526004016200004a90620004c4565b6001600160a01b03821660009081526002602052604090205415620001895760405162461bcd60e51b81526004016200004a9062000442565b60048054600181019091557f8a35acfbc15ff81a39ae7d344fd709f28e8600b4aa8c65c6b64bfe7fe36bd19b0180546001600160a01b0319166001600160a01b038416908117909155600090815260026020526040812082905554620001f19082906200054d565b6000556040517f40c340f65e17194d14ddddb073d3c9f888e3cb52b5aae0c6c7706b4fbc905fac906200022890849084906200038b565b60405180910390a15050565b600082601f83011262000245578081fd5b815160206200025e620002588362000527565b620004fb565b82815281810190858301838502870184018810156200027b578586fd5b855b858110156200029b578151845292840192908401906001016200027d565b5090979650505050505050565b60008060408385031215620002bb578182fd5b82516001600160401b0380821115620002d2578384fd5b818501915085601f830112620002e6578384fd5b81516020620002f9620002588362000527565b82815281810190858301838502870184018b101562000316578889fd5b8896505b84871015620003585780516001600160a81b03811681146200033a57898afd5b6001600160a01b03168352600196909601959183019183016200031a565b509188015191965090935050508082111562000372578283fd5b50620003818582860162000234565b9150509250929050565b6001600160a01b03929092168252602082015260400190565b6020808252602c908201527f5061796d656e7453706c69747465723a206163636f756e74206973207468652060408201526b7a65726f206164647265737360a01b606082015260800190565b60208082526032908201527f5061796d656e7453706c69747465723a2070617965657320616e6420736861726040820152710cae640d8cadccee8d040dad2e6dac2e8c6d60731b606082015260800190565b6020808252602b908201527f5061796d656e7453706c69747465723a206163636f756e7420616c726561647960408201526a206861732073686172657360a81b606082015260800190565b6020808252601a908201527f5061796d656e7453706c69747465723a206e6f20706179656573000000000000604082015260600190565b6020808252601d908201527f5061796d656e7453706c69747465723a20736861726573206172652030000000604082015260600190565b6040518181016001600160401b03811182821017156200051f576200051f6200059c565b604052919050565b60006001600160401b038211156200054357620005436200059c565b5060209081020190565b6000821982111562000563576200056362000586565b500190565b60006000198214156200057f576200057f62000586565b5060010190565b634e487b7160e01b600052601160045260246000fd5b634e487b7160e01b600052604160045260246000fd5b6106f680620005c26000396000f3fe6080604052600436106100595760003560e01c806319165587146100a55780633a98ef39146100e15780638b83209b146101265780639852595c1461016d578063ce7c2ac2146101a7578063e33b7de3146101e1576100a0565b366100a0577f6ef95f06320e7a25a04a175ca677b7052bdd97131872c2192525a629f51be770610087610210565b346040516100969291906104dd565b60405180910390a1005b600080fd5b3480156100b157600080fd5b50d380156100be57600080fd5b50d280156100cb57600080fd5b506100df6100da366004610482565b610214565b005b3480156100ed57600080fd5b50d380156100fa57600080fd5b50d2801561010757600080fd5b50610110610361565b60405161011d919061061b565b60405180910390f35b34801561013257600080fd5b50d3801561013f57600080fd5b50d2801561014c57600080fd5b5061016061015b3660046104ae565b610367565b60405161011d91906104c9565b34801561017957600080fd5b50d3801561018657600080fd5b50d2801561019357600080fd5b506101106101a2366004610482565b6103a5565b3480156101b357600080fd5b50d380156101c057600080fd5b50d280156101cd57600080fd5b506101106101dc366004610482565b6103c0565b3480156101ed57600080fd5b50d380156101fa57600080fd5b50d2801561020757600080fd5b506101106103db565b3390565b6001600160a01b0381166000908152600260205260409020546102525760405162461bcd60e51b8152600401610249906104f6565b60405180910390fd5b6000600154476102629190610624565b6001600160a01b03831660009081526003602090815260408083205483546002909352908320549394509192610298908561065c565b6102a2919061063c565b6102ac919061067b565b9050806102cb5760405162461bcd60e51b8152600401610249906105d0565b6001600160a01b0383166000908152600360205260409020546102ef908290610624565b6001600160a01b038416600090815260036020526040902055600154610316908290610624565b60015561032383826103e1565b7fdf20fd1e76bc69d672e4814fafb2c449bba3a5369d8359adf9e05e6fde87b05683826040516103549291906104dd565b60405180910390a1505050565b60005490565b60006004828154811061038a57634e487b7160e01b600052603260045260246000fd5b6000918252602090912001546001600160a01b031692915050565b6001600160a01b031660009081526003602052604090205490565b6001600160a01b031660009081526002602052604090205490565b60015490565b804710156104015760405162461bcd60e51b815260040161024990610599565b6000826001600160a01b03168260405161041a906104c6565b60006040518083038185875af1925050503d8060008114610457576040519150601f19603f3d011682016040523d82523d6000602084013e61045c565b606091505b505090508061047d5760405162461bcd60e51b81526004016102499061053c565b505050565b600060208284031215610493578081fd5b813561049e816106a8565b6001600160a01b03169392505050565b6000602082840312156104bf578081fd5b5035919050565b90565b6001600160a01b0391909116815260200190565b6001600160a01b03929092168252602082015260400190565b60208082526026908201527f5061796d656e7453706c69747465723a206163636f756e7420686173206e6f2060408201526573686172657360d01b606082015260800190565b6020808252603a908201527f416464726573733a20756e61626c6520746f2073656e642076616c75652c207260408201527f6563697069656e74206d61792068617665207265766572746564000000000000606082015260800190565b6020808252601d908201527f416464726573733a20696e73756666696369656e742062616c616e6365000000604082015260600190565b6020808252602b908201527f5061796d656e7453706c69747465723a206163636f756e74206973206e6f742060408201526a191d59481c185e5b595b9d60aa1b606082015260800190565b90815260200190565b6000821982111561063757610637610692565b500190565b60008261065757634e487b7160e01b81526012600452602481fd5b500490565b600081600019048311821515161561067657610676610692565b500290565b60008282101561068d5761068d610692565b500390565b634e487b7160e01b600052601160045260246000fd5b6001600160a81b03811681146106bd57600080fd5b5056fea2646970667358221220bf81e17edec8f999e30ae7ecc79fadb214e451e88958c565634d8f885306590a64736f6c63430008000033",
  "source": "// SPDX-License-Identifier: MIT\n\npragma solidity ^0.8.0;\n\nimport \"../utils/Address.sol\";\nimport \"../utils/Context.sol\";\nimport \"../utils/math/SafeMath.sol\";\n\n/**\n * @title PaymentSplitter\n * @dev This contract allows to split Ether payments among a group of accounts. The sender does not need to be aware\n * that the Ether will be split in this way, since it is handled transparently by the contract.\n *\n * The split can be in equal parts or in any other arbitrary proportion. The way this is specified is by assigning each\n * account to a number of shares. Of all the Ether that this contract receives, each account will then be able to claim\n * an amount proportional to the pTRCentage of total shares they were assigned.\n *\n * `PaymentSplitter` follows a _pull payment_ model. This means that payments are not automatically forwarded to the\n * accounts but kept in this contract, and the actual transfer is triggered as a separate step by calling the {release}\n * function.\n */\ncontract PaymentSplitter is Context {\n    event PayeeAdded(address account, uint256 shares);\n    event PaymentReleased(address to, uint256 amount);\n    event PaymentReceived(address from, uint256 amount);\n\n    uint256 private _totalShares;\n    uint256 private _totalReleased;\n\n    mapping(address => uint256) private _shares;\n    mapping(address => uint256) private _released;\n    address[] private _payees;\n\n    /**\n     * @dev Creates an instance of `PaymentSplitter` where each account in `payees` is assigned the number of shares at\n     * the matching position in the `shares` array.\n     *\n     * All addresses in `payees` must be non-zero. Both arrays must have the same non-zero length, and there must be no\n     * duplicates in `payees`.\n     */\n    constructor(address[] memory payees, uint256[] memory shares_) payable {\n        require(payees.length == shares_.length, \"PaymentSplitter: payees and shares length mismatch\");\n        require(payees.length > 0, \"PaymentSplitter: no payees\");\n\n        for (uint256 i = 0; i < payees.length; i++) {\n            _addPayee(payees[i], shares_[i]);\n        }\n    }\n\n    /**\n     * @dev The Ether received will be logged with {PaymentReceived} events. Note that these events are not fully\n     * reliable: it's possible for a contract to receive Ether without triggering this function. This only affects the\n     * reliability of the events, and not the actual splitting of Ether.\n     *\n     * To learn more about this see the Solidity documentation for\n     * https://solidity.readthedocs.io/en/latest/contracts.html#fallback-function[fallback\n     * functions].\n     */\n    receive() external payable virtual {\n        emit PaymentReceived(_msgSender(), msg.value);\n    }\n\n    /**\n     * @dev Getter for the total shares held by payees.\n     */\n    function totalShares() public view returns (uint256) {\n        return _totalShares;\n    }\n\n    /**\n     * @dev Getter for the total amount of Ether already released.\n     */\n    function totalReleased() public view returns (uint256) {\n        return _totalReleased;\n    }\n\n    /**\n     * @dev Getter for the amount of shares held by an account.\n     */\n    function shares(address account) public view returns (uint256) {\n        return _shares[account];\n    }\n\n    /**\n     * @dev Getter for the amount of Ether already released to a payee.\n     */\n    function released(address account) public view returns (uint256) {\n        return _released[account];\n    }\n\n    /**\n     * @dev Getter for the address of the payee number `index`.\n     */\n    function payee(uint256 index) public view returns (address) {\n        return _payees[index];\n    }\n\n    /**\n     * @dev Triggers a transfer to `account` of the amount of Ether they are owed, according to their pTRCentage of the\n     * total shares and their previous withdrawals.\n     */\n    function release(address payable account) public virtual {\n        require(_shares[account] > 0, \"PaymentSplitter: account has no shares\");\n\n        uint256 totalReceived = address(this).balance + _totalReleased;\n        uint256 payment = (totalReceived * _shares[account]) / _totalShares - _released[account];\n\n        require(payment != 0, \"PaymentSplitter: account is not due payment\");\n\n        _released[account] = _released[account] + payment;\n        _totalReleased = _totalReleased + payment;\n\n        Address.sendValue(account, payment);\n        emit PaymentReleased(account, payment);\n    }\n\n    /**\n     * @dev Add a new payee to the contract.\n     * @param account The address of the payee to add.\n     * @param shares_ The number of shares owned by the payee.\n     */\n    function _addPayee(address account, uint256 shares_) private {\n        require(account != address(0), \"PaymentSplitter: account is the zero address\");\n        require(shares_ > 0, \"PaymentSplitter: shares are 0\");\n        require(_shares[account] == 0, \"PaymentSplitter: account already has shares\");\n\n        _payees.push(account);\n        _shares[account] = shares_;\n        _totalShares = _totalShares + shares_;\n        emit PayeeAdded(account, shares_);\n    }\n}\n",
  "sourcePath": "/home/swatim/TRON/CUR-NFTs/contracts/@openzeppelin/contracts/finance/PaymentSplitter.sol",
  "compiler": {
    "name": "solc",
    "version": "0.8.0+commit.7c2e6412.Emscripten.clang"
  },
  "schemaVersion": "2.0.1",
  "updatedAt": "2021-12-16T04:49:26.421Z"
}