{
  "contractName": "RefundEscrow",
  "abi": [
    {
      "inputs": [
        {
          "internalType": "address payable",
          "name": "beneficiary_",
          "type": "address"
        }
      ],
      "stateMutability": "nonpayable",
      "type": "constructor"
    },
    {
      "anonymous": false,
      "inputs": [
        {
          "indexed": true,
          "internalType": "address",
          "name": "payee",
          "type": "address"
        },
        {
          "indexed": false,
          "internalType": "uint256",
          "name": "weiAmount",
          "type": "uint256"
        }
      ],
      "name": "Deposited",
      "type": "event"
    },
    {
      "anonymous": false,
      "inputs": [
        {
          "indexed": true,
          "internalType": "address",
          "name": "previousOwner",
          "type": "address"
        },
        {
          "indexed": true,
          "internalType": "address",
          "name": "newOwner",
          "type": "address"
        }
      ],
      "name": "OwnershipTransferred",
      "type": "event"
    },
    {
      "anonymous": false,
      "inputs": [],
      "name": "RefundsClosed",
      "type": "event"
    },
    {
      "anonymous": false,
      "inputs": [],
      "name": "RefundsEnabled",
      "type": "event"
    },
    {
      "anonymous": false,
      "inputs": [
        {
          "indexed": true,
          "internalType": "address",
          "name": "payee",
          "type": "address"
        },
        {
          "indexed": false,
          "internalType": "uint256",
          "name": "weiAmount",
          "type": "uint256"
        }
      ],
      "name": "Withdrawn",
      "type": "event"
    },
    {
      "inputs": [],
      "name": "beneficiary",
      "outputs": [
        {
          "internalType": "address payable",
          "name": "",
          "type": "address"
        }
      ],
      "stateMutability": "view",
      "type": "function"
    },
    {
      "inputs": [],
      "name": "beneficiaryWithdraw",
      "outputs": [],
      "stateMutability": "nonpayable",
      "type": "function"
    },
    {
      "inputs": [],
      "name": "close",
      "outputs": [],
      "stateMutability": "nonpayable",
      "type": "function"
    },
    {
      "inputs": [
        {
          "internalType": "address",
          "name": "refundee",
          "type": "address"
        }
      ],
      "name": "deposit",
      "outputs": [],
      "stateMutability": "payable",
      "type": "function"
    },
    {
      "inputs": [
        {
          "internalType": "address",
          "name": "payee",
          "type": "address"
        }
      ],
      "name": "depositsOf",
      "outputs": [
        {
          "internalType": "uint256",
          "name": "",
          "type": "uint256"
        }
      ],
      "stateMutability": "view",
      "type": "function"
    },
    {
      "inputs": [],
      "name": "enableRefunds",
      "outputs": [],
      "stateMutability": "nonpayable",
      "type": "function"
    },
    {
      "inputs": [],
      "name": "owner",
      "outputs": [
        {
          "internalType": "address",
          "name": "",
          "type": "address"
        }
      ],
      "stateMutability": "view",
      "type": "function"
    },
    {
      "inputs": [],
      "name": "renounceOwnership",
      "outputs": [],
      "stateMutability": "nonpayable",
      "type": "function"
    },
    {
      "inputs": [],
      "name": "state",
      "outputs": [
        {
          "internalType": "enum RefundEscrow.State",
          "name": "",
          "type": "uint8"
        }
      ],
      "stateMutability": "view",
      "type": "function"
    },
    {
      "inputs": [
        {
          "internalType": "address",
          "name": "newOwner",
          "type": "address"
        }
      ],
      "name": "transferOwnership",
      "outputs": [],
      "stateMutability": "nonpayable",
      "type": "function"
    },
    {
      "inputs": [
        {
          "internalType": "address payable",
          "name": "payee",
          "type": "address"
        }
      ],
      "name": "withdraw",
      "outputs": [],
      "stateMutability": "nonpayable",
      "type": "function"
    },
    {
      "inputs": [
        {
          "internalType": "address",
          "name": "",
          "type": "address"
        }
      ],
      "name": "withdrawalAllowed",
      "outputs": [
        {
          "internalType": "bool",
          "name": "",
          "type": "bool"
        }
      ],
      "stateMutability": "view",
      "type": "function"
    }
  ],
  "bytecode": "0x60a060405234801561001057600080fd5b50d3801561001d57600080fd5b50d2801561002a57600080fd5b50604051610e4e380380610e4e833981016040819052610049916100fb565b6100596100546100a7565b6100ab565b6001600160a01b0381166100885760405162461bcd60e51b815260040161007f90610132565b60405180910390fd5b60601b6001600160601b0319166080526002805460ff1916905561017f565b3390565b600080546001600160a01b038381166001600160a01b0319831681178455604051919092169283917f8be0079c531659141344cd1fd0a4f28419497f9722a3daafe3b4186f6b6457e09190a35050565b60006020828403121561010c578081fd5b81516001600160a81b0381168114610122578182fd5b6001600160a01b03169392505050565b6020808252602d908201527f526566756e64457363726f773a2062656e65666963696172792069732074686560408201526c207a65726f206164647265737360981b606082015260800190565b60805160601c610cb161019d60003960006103310152610cb16000f3fe6080604052600436106100a75760003560e01c80638da5cb5b116100645780638da5cb5b146102015780639af6549a14610230578063c19d93fb1461025f578063e3a9db1a1461029b578063f2fde38b146102e2578063f340fa011461031c576100a7565b806338af3eed146100ac57806343d726d6146100f157806351cff8d914610122578063685ca1941461015c578063715018a6146101a35780638c52dc41146101d2575b600080fd5b3480156100b857600080fd5b50d380156100c557600080fd5b50d280156100d257600080fd5b506100db61032f565b6040516100e8919061094d565b60405180910390f35b3480156100fd57600080fd5b50d3801561010a57600080fd5b50d2801561011757600080fd5b50610120610353565b005b34801561012e57600080fd5b50d3801561013b57600080fd5b50d2801561014857600080fd5b5061012061015736600461091e565b610418565b34801561016857600080fd5b50d3801561017557600080fd5b50d2801561018257600080fd5b5061019661019136600461091e565b610449565b6040516100e89190610961565b3480156101af57600080fd5b50d380156101bc57600080fd5b50d280156101c957600080fd5b5061012061047b565b3480156101de57600080fd5b50d380156101eb57600080fd5b50d280156101f857600080fd5b506101206104c6565b34801561020d57600080fd5b50d3801561021a57600080fd5b50d2801561022757600080fd5b506100db610583565b34801561023c57600080fd5b50d3801561024957600080fd5b50d2801561025657600080fd5b50610120610592565b34801561026b57600080fd5b50d3801561027857600080fd5b50d2801561028557600080fd5b5061028e6105f3565b6040516100e8919061096c565b3480156102a757600080fd5b50d380156102b457600080fd5b50d280156102c157600080fd5b506102d56102d036600461091e565b6105fc565b6040516100e89190610c39565b3480156102ee57600080fd5b50d380156102fb57600080fd5b50d2801561030857600080fd5b5061012061031736600461091e565b610617565b61012061032a36600461091e565b610685565b7f000000000000000000000000000000000000000000000000000000000000000090565b61035b6106d4565b6001600160a01b031661036c610583565b6001600160a01b03161461039b5760405162461bcd60e51b815260040161039290610bb2565b60405180910390fd5b60006103a56105f3565b60028111156103c457634e487b7160e01b600052602160045260246000fd5b146103e15760405162461bcd60e51b815260040161039290610b69565b6002805460ff1916811790556040517f088672c3a6e342f7cd94a65ba63b79df24a8973927b4d05d803c44bbf787d12f90600090a1565b61042181610449565b61043d5760405162461bcd60e51b815260040161039290610b16565b610446816106d8565b50565b600060016104556105f3565b600281111561047457634e487b7160e01b600052602160045260246000fd5b1492915050565b6104836106d4565b6001600160a01b0316610494610583565b6001600160a01b0316146104ba5760405162461bcd60e51b815260040161039290610bb2565b6104c46000610784565b565b6104ce6106d4565b6001600160a01b03166104df610583565b6001600160a01b0316146105055760405162461bcd60e51b815260040161039290610bb2565b600061050f6105f3565b600281111561052e57634e487b7160e01b600052602160045260246000fd5b1461054b5760405162461bcd60e51b815260040161039290610be7565b6002805460ff191660011790556040517f599d8e5a83cffb867d051598c4d70e805d59802d8081c1c7d6dffc5b6aca2b8990600090a1565b6000546001600160a01b031690565b600261059c6105f3565b60028111156105bb57634e487b7160e01b600052602160045260246000fd5b146105d85760405162461bcd60e51b815260040161039290610994565b6104c4476105e461032f565b6001600160a01b0316906107d4565b60025460ff1690565b6001600160a01b031660009081526001602052604090205490565b61061f6106d4565b6001600160a01b0316610630610583565b6001600160a01b0316146106565760405162461bcd60e51b815260040161039290610bb2565b6001600160a01b03811661067c5760405162461bcd60e51b8152600401610392906109f1565b61044681610784565b600061068f6105f3565b60028111156106ae57634e487b7160e01b600052602160045260246000fd5b146106cb5760405162461bcd60e51b815260040161039290610acb565b61044681610875565b3390565b6106e06106d4565b6001600160a01b03166106f1610583565b6001600160a01b0316146107175760405162461bcd60e51b815260040161039290610bb2565b6001600160a01b038116600081815260016020526040812080549190559061073f90826107d4565b816001600160a01b03167f7084f5476618d8e60b11ef0d7d3f06914655adb8793e28ff7f018d4c76d505d5826040516107789190610c39565b60405180910390a25050565b600080546001600160a01b038381166001600160a01b0319831681178455604051919092169283917f8be0079c531659141344cd1fd0a4f28419497f9722a3daafe3b4186f6b6457e09190a35050565b804710156107f45760405162461bcd60e51b815260040161039290610a94565b6000826001600160a01b03168260405161080d9061094a565b60006040518083038185875af1925050503d806000811461084a576040519150601f19603f3d011682016040523d82523d6000602084013e61084f565b606091505b50509050806108705760405162461bcd60e51b815260040161039290610a37565b505050565b61087d6106d4565b6001600160a01b031661088e610583565b6001600160a01b0316146108b45760405162461bcd60e51b815260040161039290610bb2565b6001600160a01b0381166000908152600160205260408120805434928392916108de908490610c42565b92505081905550816001600160a01b03167f2da466a7b24304f47e87fa2e1e5a81b9831ce54fec19055ce277ca2f39ba42c4826040516107789190610c39565b60006020828403121561092f578081fd5b813561093a81610c66565b6001600160a01b03169392505050565b90565b6001600160a01b0391909116815260200190565b901515815260200190565b602081016003831061098e57634e487b7160e01b600052602160045260246000fd5b91905290565b60208082526038908201527f526566756e64457363726f773a2062656e65666963696172792063616e206f6e60408201527f6c79207769746864726177207768696c6520636c6f7365640000000000000000606082015260800190565b60208082526026908201527f4f776e61626c653a206e6577206f776e657220697320746865207a65726f206160408201526564647265737360d01b606082015260800190565b6020808252603a908201527f416464726573733a20756e61626c6520746f2073656e642076616c75652c207260408201527f6563697069656e74206d61792068617665207265766572746564000000000000606082015260800190565b6020808252601d908201527f416464726573733a20696e73756666696369656e742062616c616e6365000000604082015260600190565b6020808252602b908201527f526566756e64457363726f773a2063616e206f6e6c79206465706f736974207760408201526a68696c652061637469766560a81b606082015260800190565b60208082526033908201527f436f6e646974696f6e616c457363726f773a207061796565206973206e6f7420604082015272616c6c6f77656420746f20776974686472617760681b606082015260800190565b60208082526029908201527f526566756e64457363726f773a2063616e206f6e6c7920636c6f7365207768696040820152686c652061637469766560b81b606082015260800190565b6020808252818101527f4f776e61626c653a2063616c6c6572206973206e6f7420746865206f776e6572604082015260600190565b60208082526032908201527f526566756e64457363726f773a2063616e206f6e6c7920656e61626c6520726560408201527166756e6473207768696c652061637469766560701b606082015260800190565b90815260200190565b60008219821115610c6157634e487b7160e01b81526011600452602481fd5b500190565b6001600160a81b038116811461044657600080fdfea26469706673582212201808504d6c512cd4b0a6563b15a298efc156faf3189bbe8c915070ad5a9270f164736f6c63430008000033",
  "source": "// SPDX-License-Identifier: MIT\n\npragma solidity ^0.8.0;\n\nimport \"./ConditionalEscrow.sol\";\n\n/**\n * @title RefundEscrow\n * @dev Escrow that holds funds for a beneficiary, deposited from multiple\n * parties.\n * @dev Intended usage: See {Escrow}. Same usage guidelines apply here.\n * @dev The owner account (that is, the contract that instantiates this\n * contract) may deposit, close the deposit period, and allow for either\n * withdrawal by the beneficiary, or refunds to the depositors. All interactions\n * with `RefundEscrow` will be made through the owner contract.\n */\ncontract RefundEscrow is ConditionalEscrow {\n    using Address for address payable;\n\n    enum State {\n        Active,\n        Refunding,\n        Closed\n    }\n\n    event RefundsClosed();\n    event RefundsEnabled();\n\n    State private _state;\n    address payable private immutable _beneficiary;\n\n    /**\n     * @dev Constructor.\n     * @param beneficiary_ The beneficiary of the deposits.\n     */\n    constructor(address payable beneficiary_) {\n        require(beneficiary_ != address(0), \"RefundEscrow: beneficiary is the zero address\");\n        _beneficiary = beneficiary_;\n        _state = State.Active;\n    }\n\n    /**\n     * @return The current state of the escrow.\n     */\n    function state() public view virtual returns (State) {\n        return _state;\n    }\n\n    /**\n     * @return The beneficiary of the escrow.\n     */\n    function beneficiary() public view virtual returns (address payable) {\n        return _beneficiary;\n    }\n\n    /**\n     * @dev Stores funds that may later be refunded.\n     * @param refundee The address funds will be sent to if a refund occurs.\n     */\n    function deposit(address refundee) public payable virtual override {\n        require(state() == State.Active, \"RefundEscrow: can only deposit while active\");\n        super.deposit(refundee);\n    }\n\n    /**\n     * @dev Allows for the beneficiary to withdraw their funds, rejecting\n     * further deposits.\n     */\n    function close() public virtual onlyOwner {\n        require(state() == State.Active, \"RefundEscrow: can only close while active\");\n        _state = State.Closed;\n        emit RefundsClosed();\n    }\n\n    /**\n     * @dev Allows for refunds to take place, rejecting further deposits.\n     */\n    function enableRefunds() public virtual onlyOwner {\n        require(state() == State.Active, \"RefundEscrow: can only enable refunds while active\");\n        _state = State.Refunding;\n        emit RefundsEnabled();\n    }\n\n    /**\n     * @dev Withdraws the beneficiary's funds.\n     */\n    function beneficiaryWithdraw() public virtual {\n        require(state() == State.Closed, \"RefundEscrow: beneficiary can only withdraw while closed\");\n        beneficiary().sendValue(address(this).balance);\n    }\n\n    /**\n     * @dev Returns whether refundees can withdraw their deposits (be refunded). The overridden function receives a\n     * 'payee' argument, but we ignore it here since the condition is global, not per-payee.\n     */\n    function withdrawalAllowed(address) public view override returns (bool) {\n        return state() == State.Refunding;\n    }\n}\n",
  "sourcePath": "/home/swatim/TRON/CUR-NFTs/contracts/@openzeppelin/contracts/utils/escrow/RefundEscrow.sol",
  "compiler": {
    "name": "solc",
    "version": "0.8.0+commit.7c2e6412.Emscripten.clang"
  },
  "schemaVersion": "2.0.1",
  "updatedAt": "2021-12-16T04:49:26.521Z"
}