{
  "contractName": "TimelockController",
  "abi": [
    {
      "inputs": [
        {
          "internalType": "uint256",
          "name": "minDelay",
          "type": "uint256"
        },
        {
          "internalType": "address[]",
          "name": "proposers",
          "type": "address[]"
        },
        {
          "internalType": "address[]",
          "name": "executors",
          "type": "address[]"
        }
      ],
      "stateMutability": "nonpayable",
      "type": "constructor"
    },
    {
      "anonymous": false,
      "inputs": [
        {
          "indexed": true,
          "internalType": "bytes32",
          "name": "id",
          "type": "bytes32"
        },
        {
          "indexed": true,
          "internalType": "uint256",
          "name": "index",
          "type": "uint256"
        },
        {
          "indexed": false,
          "internalType": "address",
          "name": "target",
          "type": "address"
        },
        {
          "indexed": false,
          "internalType": "uint256",
          "name": "value",
          "type": "uint256"
        },
        {
          "indexed": false,
          "internalType": "bytes",
          "name": "data",
          "type": "bytes"
        }
      ],
      "name": "CallExecuted",
      "type": "event"
    },
    {
      "anonymous": false,
      "inputs": [
        {
          "indexed": true,
          "internalType": "bytes32",
          "name": "id",
          "type": "bytes32"
        },
        {
          "indexed": true,
          "internalType": "uint256",
          "name": "index",
          "type": "uint256"
        },
        {
          "indexed": false,
          "internalType": "address",
          "name": "target",
          "type": "address"
        },
        {
          "indexed": false,
          "internalType": "uint256",
          "name": "value",
          "type": "uint256"
        },
        {
          "indexed": false,
          "internalType": "bytes",
          "name": "data",
          "type": "bytes"
        },
        {
          "indexed": false,
          "internalType": "bytes32",
          "name": "predecessor",
          "type": "bytes32"
        },
        {
          "indexed": false,
          "internalType": "uint256",
          "name": "delay",
          "type": "uint256"
        }
      ],
      "name": "CallScheduled",
      "type": "event"
    },
    {
      "anonymous": false,
      "inputs": [
        {
          "indexed": true,
          "internalType": "bytes32",
          "name": "id",
          "type": "bytes32"
        }
      ],
      "name": "Cancelled",
      "type": "event"
    },
    {
      "anonymous": false,
      "inputs": [
        {
          "indexed": false,
          "internalType": "uint256",
          "name": "oldDuration",
          "type": "uint256"
        },
        {
          "indexed": false,
          "internalType": "uint256",
          "name": "newDuration",
          "type": "uint256"
        }
      ],
      "name": "MinDelayChange",
      "type": "event"
    },
    {
      "anonymous": false,
      "inputs": [
        {
          "indexed": true,
          "internalType": "bytes32",
          "name": "role",
          "type": "bytes32"
        },
        {
          "indexed": true,
          "internalType": "bytes32",
          "name": "previousAdminRole",
          "type": "bytes32"
        },
        {
          "indexed": true,
          "internalType": "bytes32",
          "name": "newAdminRole",
          "type": "bytes32"
        }
      ],
      "name": "RoleAdminChanged",
      "type": "event"
    },
    {
      "anonymous": false,
      "inputs": [
        {
          "indexed": true,
          "internalType": "bytes32",
          "name": "role",
          "type": "bytes32"
        },
        {
          "indexed": true,
          "internalType": "address",
          "name": "account",
          "type": "address"
        },
        {
          "indexed": true,
          "internalType": "address",
          "name": "sender",
          "type": "address"
        }
      ],
      "name": "RoleGranted",
      "type": "event"
    },
    {
      "anonymous": false,
      "inputs": [
        {
          "indexed": true,
          "internalType": "bytes32",
          "name": "role",
          "type": "bytes32"
        },
        {
          "indexed": true,
          "internalType": "address",
          "name": "account",
          "type": "address"
        },
        {
          "indexed": true,
          "internalType": "address",
          "name": "sender",
          "type": "address"
        }
      ],
      "name": "RoleRevoked",
      "type": "event"
    },
    {
      "inputs": [],
      "name": "DEFAULT_ADMIN_ROLE",
      "outputs": [
        {
          "internalType": "bytes32",
          "name": "",
          "type": "bytes32"
        }
      ],
      "stateMutability": "view",
      "type": "function"
    },
    {
      "inputs": [],
      "name": "EXECUTOR_ROLE",
      "outputs": [
        {
          "internalType": "bytes32",
          "name": "",
          "type": "bytes32"
        }
      ],
      "stateMutability": "view",
      "type": "function"
    },
    {
      "inputs": [],
      "name": "PROPOSER_ROLE",
      "outputs": [
        {
          "internalType": "bytes32",
          "name": "",
          "type": "bytes32"
        }
      ],
      "stateMutability": "view",
      "type": "function"
    },
    {
      "inputs": [],
      "name": "TIMELOCK_ADMIN_ROLE",
      "outputs": [
        {
          "internalType": "bytes32",
          "name": "",
          "type": "bytes32"
        }
      ],
      "stateMutability": "view",
      "type": "function"
    },
    {
      "inputs": [
        {
          "internalType": "bytes32",
          "name": "id",
          "type": "bytes32"
        }
      ],
      "name": "cancel",
      "outputs": [],
      "stateMutability": "nonpayable",
      "type": "function"
    },
    {
      "inputs": [
        {
          "internalType": "address",
          "name": "target",
          "type": "address"
        },
        {
          "internalType": "uint256",
          "name": "value",
          "type": "uint256"
        },
        {
          "internalType": "bytes",
          "name": "data",
          "type": "bytes"
        },
        {
          "internalType": "bytes32",
          "name": "predecessor",
          "type": "bytes32"
        },
        {
          "internalType": "bytes32",
          "name": "salt",
          "type": "bytes32"
        }
      ],
      "name": "execute",
      "outputs": [],
      "stateMutability": "payable",
      "type": "function"
    },
    {
      "inputs": [
        {
          "internalType": "address[]",
          "name": "targets",
          "type": "address[]"
        },
        {
          "internalType": "uint256[]",
          "name": "values",
          "type": "uint256[]"
        },
        {
          "internalType": "bytes[]",
          "name": "datas",
          "type": "bytes[]"
        },
        {
          "internalType": "bytes32",
          "name": "predecessor",
          "type": "bytes32"
        },
        {
          "internalType": "bytes32",
          "name": "salt",
          "type": "bytes32"
        }
      ],
      "name": "executeBatch",
      "outputs": [],
      "stateMutability": "payable",
      "type": "function"
    },
    {
      "inputs": [],
      "name": "getMinDelay",
      "outputs": [
        {
          "internalType": "uint256",
          "name": "duration",
          "type": "uint256"
        }
      ],
      "stateMutability": "view",
      "type": "function"
    },
    {
      "inputs": [
        {
          "internalType": "bytes32",
          "name": "role",
          "type": "bytes32"
        }
      ],
      "name": "getRoleAdmin",
      "outputs": [
        {
          "internalType": "bytes32",
          "name": "",
          "type": "bytes32"
        }
      ],
      "stateMutability": "view",
      "type": "function"
    },
    {
      "inputs": [
        {
          "internalType": "bytes32",
          "name": "id",
          "type": "bytes32"
        }
      ],
      "name": "getTimestamp",
      "outputs": [
        {
          "internalType": "uint256",
          "name": "timestamp",
          "type": "uint256"
        }
      ],
      "stateMutability": "view",
      "type": "function"
    },
    {
      "inputs": [
        {
          "internalType": "bytes32",
          "name": "role",
          "type": "bytes32"
        },
        {
          "internalType": "address",
          "name": "account",
          "type": "address"
        }
      ],
      "name": "grantRole",
      "outputs": [],
      "stateMutability": "nonpayable",
      "type": "function"
    },
    {
      "inputs": [
        {
          "internalType": "bytes32",
          "name": "role",
          "type": "bytes32"
        },
        {
          "internalType": "address",
          "name": "account",
          "type": "address"
        }
      ],
      "name": "hasRole",
      "outputs": [
        {
          "internalType": "bool",
          "name": "",
          "type": "bool"
        }
      ],
      "stateMutability": "view",
      "type": "function"
    },
    {
      "inputs": [
        {
          "internalType": "address",
          "name": "target",
          "type": "address"
        },
        {
          "internalType": "uint256",
          "name": "value",
          "type": "uint256"
        },
        {
          "internalType": "bytes",
          "name": "data",
          "type": "bytes"
        },
        {
          "internalType": "bytes32",
          "name": "predecessor",
          "type": "bytes32"
        },
        {
          "internalType": "bytes32",
          "name": "salt",
          "type": "bytes32"
        }
      ],
      "name": "hashOperation",
      "outputs": [
        {
          "internalType": "bytes32",
          "name": "hash",
          "type": "bytes32"
        }
      ],
      "stateMutability": "pure",
      "type": "function"
    },
    {
      "inputs": [
        {
          "internalType": "address[]",
          "name": "targets",
          "type": "address[]"
        },
        {
          "internalType": "uint256[]",
          "name": "values",
          "type": "uint256[]"
        },
        {
          "internalType": "bytes[]",
          "name": "datas",
          "type": "bytes[]"
        },
        {
          "internalType": "bytes32",
          "name": "predecessor",
          "type": "bytes32"
        },
        {
          "internalType": "bytes32",
          "name": "salt",
          "type": "bytes32"
        }
      ],
      "name": "hashOperationBatch",
      "outputs": [
        {
          "internalType": "bytes32",
          "name": "hash",
          "type": "bytes32"
        }
      ],
      "stateMutability": "pure",
      "type": "function"
    },
    {
      "inputs": [
        {
          "internalType": "bytes32",
          "name": "id",
          "type": "bytes32"
        }
      ],
      "name": "isOperation",
      "outputs": [
        {
          "internalType": "bool",
          "name": "pending",
          "type": "bool"
        }
      ],
      "stateMutability": "view",
      "type": "function"
    },
    {
      "inputs": [
        {
          "internalType": "bytes32",
          "name": "id",
          "type": "bytes32"
        }
      ],
      "name": "isOperationDone",
      "outputs": [
        {
          "internalType": "bool",
          "name": "done",
          "type": "bool"
        }
      ],
      "stateMutability": "view",
      "type": "function"
    },
    {
      "inputs": [
        {
          "internalType": "bytes32",
          "name": "id",
          "type": "bytes32"
        }
      ],
      "name": "isOperationPending",
      "outputs": [
        {
          "internalType": "bool",
          "name": "pending",
          "type": "bool"
        }
      ],
      "stateMutability": "view",
      "type": "function"
    },
    {
      "inputs": [
        {
          "internalType": "bytes32",
          "name": "id",
          "type": "bytes32"
        }
      ],
      "name": "isOperationReady",
      "outputs": [
        {
          "internalType": "bool",
          "name": "ready",
          "type": "bool"
        }
      ],
      "stateMutability": "view",
      "type": "function"
    },
    {
      "inputs": [
        {
          "internalType": "bytes32",
          "name": "role",
          "type": "bytes32"
        },
        {
          "internalType": "address",
          "name": "account",
          "type": "address"
        }
      ],
      "name": "renounceRole",
      "outputs": [],
      "stateMutability": "nonpayable",
      "type": "function"
    },
    {
      "inputs": [
        {
          "internalType": "bytes32",
          "name": "role",
          "type": "bytes32"
        },
        {
          "internalType": "address",
          "name": "account",
          "type": "address"
        }
      ],
      "name": "revokeRole",
      "outputs": [],
      "stateMutability": "nonpayable",
      "type": "function"
    },
    {
      "inputs": [
        {
          "internalType": "address",
          "name": "target",
          "type": "address"
        },
        {
          "internalType": "uint256",
          "name": "value",
          "type": "uint256"
        },
        {
          "internalType": "bytes",
          "name": "data",
          "type": "bytes"
        },
        {
          "internalType": "bytes32",
          "name": "predecessor",
          "type": "bytes32"
        },
        {
          "internalType": "bytes32",
          "name": "salt",
          "type": "bytes32"
        },
        {
          "internalType": "uint256",
          "name": "delay",
          "type": "uint256"
        }
      ],
      "name": "schedule",
      "outputs": [],
      "stateMutability": "nonpayable",
      "type": "function"
    },
    {
      "inputs": [
        {
          "internalType": "address[]",
          "name": "targets",
          "type": "address[]"
        },
        {
          "internalType": "uint256[]",
          "name": "values",
          "type": "uint256[]"
        },
        {
          "internalType": "bytes[]",
          "name": "datas",
          "type": "bytes[]"
        },
        {
          "internalType": "bytes32",
          "name": "predecessor",
          "type": "bytes32"
        },
        {
          "internalType": "bytes32",
          "name": "salt",
          "type": "bytes32"
        },
        {
          "internalType": "uint256",
          "name": "delay",
          "type": "uint256"
        }
      ],
      "name": "scheduleBatch",
      "outputs": [],
      "stateMutability": "nonpayable",
      "type": "function"
    },
    {
      "inputs": [
        {
          "internalType": "bytes4",
          "name": "interfaceId",
          "type": "bytes4"
        }
      ],
      "name": "supportsInterface",
      "outputs": [
        {
          "internalType": "bool",
          "name": "",
          "type": "bool"
        }
      ],
      "stateMutability": "view",
      "type": "function"
    },
    {
      "inputs": [
        {
          "internalType": "uint256",
          "name": "newDelay",
          "type": "uint256"
        }
      ],
      "name": "updateDelay",
      "outputs": [],
      "stateMutability": "nonpayable",
      "type": "function"
    },
    {
      "stateMutability": "payable",
      "type": "receive"
    }
  ],
  "bytecode": "0x60806040523480156200001157600080fd5b50d380156200001f57600080fd5b50d280156200002d57600080fd5b50604051620021ca380380620021ca83398101604081905262000050916200040d565b6200006b6000805160206200216a8339815191528062000209565b620000956000805160206200218a8339815191526000805160206200216a83398151915262000209565b620000bf600080516020620021aa8339815191526000805160206200216a83398151915262000209565b620000e36000805160206200216a833981519152620000dd6200025e565b62000262565b620000fe6000805160206200216a8339815191523062000262565b60005b82518110156200016757620001546000805160206200218a8339815191528483815181106200014057634e487b7160e01b600052603260045260246000fd5b60200260200101516200026260201b60201c565b6200015f816200048c565b905062000101565b5060005b8151811015620001bd57620001aa600080516020620021aa8339815191528383815181106200014057634e487b7160e01b600052603260045260246000fd5b620001b5816200048c565b90506200016b565b5060028390556040517f11c24f4ead16507c69ac467fbd5e4eed5fb5c699626d2cc6d66421df253886d590620001f89060009086906200047e565b60405180910390a1505050620004ca565b6000620002168362000272565b600084815260208190526040808220600101859055519192508391839186917fbd79b86ffe0ab8e8776151514217cd7cacd52c909f66475c3af44e129f0b00ff9190a4505050565b3390565b6200026e828262000287565b5050565b60009081526020819052604090206001015490565b62000293828262000311565b6200026e576000828152602081815260408083206001600160a01b03851684529091529020805460ff19166001179055620002cd6200025e565b6001600160a01b0316816001600160a01b0316837f2f8788117e7eff1d82e926ec794901d17c78024a50270940304540a733656f0d60405160405180910390a45050565b6000918252602082815260408084206001600160a01b0393909316845291905290205460ff1690565b80516000906001600160a81b038116811462000354578182fd5b6001600160a01b031692915050565b600082601f83011262000374578081fd5b815160206001600160401b0380831115620003935762000393620004b4565b81830260405183828201018181108482111715620003b557620003b5620004b4565b60405284815283810192508684018288018501891015620003d4578687fd5b8692505b858310156200040157620003ec816200033a565b845292840192600192909201918401620003d8565b50979650505050505050565b60008060006060848603121562000422578283fd5b835160208501519093506001600160401b038082111562000441578384fd5b6200044f8783880162000363565b9350604086015191508082111562000465578283fd5b50620004748682870162000363565b9150509250925092565b918252602082015260400190565b6000600019821415620004ad57634e487b7160e01b81526011600452602481fd5b5060010190565b634e487b7160e01b600052604160045260246000fd5b611c9080620004da6000396000f3fe60806040526004361061014f5760003560e01c806364d62353116100b6578063b1c5f4271161006f578063b1c5f42714610541578063c4d252f51461057b578063d45c4435146105b5578063d547741f146105ef578063e38335e514610629578063f27a0c921461063c57610156565b806364d62353146103fb5780638065657f146104355780638f2a0bb01461046f5780638f61f4f5146104a957806391d14854146104d8578063a217fddf1461051257610156565b8063248a9ca311610108578063248a9ca31461029f5780632ab0f529146102d95780632f2ff15d1461031357806331d507501461034d57806336568abe14610387578063584b153e146103c157610156565b806301d5062a1461015b57806301ffc9a71461019757806307bd0265146101e75780630d3cf6fc14610223578063134008d31461025257806313bc9f201461026557610156565b3661015657005b600080fd5b34801561016757600080fd5b50d3801561017457600080fd5b50d2801561018157600080fd5b50610195610190366004611397565b61066b565b005b3480156101a357600080fd5b50d380156101b057600080fd5b50d280156101bd57600080fd5b506101d16101cc3660046115a0565b6106f6565b6040516101de9190611816565b60405180910390f35b3480156101f357600080fd5b50d3801561020057600080fd5b50d2801561020d57600080fd5b50610216610721565b6040516101de9190611821565b34801561022f57600080fd5b50d3801561023c57600080fd5b50d2801561024957600080fd5b50610216610745565b61019561026036600461132d565b610769565b34801561027157600080fd5b50d3801561027e57600080fd5b50d2801561028b57600080fd5b506101d161029a36600461155d565b6107e3565b3480156102ab57600080fd5b50d380156102b857600080fd5b50d280156102c557600080fd5b506102166102d436600461155d565b610808565b3480156102e557600080fd5b50d380156102f257600080fd5b50d280156102ff57600080fd5b506101d161030e36600461155d565b61081d565b34801561031f57600080fd5b50d3801561032c57600080fd5b50d2801561033957600080fd5b50610195610348366004611575565b610831565b34801561035957600080fd5b50d3801561036657600080fd5b50d2801561037357600080fd5b506101d161038236600461155d565b610855565b34801561039357600080fd5b50d380156103a057600080fd5b50d280156103ad57600080fd5b506101956103bc366004611575565b610868565b3480156103cd57600080fd5b50d380156103da57600080fd5b50d280156103e757600080fd5b506101d16103f636600461155d565b6108b7565b34801561040757600080fd5b50d3801561041457600080fd5b50d2801561042157600080fd5b5061019561043036600461155d565b6108c4565b34801561044157600080fd5b50d3801561044e57600080fd5b50d2801561045b57600080fd5b5061021661046a36600461132d565b610923565b34801561047b57600080fd5b50d3801561048857600080fd5b50d2801561049557600080fd5b506101956104a43660046114af565b610962565b3480156104b557600080fd5b50d380156104c257600080fd5b50d280156104cf57600080fd5b50610216610acf565b3480156104e457600080fd5b50d380156104f157600080fd5b50d280156104fe57600080fd5b506101d161050d366004611575565b610ae1565b34801561051e57600080fd5b50d3801561052b57600080fd5b50d2801561053857600080fd5b50610216610b0a565b34801561054d57600080fd5b50d3801561055a57600080fd5b50d2801561056757600080fd5b5061021661057636600461140a565b610b0f565b34801561058757600080fd5b50d3801561059457600080fd5b50d280156105a157600080fd5b506101956105b036600461155d565b610b54565b3480156105c157600080fd5b50d380156105ce57600080fd5b50d280156105db57600080fd5b506102166105ea36600461155d565b610bd0565b3480156105fb57600080fd5b50d3801561060857600080fd5b50d2801561061557600080fd5b50610195610624366004611575565b610be2565b61019561063736600461140a565b610c01565b34801561064857600080fd5b50d3801561065557600080fd5b50d2801561066257600080fd5b50610216610d62565b600080516020611c3b83398151915261068b81610686610d68565b610d6c565b600061069b898989898989610923565b90506106a78184610dd0565b6000817f4cf4410cc57040e44862ef0f45f3dd5a5e02db8eb8add648d4b0e236f1d07dca8b8b8b8b8b8a6040516106e396959493929190611734565b60405180910390a3505050505050505050565b60006001600160e01b03198216637965db0b60e01b148061071b575061071b82610e3d565b92915050565b7fd8aa0f3194971a2a116679f7c2090f6939c8d4e01a2a8d7e41d55e5351469e6381565b7f5f58e3a2316349923ce3780f8d587db2d72378aed66a8261c916544fa6846ca581565b7fd8aa0f3194971a2a116679f7c2090f6939c8d4e01a2a8d7e41d55e5351469e63610795816000610ae1565b6107a5576107a581610686610d68565b60006107b5888888888888610923565b90506107c18185610e56565b6107d08160008a8a8a8a610ea8565b6107d981610f70565b5050505050505050565b6000806107ef83610bd0565b90506001811180156108015750428111155b9392505050565b60009081526020819052604090206001015490565b6000600161082a83610bd0565b1492915050565b61083a82610808565b61084681610686610d68565b6108508383610fa9565b505050565b60008061086183610bd0565b1192915050565b610870610d68565b6001600160a01b0316816001600160a01b0316146108a95760405162461bcd60e51b81526004016108a090611a96565b60405180910390fd5b6108b3828261102e565b5050565b6000600161086183610bd0565b3330146108e35760405162461bcd60e51b81526004016108a090611a4b565b7f11c24f4ead16507c69ac467fbd5e4eed5fb5c699626d2cc6d66421df253886d560025482604051610916929190611b38565b60405180910390a1600255565b600086868686868660405160200161094096959493929190611734565b6040516020818303038152906040528051906020012090509695505050505050565b600080516020611c3b83398151915261097d81610686610d68565b88871461099c5760405162461bcd60e51b81526004016108a0906118d8565b8885146109bb5760405162461bcd60e51b81526004016108a0906118d8565b60006109cd8b8b8b8b8b8b8b8b610b0f565b90506109d98184610dd0565b60005b8a811015610ac15780827f4cf4410cc57040e44862ef0f45f3dd5a5e02db8eb8add648d4b0e236f1d07dca8e8e85818110610a2757634e487b7160e01b600052603260045260246000fd5b9050602002016020810190610a3c9190611313565b8d8d86818110610a5c57634e487b7160e01b600052603260045260246000fd5b905060200201358c8c87818110610a8357634e487b7160e01b600052603260045260246000fd5b9050602002810190610a959190611b46565b8c8b604051610aa996959493929190611734565b60405180910390a3610aba81611c09565b90506109dc565b505050505050505050505050565b600080516020611c3b83398151915281565b6000918252602082815260408084206001600160a01b0393909316845291905290205460ff1690565b600081565b60008888888888888888604051602001610b30989796959493929190611771565b60405160208183030381529060405280519060200120905098975050505050505050565b600080516020611c3b833981519152610b6f81610686610d68565b610b78826108b7565b610b945760405162461bcd60e51b81526004016108a0906119fa565b6000828152600160205260408082208290555183917fbaa1eb22f2a492ba1a5fea61b8df4d27c6c8b5f3971e63bb58fa14ff72eedb7091a25050565b60009081526001602052604090205490565b610beb82610808565b610bf781610686610d68565b610850838361102e565b7fd8aa0f3194971a2a116679f7c2090f6939c8d4e01a2a8d7e41d55e5351469e63610c2d816000610ae1565b610c3d57610c3d81610686610d68565b878614610c5c5760405162461bcd60e51b81526004016108a0906118d8565b878414610c7b5760405162461bcd60e51b81526004016108a0906118d8565b6000610c8d8a8a8a8a8a8a8a8a610b0f565b9050610c998185610e56565b60005b89811015610d4c57610d3c82828d8d85818110610cc957634e487b7160e01b600052603260045260246000fd5b9050602002016020810190610cde9190611313565b8c8c86818110610cfe57634e487b7160e01b600052603260045260246000fd5b905060200201358b8b87818110610d2557634e487b7160e01b600052603260045260246000fd5b9050602002810190610d379190611b46565b610ea8565b610d4581611c09565b9050610c9c565b50610d5681610f70565b50505050505050505050565b60025490565b3390565b610d768282610ae1565b6108b357610d8e816001600160a01b031660146110b1565b610d998360206110b1565b604051602001610daa92919061168d565b60408051601f198184030181529082905262461bcd60e51b82526108a09160040161182a565b610dd982610855565b15610df65760405162461bcd60e51b81526004016108a090611961565b610dfe610d62565b811015610e1d5760405162461bcd60e51b81526004016108a09061191b565b610e278142611b8b565b6000928352600160205260409092209190915550565b6001600160e01b031981166301ffc9a760e01b14919050565b610e5f826107e3565b610e7b5760405162461bcd60e51b81526004016108a0906119b0565b801580610e8c5750610e8c8161081d565b6108b35760405162461bcd60e51b81526004016108a090611892565b6000846001600160a01b0316848484604051610ec592919061167d565b60006040518083038185875af1925050503d8060008114610f02576040519150601f19603f3d011682016040523d82523d6000602084013e610f07565b606091505b5050905080610f285760405162461bcd60e51b81526004016108a090611ae5565b85877fc2617efa69bab66782fa219543714338489c4e9e178271560a91b82c3f612b5887878787604051610f5f9493929190611702565b60405180910390a350505050505050565b610f79816107e3565b610f955760405162461bcd60e51b81526004016108a0906119b0565b600090815260016020819052604090912055565b610fb38282610ae1565b6108b3576000828152602081815260408083206001600160a01b03851684529091529020805460ff19166001179055610fea610d68565b6001600160a01b0316816001600160a01b0316837f2f8788117e7eff1d82e926ec794901d17c78024a50270940304540a733656f0d60405160405180910390a45050565b6110388282610ae1565b156108b3576000828152602081815260408083206001600160a01b03851684529091529020805460ff1916905561106d610d68565b6001600160a01b0316816001600160a01b0316837ff6391f5c32d9c69d2a47ea670b442974b53935d1edc7fd64eb21e047a839171b60405160405180910390a45050565b606060006110c0836002611ba3565b6110cb906002611b8b565b67ffffffffffffffff8111156110f157634e487b7160e01b600052604160045260246000fd5b6040519080825280601f01601f19166020018201604052801561111b576020820181803683370190505b509050600360fc1b8160008151811061114457634e487b7160e01b600052603260045260246000fd5b60200101906001600160f81b031916908160001a905350600f60fb1b8160018151811061118157634e487b7160e01b600052603260045260246000fd5b60200101906001600160f81b031916908160001a90535060006111a5846002611ba3565b6111b0906001611b8b565b90505b6001811115611244576f181899199a1a9b1b9c1cb0b131b232b360811b85600f16601081106111f257634e487b7160e01b600052603260045260246000fd5b1a60f81b82828151811061121657634e487b7160e01b600052603260045260246000fd5b60200101906001600160f81b031916908160001a90535060049490941c9361123d81611bf2565b90506111b3565b5083156108015760405162461bcd60e51b81526004016108a09061185d565b600081356001600160a81b038116811461127b578182fd5b6001600160a01b031692915050565b60008083601f84011261129b578182fd5b50813567ffffffffffffffff8111156112b2578182fd5b60208301915083602080830285010111156112cc57600080fd5b9250929050565b60008083601f8401126112e4578182fd5b50813567ffffffffffffffff8111156112fb578182fd5b6020830191508360208285010111156112cc57600080fd5b600060208284031215611324578081fd5b61080182611263565b60008060008060008060a08789031215611345578182fd5b61134e87611263565b955060208701359450604087013567ffffffffffffffff811115611370578283fd5b61137c89828a016112d3565b979a9699509760608101359660809091013595509350505050565b600080600080600080600060c0888a0312156113b1578081fd5b6113ba88611263565b965060208801359550604088013567ffffffffffffffff8111156113dc578182fd5b6113e88a828b016112d3565b989b979a50986060810135976080820135975060a09091013595509350505050565b60008060008060008060008060a0898b031215611425578081fd5b883567ffffffffffffffff8082111561143c578283fd5b6114488c838d0161128a565b909a50985060208b0135915080821115611460578283fd5b61146c8c838d0161128a565b909850965060408b0135915080821115611484578283fd5b506114918b828c0161128a565b999c989b509699959896976060870135966080013595509350505050565b600080600080600080600080600060c08a8c0312156114cc578081fd5b893567ffffffffffffffff808211156114e3578283fd5b6114ef8d838e0161128a565b909b50995060208c0135915080821115611507578283fd5b6115138d838e0161128a565b909950975060408c013591508082111561152b578283fd5b506115388c828d0161128a565b9a9d999c50979a969997986060880135976080810135975060a0013595509350505050565b60006020828403121561156e578081fd5b5035919050565b60008060408385031215611587578182fd5b8235915061159760208401611263565b90509250929050565b6000602082840312156115b1578081fd5b81356001600160e01b031981168114610801578182fd5b818352602080840193600091908185020181018584845b878110156116465782840389528135601e198836030181126115ff578687fd5b8701803567ffffffffffffffff811115611617578788fd5b803603891315611625578788fd5b6116328682898501611653565b9a87019a95505050908401906001016115df565b5091979650505050505050565b60008284528282602086013780602084860101526020601f19601f85011685010190509392505050565b6000828483379101908152919050565b60007f416363657373436f6e74726f6c3a206163636f756e7420000000000000000000825283516116c5816017850160208801611bc2565b7001034b99036b4b9b9b4b733903937b6329607d1b60179184019182015283516116f6816028840160208801611bc2565b01602801949350505050565b600060018060a01b03861682528460208301526060604083015261172a606083018486611653565b9695505050505050565b600060018060a01b038816825286602083015260a0604083015261175c60a083018688611653565b60608301949094525060800152949350505050565b60a0808252810188905260008960c08301825b8b8110156117b2576001600160a01b0361179d84611263565b16825260209283019290910190600101611784565b5083810360208501528881526001600160fb1b038911156117d1578283fd5b602089029150818a602083013701602081810183815284830390910160408501526117fd81888a6115c8565b6060850196909652505050608001529695505050505050565b901515815260200190565b90815260200190565b6000602082528251806020840152611849816040850160208701611bc2565b601f01601f19169190910160400192915050565b6020808252818101527f537472696e67733a20686578206c656e67746820696e73756666696369656e74604082015260600190565b60208082526026908201527f54696d656c6f636b436f6e74726f6c6c65723a206d697373696e6720646570656040820152656e64656e637960d01b606082015260800190565b60208082526023908201527f54696d656c6f636b436f6e74726f6c6c65723a206c656e677468206d69736d616040820152620e8c6d60eb1b606082015260800190565b60208082526026908201527f54696d656c6f636b436f6e74726f6c6c65723a20696e73756666696369656e746040820152652064656c617960d01b606082015260800190565b6020808252602f908201527f54696d656c6f636b436f6e74726f6c6c65723a206f7065726174696f6e20616c60408201526e1c9958591e481cd8da19591d5b1959608a1b606082015260800190565b6020808252602a908201527f54696d656c6f636b436f6e74726f6c6c65723a206f7065726174696f6e206973604082015269206e6f7420726561647960b01b606082015260800190565b60208082526031908201527f54696d656c6f636b436f6e74726f6c6c65723a206f7065726174696f6e2063616040820152701b9b9bdd0818994818d85b98d95b1b1959607a1b606082015260800190565b6020808252602b908201527f54696d656c6f636b436f6e74726f6c6c65723a2063616c6c6572206d7573742060408201526a62652074696d656c6f636b60a81b606082015260800190565b6020808252602f908201527f416363657373436f6e74726f6c3a2063616e206f6e6c792072656e6f756e636560408201526e103937b632b9903337b91039b2b63360891b606082015260800190565b60208082526033908201527f54696d656c6f636b436f6e74726f6c6c65723a20756e6465726c79696e6720746040820152721c985b9cd858dd1a5bdb881c995d995c9d1959606a1b606082015260800190565b918252602082015260400190565b6000808335601e19843603018112611b5c578283fd5b83018035915067ffffffffffffffff821115611b76578283fd5b6020019150368190038213156112cc57600080fd5b60008219821115611b9e57611b9e611c24565b500190565b6000816000190483118215151615611bbd57611bbd611c24565b500290565b60005b83811015611bdd578181015183820152602001611bc5565b83811115611bec576000848401525b50505050565b600081611c0157611c01611c24565b506000190190565b6000600019821415611c1d57611c1d611c24565b5060010190565b634e487b7160e01b600052601160045260246000fdfeb09aa5aeb3702cfd50b6b62bc4532604938f21248a27a1d5ca736082b6819cc1a2646970667358221220a145582a172d02023696c5b58ab776ddc20543d7d998813adf65d9d0e5d0482964736f6c634300080000335f58e3a2316349923ce3780f8d587db2d72378aed66a8261c916544fa6846ca5b09aa5aeb3702cfd50b6b62bc4532604938f21248a27a1d5ca736082b6819cc1d8aa0f3194971a2a116679f7c2090f6939c8d4e01a2a8d7e41d55e5351469e63",
  "source": "// SPDX-License-Identifier: MIT\n\npragma solidity ^0.8.0;\n\nimport \"../access/AccessControl.sol\";\n\n/**\n * @dev Contract module which acts as a timelocked controller. When set as the\n * owner of an `Ownable` smart contract, it enforces a timelock on all\n * `onlyOwner` maintenance operations. This gives time for users of the\n * controlled contract to exit before a potentially dangerous maintenance\n * operation is applied.\n *\n * By default, this contract is self administered, meaning administration tasks\n * have to go through the timelock process. The proposer (resp executor) role\n * is in charge of proposing (resp executing) operations. A common use case is\n * to position this {TimelockController} as the owner of a smart contract, with\n * a multisig or a DAO as the sole proposer.\n *\n * _Available since v3.3._\n */\ncontract TimelockController is AccessControl {\n    bytes32 public constant TIMELOCK_ADMIN_ROLE = keccak256(\"TIMELOCK_ADMIN_ROLE\");\n    bytes32 public constant PROPOSER_ROLE = keccak256(\"PROPOSER_ROLE\");\n    bytes32 public constant EXECUTOR_ROLE = keccak256(\"EXECUTOR_ROLE\");\n    uint256 internal constant _DONE_TIMESTAMP = uint256(1);\n\n    mapping(bytes32 => uint256) private _timestamps;\n    uint256 private _minDelay;\n\n    /**\n     * @dev Emitted when a call is scheduled as part of operation `id`.\n     */\n    event CallScheduled(\n        bytes32 indexed id,\n        uint256 indexed index,\n        address target,\n        uint256 value,\n        bytes data,\n        bytes32 predecessor,\n        uint256 delay\n    );\n\n    /**\n     * @dev Emitted when a call is performed as part of operation `id`.\n     */\n    event CallExecuted(bytes32 indexed id, uint256 indexed index, address target, uint256 value, bytes data);\n\n    /**\n     * @dev Emitted when operation `id` is cancelled.\n     */\n    event Cancelled(bytes32 indexed id);\n\n    /**\n     * @dev Emitted when the minimum delay for future operations is modified.\n     */\n    event MinDelayChange(uint256 oldDuration, uint256 newDuration);\n\n    /**\n     * @dev Initializes the contract with a given `minDelay`.\n     */\n    constructor(\n        uint256 minDelay,\n        address[] memory proposers,\n        address[] memory executors\n    ) {\n        _setRoleAdmin(TIMELOCK_ADMIN_ROLE, TIMELOCK_ADMIN_ROLE);\n        _setRoleAdmin(PROPOSER_ROLE, TIMELOCK_ADMIN_ROLE);\n        _setRoleAdmin(EXECUTOR_ROLE, TIMELOCK_ADMIN_ROLE);\n\n        // deployer + self administration\n        _setupRole(TIMELOCK_ADMIN_ROLE, _msgSender());\n        _setupRole(TIMELOCK_ADMIN_ROLE, address(this));\n\n        // register proposers\n        for (uint256 i = 0; i < proposers.length; ++i) {\n            _setupRole(PROPOSER_ROLE, proposers[i]);\n        }\n\n        // register executors\n        for (uint256 i = 0; i < executors.length; ++i) {\n            _setupRole(EXECUTOR_ROLE, executors[i]);\n        }\n\n        _minDelay = minDelay;\n        emit MinDelayChange(0, minDelay);\n    }\n\n    /**\n     * @dev Modifier to make a function callable only by a certain role. In\n     * addition to checking the sender's role, `address(0)` 's role is also\n     * considered. Granting a role to `address(0)` is equivalent to enabling\n     * this role for everyone.\n     */\n    modifier onlyRoleOrOpenRole(bytes32 role) {\n        if (!hasRole(role, address(0))) {\n            _checkRole(role, _msgSender());\n        }\n        _;\n    }\n\n    /**\n     * @dev Contract might receive/hold ETH as part of the maintenance process.\n     */\n    receive() external payable {}\n\n    /**\n     * @dev Returns whether an id correspond to a registered operation. This\n     * includes both Pending, Ready and Done operations.\n     */\n    function isOperation(bytes32 id) public view virtual returns (bool pending) {\n        return getTimestamp(id) > 0;\n    }\n\n    /**\n     * @dev Returns whether an operation is pending or not.\n     */\n    function isOperationPending(bytes32 id) public view virtual returns (bool pending) {\n        return getTimestamp(id) > _DONE_TIMESTAMP;\n    }\n\n    /**\n     * @dev Returns whether an operation is ready or not.\n     */\n    function isOperationReady(bytes32 id) public view virtual returns (bool ready) {\n        uint256 timestamp = getTimestamp(id);\n        return timestamp > _DONE_TIMESTAMP && timestamp <= block.timestamp;\n    }\n\n    /**\n     * @dev Returns whether an operation is done or not.\n     */\n    function isOperationDone(bytes32 id) public view virtual returns (bool done) {\n        return getTimestamp(id) == _DONE_TIMESTAMP;\n    }\n\n    /**\n     * @dev Returns the timestamp at with an operation becomes ready (0 for\n     * unset operations, 1 for done operations).\n     */\n    function getTimestamp(bytes32 id) public view virtual returns (uint256 timestamp) {\n        return _timestamps[id];\n    }\n\n    /**\n     * @dev Returns the minimum delay for an operation to become valid.\n     *\n     * This value can be changed by executing an operation that calls `updateDelay`.\n     */\n    function getMinDelay() public view virtual returns (uint256 duration) {\n        return _minDelay;\n    }\n\n    /**\n     * @dev Returns the identifier of an operation containing a single\n     * transaction.\n     */\n    function hashOperation(\n        address target,\n        uint256 value,\n        bytes calldata data,\n        bytes32 predecessor,\n        bytes32 salt\n    ) public pure virtual returns (bytes32 hash) {\n        return keccak256(abi.encode(target, value, data, predecessor, salt));\n    }\n\n    /**\n     * @dev Returns the identifier of an operation containing a batch of\n     * transactions.\n     */\n    function hashOperationBatch(\n        address[] calldata targets,\n        uint256[] calldata values,\n        bytes[] calldata datas,\n        bytes32 predecessor,\n        bytes32 salt\n    ) public pure virtual returns (bytes32 hash) {\n        return keccak256(abi.encode(targets, values, datas, predecessor, salt));\n    }\n\n    /**\n     * @dev Schedule an operation containing a single transaction.\n     *\n     * Emits a {CallScheduled} event.\n     *\n     * Requirements:\n     *\n     * - the caller must have the 'proposer' role.\n     */\n    function schedule(\n        address target,\n        uint256 value,\n        bytes calldata data,\n        bytes32 predecessor,\n        bytes32 salt,\n        uint256 delay\n    ) public virtual onlyRole(PROPOSER_ROLE) {\n        bytes32 id = hashOperation(target, value, data, predecessor, salt);\n        _schedule(id, delay);\n        emit CallScheduled(id, 0, target, value, data, predecessor, delay);\n    }\n\n    /**\n     * @dev Schedule an operation containing a batch of transactions.\n     *\n     * Emits one {CallScheduled} event per transaction in the batch.\n     *\n     * Requirements:\n     *\n     * - the caller must have the 'proposer' role.\n     */\n    function scheduleBatch(\n        address[] calldata targets,\n        uint256[] calldata values,\n        bytes[] calldata datas,\n        bytes32 predecessor,\n        bytes32 salt,\n        uint256 delay\n    ) public virtual onlyRole(PROPOSER_ROLE) {\n        require(targets.length == values.length, \"TimelockController: length mismatch\");\n        require(targets.length == datas.length, \"TimelockController: length mismatch\");\n\n        bytes32 id = hashOperationBatch(targets, values, datas, predecessor, salt);\n        _schedule(id, delay);\n        for (uint256 i = 0; i < targets.length; ++i) {\n            emit CallScheduled(id, i, targets[i], values[i], datas[i], predecessor, delay);\n        }\n    }\n\n    /**\n     * @dev Schedule an operation that is to becomes valid after a given delay.\n     */\n    function _schedule(bytes32 id, uint256 delay) private {\n        require(!isOperation(id), \"TimelockController: operation already scheduled\");\n        require(delay >= getMinDelay(), \"TimelockController: insufficient delay\");\n        _timestamps[id] = block.timestamp + delay;\n    }\n\n    /**\n     * @dev Cancel an operation.\n     *\n     * Requirements:\n     *\n     * - the caller must have the 'proposer' role.\n     */\n    function cancel(bytes32 id) public virtual onlyRole(PROPOSER_ROLE) {\n        require(isOperationPending(id), \"TimelockController: operation cannot be cancelled\");\n        delete _timestamps[id];\n\n        emit Cancelled(id);\n    }\n\n    /**\n     * @dev Execute an (ready) operation containing a single transaction.\n     *\n     * Emits a {CallExecuted} event.\n     *\n     * Requirements:\n     *\n     * - the caller must have the 'executor' role.\n     */\n    function execute(\n        address target,\n        uint256 value,\n        bytes calldata data,\n        bytes32 predecessor,\n        bytes32 salt\n    ) public payable virtual onlyRoleOrOpenRole(EXECUTOR_ROLE) {\n        bytes32 id = hashOperation(target, value, data, predecessor, salt);\n        _beforeCall(id, predecessor);\n        _call(id, 0, target, value, data);\n        _aftTRCall(id);\n    }\n\n    /**\n     * @dev Execute an (ready) operation containing a batch of transactions.\n     *\n     * Emits one {CallExecuted} event per transaction in the batch.\n     *\n     * Requirements:\n     *\n     * - the caller must have the 'executor' role.\n     */\n    function executeBatch(\n        address[] calldata targets,\n        uint256[] calldata values,\n        bytes[] calldata datas,\n        bytes32 predecessor,\n        bytes32 salt\n    ) public payable virtual onlyRoleOrOpenRole(EXECUTOR_ROLE) {\n        require(targets.length == values.length, \"TimelockController: length mismatch\");\n        require(targets.length == datas.length, \"TimelockController: length mismatch\");\n\n        bytes32 id = hashOperationBatch(targets, values, datas, predecessor, salt);\n        _beforeCall(id, predecessor);\n        for (uint256 i = 0; i < targets.length; ++i) {\n            _call(id, i, targets[i], values[i], datas[i]);\n        }\n        _aftTRCall(id);\n    }\n\n    /**\n     * @dev Checks before execution of an operation's calls.\n     */\n    function _beforeCall(bytes32 id, bytes32 predecessor) private view {\n        require(isOperationReady(id), \"TimelockController: operation is not ready\");\n        require(predecessor == bytes32(0) || isOperationDone(predecessor), \"TimelockController: missing dependency\");\n    }\n\n    /**\n     * @dev Checks after execution of an operation's calls.\n     */\n    function _aftTRCall(bytes32 id) private {\n        require(isOperationReady(id), \"TimelockController: operation is not ready\");\n        _timestamps[id] = _DONE_TIMESTAMP;\n    }\n\n    /**\n     * @dev Execute an operation's call.\n     *\n     * Emits a {CallExecuted} event.\n     */\n    function _call(\n        bytes32 id,\n        uint256 index,\n        address target,\n        uint256 value,\n        bytes calldata data\n    ) private {\n        (bool success, ) = target.call{value: value}(data);\n        require(success, \"TimelockController: underlying transaction reverted\");\n\n        emit CallExecuted(id, index, target, value, data);\n    }\n\n    /**\n     * @dev Changes the minimum timelock duration for future operations.\n     *\n     * Emits a {MinDelayChange} event.\n     *\n     * Requirements:\n     *\n     * - the caller must be the timelock itself. This can only be achieved by scheduling and later executing\n     * an operation where the timelock is the target and the data is the ABI-encoded call to this function.\n     */\n    function updateDelay(uint256 newDelay) external virtual {\n        require(msg.sender == address(this), \"TimelockController: caller must be timelock\");\n        emit MinDelayChange(_minDelay, newDelay);\n        _minDelay = newDelay;\n    }\n}\n",
  "sourcePath": "/home/swatim/TRON/CUR-NFTs/contracts/@openzeppelin/contracts/governance/TimelockController.sol",
  "compiler": {
    "name": "solc",
    "version": "0.8.0+commit.7c2e6412.Emscripten.clang"
  },
  "schemaVersion": "2.0.1",
  "updatedAt": "2021-12-16T04:49:26.647Z"
}