{
  "contractName": "TRC1155Token",
  "abi": [
    {
      "inputs": [],
      "stateMutability": "nonpayable",
      "type": "constructor"
    },
    {
      "anonymous": false,
      "inputs": [
        {
          "indexed": true,
          "internalType": "address",
          "name": "account",
          "type": "address"
        },
        {
          "indexed": true,
          "internalType": "address",
          "name": "operator",
          "type": "address"
        },
        {
          "indexed": false,
          "internalType": "bool",
          "name": "approved",
          "type": "bool"
        }
      ],
      "name": "ApprovalForAll",
      "type": "event"
    },
    {
      "anonymous": false,
      "inputs": [
        {
          "indexed": true,
          "internalType": "address",
          "name": "previousOwner",
          "type": "address"
        },
        {
          "indexed": true,
          "internalType": "address",
          "name": "newOwner",
          "type": "address"
        }
      ],
      "name": "OwnershipTransferred",
      "type": "event"
    },
    {
      "anonymous": false,
      "inputs": [
        {
          "indexed": true,
          "internalType": "address",
          "name": "operator",
          "type": "address"
        },
        {
          "indexed": true,
          "internalType": "address",
          "name": "from",
          "type": "address"
        },
        {
          "indexed": true,
          "internalType": "address",
          "name": "to",
          "type": "address"
        },
        {
          "indexed": false,
          "internalType": "uint256[]",
          "name": "ids",
          "type": "uint256[]"
        },
        {
          "indexed": false,
          "internalType": "uint256[]",
          "name": "values",
          "type": "uint256[]"
        }
      ],
      "name": "TransferBatch",
      "type": "event"
    },
    {
      "anonymous": false,
      "inputs": [
        {
          "indexed": true,
          "internalType": "address",
          "name": "operator",
          "type": "address"
        },
        {
          "indexed": true,
          "internalType": "address",
          "name": "from",
          "type": "address"
        },
        {
          "indexed": true,
          "internalType": "address",
          "name": "to",
          "type": "address"
        },
        {
          "indexed": false,
          "internalType": "uint256",
          "name": "id",
          "type": "uint256"
        },
        {
          "indexed": false,
          "internalType": "uint256",
          "name": "value",
          "type": "uint256"
        }
      ],
      "name": "TransferSingle",
      "type": "event"
    },
    {
      "anonymous": false,
      "inputs": [
        {
          "indexed": false,
          "internalType": "string",
          "name": "value",
          "type": "string"
        },
        {
          "indexed": true,
          "internalType": "uint256",
          "name": "id",
          "type": "uint256"
        }
      ],
      "name": "URI",
      "type": "event"
    },
    {
      "inputs": [
        {
          "internalType": "address",
          "name": "account",
          "type": "address"
        },
        {
          "internalType": "uint256",
          "name": "id",
          "type": "uint256"
        }
      ],
      "name": "balanceOf",
      "outputs": [
        {
          "internalType": "uint256",
          "name": "",
          "type": "uint256"
        }
      ],
      "stateMutability": "view",
      "type": "function"
    },
    {
      "inputs": [
        {
          "internalType": "address[]",
          "name": "accounts",
          "type": "address[]"
        },
        {
          "internalType": "uint256[]",
          "name": "ids",
          "type": "uint256[]"
        }
      ],
      "name": "balanceOfBatch",
      "outputs": [
        {
          "internalType": "uint256[]",
          "name": "",
          "type": "uint256[]"
        }
      ],
      "stateMutability": "view",
      "type": "function"
    },
    {
      "inputs": [
        {
          "internalType": "string",
          "name": "_url",
          "type": "string"
        },
        {
          "internalType": "uint256",
          "name": "_amount",
          "type": "uint256"
        }
      ],
      "name": "createNft",
      "outputs": [
        {
          "internalType": "uint256",
          "name": "",
          "type": "uint256"
        }
      ],
      "stateMutability": "nonpayable",
      "type": "function"
    },
    {
      "inputs": [
        {
          "internalType": "address",
          "name": "account",
          "type": "address"
        },
        {
          "internalType": "address",
          "name": "operator",
          "type": "address"
        }
      ],
      "name": "isApprovedForAll",
      "outputs": [
        {
          "internalType": "bool",
          "name": "",
          "type": "bool"
        }
      ],
      "stateMutability": "view",
      "type": "function"
    },
    {
      "inputs": [],
      "name": "owner",
      "outputs": [
        {
          "internalType": "address",
          "name": "",
          "type": "address"
        }
      ],
      "stateMutability": "view",
      "type": "function"
    },
    {
      "inputs": [],
      "name": "renounceOwnership",
      "outputs": [],
      "stateMutability": "nonpayable",
      "type": "function"
    },
    {
      "inputs": [
        {
          "internalType": "address",
          "name": "from",
          "type": "address"
        },
        {
          "internalType": "address",
          "name": "to",
          "type": "address"
        },
        {
          "internalType": "uint256[]",
          "name": "ids",
          "type": "uint256[]"
        },
        {
          "internalType": "uint256[]",
          "name": "amounts",
          "type": "uint256[]"
        },
        {
          "internalType": "bytes",
          "name": "data",
          "type": "bytes"
        }
      ],
      "name": "safeBatchTransferFrom",
      "outputs": [],
      "stateMutability": "nonpayable",
      "type": "function"
    },
    {
      "inputs": [
        {
          "internalType": "address",
          "name": "from",
          "type": "address"
        },
        {
          "internalType": "address",
          "name": "to",
          "type": "address"
        },
        {
          "internalType": "uint256",
          "name": "id",
          "type": "uint256"
        },
        {
          "internalType": "uint256",
          "name": "amount",
          "type": "uint256"
        },
        {
          "internalType": "bytes",
          "name": "data",
          "type": "bytes"
        }
      ],
      "name": "safeTransferFrom",
      "outputs": [],
      "stateMutability": "nonpayable",
      "type": "function"
    },
    {
      "inputs": [
        {
          "internalType": "address",
          "name": "operator",
          "type": "address"
        },
        {
          "internalType": "bool",
          "name": "approved",
          "type": "bool"
        }
      ],
      "name": "setApprovalForAll",
      "outputs": [],
      "stateMutability": "nonpayable",
      "type": "function"
    },
    {
      "inputs": [
        {
          "internalType": "bytes4",
          "name": "interfaceId",
          "type": "bytes4"
        }
      ],
      "name": "supportsInterface",
      "outputs": [
        {
          "internalType": "bool",
          "name": "",
          "type": "bool"
        }
      ],
      "stateMutability": "view",
      "type": "function"
    },
    {
      "inputs": [],
      "name": "tokenCounter",
      "outputs": [
        {
          "internalType": "uint256",
          "name": "",
          "type": "uint256"
        }
      ],
      "stateMutability": "view",
      "type": "function"
    },
    {
      "inputs": [
        {
          "internalType": "address",
          "name": "newOwner",
          "type": "address"
        }
      ],
      "name": "transferOwnership",
      "outputs": [],
      "stateMutability": "nonpayable",
      "type": "function"
    },
    {
      "inputs": [
        {
          "internalType": "uint256",
          "name": "",
          "type": "uint256"
        }
      ],
      "name": "uri",
      "outputs": [
        {
          "internalType": "string",
          "name": "",
          "type": "string"
        }
      ],
      "stateMutability": "view",
      "type": "function"
    }
  ],
  "bytecode": "0x60806040523480156200001157600080fd5b50d380156200001f57600080fd5b50d280156200002d57600080fd5b50604080516020810190915260008152620000488162000068565b506200005d6200005762000081565b62000085565b6001600455620001ba565b80516200007d906002906020840190620000d7565b5050565b3390565b600380546001600160a01b038381166001600160a01b0319831681179093556040519116919082907f8be0079c531659141344cd1fd0a4f28419497f9722a3daafe3b4186f6b6457e090600090a35050565b828054620000e5906200017d565b90600052602060002090601f01602090048101928262000109576000855562000154565b82601f106200012457805160ff191683800117855562000154565b8280016001018555821562000154579182015b828111156200015457825182559160200191906001019062000137565b506200016292915062000166565b5090565b5b8082111562000162576000815560010162000167565b6002810460018216806200019257607f821691505b60208210811415620001b457634e487b7160e01b600052602260045260246000fd5b50919050565b6119d380620001ca6000396000f3fe608060405234801561001057600080fd5b50d3801561001d57600080fd5b50d2801561002a57600080fd5b50600436106100e85760003560e01c8063715018a6116100a6578063d082e38111610080578063d082e381146101ce578063e985e9c5146101d6578063f242432a146101e9578063f2fde38b146101fc576100e8565b8063715018a61461019e5780638da5cb5b146101a6578063a22cb465146101bb576100e8565b8062fdd58e146100ed57806301ffc9a7146101165780630e89341c146101365780632eb2c2d6146101565780633e73720c1461016b5780634e1273f41461017e575b600080fd5b6101006100fb36600461110e565b61020f565b60405161010d91906117dd565b60405180910390f35b6101296101243660046111f5565b610266565b60405161010d9190611418565b610149610144366004611283565b6102ac565b60405161010d9190611423565b610169610164366004610fcb565b610340565b005b61010061017936600461122d565b61039e565b61019161018c366004611137565b6103ea565b60405161010d91906113d7565b61016961050a565b6101ae610555565b60405161010d9190611320565b6101696101c93660046110d4565b610565565b610100610633565b6101296101e4366004610f99565b610639565b6101696101f7366004611071565b610667565b61016961020a366004610f7f565b6106be565b60006001600160a01b0383166102405760405162461bcd60e51b8152600401610237906116b0565b60405180910390fd5b506000908152602081815260408083206001600160a01b03949094168352929052205490565b60006001600160e01b03198216636cdb3d1360e11b148061029757506001600160e01b031982166303a24d0760e21b145b806102a657506102a68261072f565b92915050565b6060600280546102bb9061185a565b80601f01602080910402602001604051908101604052809291908181526020018280546102e79061185a565b80156103345780601f1061030957610100808354040283529160200191610334565b820191906000526020600020905b81548152906001019060200180831161031757829003601f168201915b50505050509050919050565b610348610748565b6001600160a01b0316856001600160a01b0316148061036e575061036e856101e4610748565b61038a5760405162461bcd60e51b815260040161023790611436565b610397858585858561074c565b5050505050565b60006004546005819055506103c633600554846040518060200160405280600081525061091d565b6103cf83610a0c565b6004546103dd906001611842565b6004555060055492915050565b6060815183511461040d5760405162461bcd60e51b8152600401610237906115ea565b6000835167ffffffffffffffff81111561043757634e487b7160e01b600052604160045260246000fd5b604051908082528060200260200182016040528015610460578160200160208202803683370190505b50905060005b8451811015610502576104c785828151811061049257634e487b7160e01b600052603260045260246000fd5b60200260200101518583815181106104ba57634e487b7160e01b600052603260045260246000fd5b602002602001015161020f565b8282815181106104e757634e487b7160e01b600052603260045260246000fd5b60209081029190910101526104fb81611895565b9050610466565b509392505050565b610512610748565b6001600160a01b0316610523610555565b6001600160a01b0316146105495760405162461bcd60e51b815260040161023790611633565b6105536000610a23565b565b6003546001600160a01b03165b90565b816001600160a01b0316610577610748565b6001600160a01b0316141561059e5760405162461bcd60e51b8152600401610237906116fb565b80600160006105ab610748565b6001600160a01b03908116825260208083019390935260409182016000908120918716808252919093529120805460ff1916921515929092179091556105ef610748565b6001600160a01b03167f17307eab39ab6107e8899845ad3d59bd9653f200f220920489ca2b5937696c31836040516106279190611418565b60405180910390a35050565b60045481565b6001600160a01b03918216600090815260016020908152604080832093909416825291909152205460ff1690565b61066f610748565b6001600160a01b0316856001600160a01b031614806106955750610695856101e4610748565b6106b15760405162461bcd60e51b815260040161023790611488565b6103978585858585610a75565b6106c6610748565b6001600160a01b03166106d7610555565b6001600160a01b0316146106fd5760405162461bcd60e51b815260040161023790611633565b6001600160a01b0381166107235760405162461bcd60e51b8152600401610237906114d1565b61072c81610a23565b50565b6001600160e01b031981166301ffc9a760e01b14919050565b3390565b815183511461076d5760405162461bcd60e51b815260040161023790611668565b6001600160a01b0384166107935760405162461bcd60e51b815260040161023790611798565b600061079d610748565b90506107ad818787878787610915565b60005b84518110156108af5760008582815181106107db57634e487b7160e01b600052603260045260246000fd5b60200260200101519050600085838151811061080757634e487b7160e01b600052603260045260246000fd5b602090810291909101810151600084815280835260408082206001600160a01b038e1683529093529190912054909150818110156108575760405162461bcd60e51b815260040161023790611558565b6000838152602081815260408083206001600160a01b038e8116855292528083208585039055908b16825281208054849290610894908490611842565b92505081905550505050806108a890611895565b90506107b0565b50846001600160a01b0316866001600160a01b0316826001600160a01b03167f4a39dc06d4c0dbc64b70af90fd698a233a518aa5d07e595d983b8c0526c8f7fb87876040516108ff9291906113ea565b60405180910390a4610915818787878787610ba9565b505050505050565b6001600160a01b0384166109435760405162461bcd60e51b815260040161023790611517565b600061094d610748565b905061096e8160008761095f88610cae565b61096888610cae565b87610915565b6000848152602081815260408083206001600160a01b03891684529091528120805485929061099e908490611842565b92505081905550846001600160a01b031660006001600160a01b0316826001600160a01b03167fc3d58168c5ae7397731d063d5bbf3d657854427343f4c083240f7aacaa2d0f6287876040516109f59291906117e6565b60405180910390a461039781600087878787610d07565b8051610a1f906002906020840190610dd5565b5050565b600380546001600160a01b038381166001600160a01b0319831681179093556040519116919082907f8be0079c531659141344cd1fd0a4f28419497f9722a3daafe3b4186f6b6457e090600090a35050565b6001600160a01b038416610a9b5760405162461bcd60e51b815260040161023790611798565b6000610aa5610748565b9050610ab681878761095f88610cae565b6000848152602081815260408083206001600160a01b038a16845290915290205483811015610af75760405162461bcd60e51b815260040161023790611558565b6000858152602081815260408083206001600160a01b038b8116855292528083208785039055908816825281208054869290610b34908490611842565b92505081905550856001600160a01b0316876001600160a01b0316836001600160a01b03167fc3d58168c5ae7397731d063d5bbf3d657854427343f4c083240f7aacaa2d0f628888604051610b8a9291906117e6565b60405180910390a4610ba0828888888888610d07565b50505050505050565b610bb284610dcf565b15610915576040516383638d0b60e01b81526001600160a01b038516906383638d0b90610beb9089908990889088908890600401611334565b602060405180830381600087803b158015610c0557600080fd5b505af1925050508015610c35575060408051601f3d908101601f19168201909252610c3291810190611211565b60015b610c7e57610c416118e2565b80610c4c5750610c66565b8060405162461bcd60e51b81526004016102379190611423565b60405162461bcd60e51b815260040161023790611744565b6001600160e01b031981166383638d0b60e01b14610ba05760405162461bcd60e51b8152600401610237906115a2565b60408051600180825281830190925260609160009190602080830190803683370190505090508281600081518110610cf657634e487b7160e01b600052603260045260246000fd5b602090810291909101015292915050565b610d1084610dcf565b15610915576040516394a9db1560e01b81526001600160a01b038516906394a9db1590610d499089908990889088908890600401611392565b602060405180830381600087803b158015610d6357600080fd5b505af1925050508015610d93575060408051601f3d908101601f19168201909252610d9091810190611211565b60015b610d9f57610c416118e2565b6001600160e01b031981166394a9db1560e01b14610ba05760405162461bcd60e51b8152600401610237906115a2565b3b151590565b828054610de19061185a565b90600052602060002090601f016020900481019282610e035760008555610e49565b82601f10610e1c57805160ff1916838001178555610e49565b82800160010185558215610e49579182015b82811115610e49578251825591602001919060010190610e2e565b50610e55929150610e59565b5090565b5b80821115610e555760008155600101610e5a565b600067ffffffffffffffff831115610e8857610e886118c6565b610e9b601f8401601f19166020016117f4565b9050828152838383011115610eaf57600080fd5b828260208301376000602084830101529392505050565b600081356001600160a81b0381168114610ede578182fd5b6001600160a01b031692915050565b600082601f830112610efd578081fd5b81356020610f12610f0d8361181e565b6117f4565b8281528181019085830183850287018401881015610f2e578586fd5b855b85811015610f4c57813584529284019290840190600101610f30565b5090979650505050505050565b600082601f830112610f69578081fd5b610f7883833560208501610e6e565b9392505050565b600060208284031215610f90578081fd5b610f7882610ec6565b60008060408385031215610fab578081fd5b610fb483610ec6565b9150610fc260208401610ec6565b90509250929050565b600080600080600060a08688031215610fe2578081fd5b610feb86610ec6565b9450610ff960208701610ec6565b9350604086013567ffffffffffffffff80821115611015578283fd5b61102189838a01610eed565b94506060880135915080821115611036578283fd5b61104289838a01610eed565b93506080880135915080821115611057578283fd5b5061106488828901610f59565b9150509295509295909350565b600080600080600060a08688031215611088578081fd5b61109186610ec6565b945061109f60208701610ec6565b93506040860135925060608601359150608086013567ffffffffffffffff8111156110c8578182fd5b61106488828901610f59565b600080604083850312156110e6578182fd5b6110ef83610ec6565b915060208301358015158114611103578182fd5b809150509250929050565b60008060408385031215611120578182fd5b61112983610ec6565b946020939093013593505050565b60008060408385031215611149578182fd5b823567ffffffffffffffff80821115611160578384fd5b818501915085601f830112611173578384fd5b81356020611183610f0d8361181e565b82815281810190858301838502870184018b101561119f578889fd5b8896505b848710156111c8576111b481610ec6565b8352600196909601959183019183016111a3565b50965050860135925050808211156111de578283fd5b506111eb85828601610eed565b9150509250929050565b600060208284031215611206578081fd5b8135610f7881611987565b600060208284031215611222578081fd5b8151610f7881611987565b6000806040838503121561123f578182fd5b823567ffffffffffffffff811115611255578283fd5b8301601f81018513611265578283fd5b61127485823560208401610e6e565b95602094909401359450505050565b600060208284031215611294578081fd5b5035919050565b6000815180845260208085019450808401835b838110156112ca578151875295820195908201906001016112ae565b509495945050505050565b60008151808452815b818110156112fa576020818501810151868301820152016112de565b8181111561130b5782602083870101525b50601f01601f19169290920160200192915050565b6001600160a01b0391909116815260200190565b6001600160a01b0386811682528516602082015260a0604082018190526000906113609083018661129b565b8281036060840152611372818661129b565b9050828103608084015261138681856112d5565b98975050505050505050565b6001600160a01b03868116825285166020820152604081018490526060810183905260a0608082018190526000906113cc908301846112d5565b979650505050505050565b600060208252610f78602083018461129b565b6000604082526113fd604083018561129b565b828103602084015261140f818561129b565b95945050505050565b901515815260200190565b600060208252610f7860208301846112d5565b60208082526032908201527f545243313135353a207472616e736665722063616c6c6572206973206e6f74206040820152711bdddb995c881b9bdc88185c1c1c9bdd995960721b606082015260800190565b60208082526029908201527f545243313135353a2063616c6c6572206973206e6f74206f776e6572206e6f7260408201526808185c1c1c9bdd995960ba1b606082015260800190565b60208082526026908201527f4f776e61626c653a206e6577206f776e657220697320746865207a65726f206160408201526564647265737360d01b606082015260800190565b60208082526021908201527f545243313135353a206d696e7420746f20746865207a65726f206164647265736040820152607360f81b606082015260800190565b6020808252602a908201527f545243313135353a20696e73756666696369656e742062616c616e636520666f60408201526939103a3930b739b332b960b11b606082015260800190565b60208082526028908201527f545243313135353a205452433131353552656365697665722072656a656374656040820152676420746f6b656e7360c01b606082015260800190565b60208082526029908201527f545243313135353a206163636f756e747320616e6420696473206c656e677468604082015268040dad2e6dac2e8c6d60bb1b606082015260800190565b6020808252818101527f4f776e61626c653a2063616c6c6572206973206e6f7420746865206f776e6572604082015260600190565b60208082526028908201527f545243313135353a2069647320616e6420616d6f756e7473206c656e677468206040820152670dad2e6dac2e8c6d60c31b606082015260800190565b6020808252602b908201527f545243313135353a2062616c616e636520717565727920666f7220746865207a60408201526a65726f206164647265737360a81b606082015260800190565b60208082526029908201527f545243313135353a2073657474696e6720617070726f76616c20737461747573604082015268103337b91039b2b63360b91b606082015260800190565b60208082526034908201527f545243313135353a207472616e7366657220746f206e6f6e20545243313135356040820152732932b1b2b4bb32b91034b6b83632b6b2b73a32b960611b606082015260800190565b60208082526025908201527f545243313135353a207472616e7366657220746f20746865207a65726f206164604082015264647265737360d81b606082015260800190565b90815260200190565b918252602082015260400190565b60405181810167ffffffffffffffff81118282101715611816576118166118c6565b604052919050565b600067ffffffffffffffff821115611838576118386118c6565b5060209081020190565b60008219821115611855576118556118b0565b500190565b60028104600182168061186e57607f821691505b6020821081141561188f57634e487b7160e01b600052602260045260246000fd5b50919050565b60006000198214156118a9576118a96118b0565b5060010190565b634e487b7160e01b600052601160045260246000fd5b634e487b7160e01b600052604160045260246000fd5b60e01c90565b600060443d10156118f257610562565b600481823e6308c379a061190682516118dc565b1461191057610562565b6040513d600319016004823e80513d67ffffffffffffffff81602484011181841117156119405750505050610562565b8284019250825191508082111561195a5750505050610562565b503d8301602082840101111561197257505050610562565b601f01601f1916810160200160405291505090565b6001600160e01b03198116811461072c57600080fdfea26469706673582212208569de29a64bb6e5b71a83e30ae97b6aa95e99c4d525f31fc3920f4e4ef4a73264736f6c63430008000033",
  "source": "// SPDX-License-Identifier: MIT\npragma solidity ^0.8.0;\n\nimport \"./@openzeppelin/contracts/token/TRC1155/TRC1155.sol\";\nimport \"./@openzeppelin/contracts/access/Ownable.sol\";\n\ncontract TRC1155Token is TRC1155, Ownable {\n    uint256 public tokenCounter;\n    uint private newItem;\n    constructor() TRC1155(\"\"){\n        tokenCounter = 1;\n    }\n\n    function createNft(string memory _url, uint256 _amount) public returns(uint256){\n        newItem = tokenCounter;\n        _mint(msg.sender, newItem, _amount, \"\");\n        _setURI(_url);\n        tokenCounter = tokenCounter + 1;\n        return newItem;\n    }\n}",
  "sourcePath": "/home/swatim/TRON/CUR-NFTs/contracts/TRC1155.sol",
  "compiler": {
    "name": "solc",
    "version": "0.8.0+commit.7c2e6412.Emscripten.clang"
  },
  "schemaVersion": "2.0.1",
  "updatedAt": "2021-12-16T04:49:26.556Z"
}