{
  "contractName": "TRC1820Implementer",
  "abi": [
    {
      "inputs": [
        {
          "internalType": "bytes32",
          "name": "interfaceHash",
          "type": "bytes32"
        },
        {
          "internalType": "address",
          "name": "account",
          "type": "address"
        }
      ],
      "name": "canImplementInterfaceForAddress",
      "outputs": [
        {
          "internalType": "bytes32",
          "name": "",
          "type": "bytes32"
        }
      ],
      "stateMutability": "view",
      "type": "function"
    }
  ],
  "bytecode": "0x608060405234801561001057600080fd5b50d3801561001d57600080fd5b50d2801561002a57600080fd5b5061014e8061003a6000396000f3fe608060405234801561001057600080fd5b50d3801561001d57600080fd5b50d2801561002a57600080fd5b50600436106100455760003560e01c8063249cb3fa1461004a575b600080fd5b61005d6100583660046100cb565b610073565b60405161006a919061010f565b60405180910390f35b6000828152602081815260408083206001600160a01b038516845290915281205460ff166100a25760006100c4565b7f519bdc087d3769d680cc308cabd6fb5655ca293158bf5d6cc485206559b105f45b9392505050565b600080604083850312156100dd578182fd5b8235915060208301356001600160a81b03811681146100fa578182fd5b91946001600160a01b03909216935090915050565b9081526020019056fea2646970667358221220f13764b2fc933edccec6b1bca63fb431ab3cc22e74141a09d8f047eea8ededd264736f6c63430008000033",
  "source": "// SPDX-License-Identifier: MIT\n\npragma solidity ^0.8.0;\n\nimport \"./ITRC1820Implementer.sol\";\n\n/**\n * @dev Implementation of the {ITRC1820Implementer} interface.\n *\n * Contracts may inherit from this and call {_registerInterfaceForAddress} to\n * declare their willingness to be implementers.\n * {ITRC1820Registry-setInterfaceImplementer} should then be called for the\n * registration to be complete.\n */\ncontract TRC1820Implementer is ITRC1820Implementer {\n    bytes32 private constant _TRC1820_ACCEPT_MAGIC = keccak256(\"TRC1820_ACCEPT_MAGIC\");\n\n    mapping(bytes32 => mapping(address => bool)) private _supportedInterfaces;\n\n    /**\n     * @dev See {ITRC1820Implementer-canImplementInterfaceForAddress}.\n     */\n    function canImplementInterfaceForAddress(bytes32 interfaceHash, address account)\n        public\n        view\n        virtual\n        override\n        returns (bytes32)\n    {\n        return _supportedInterfaces[interfaceHash][account] ? _TRC1820_ACCEPT_MAGIC : bytes32(0x00);\n    }\n\n    /**\n     * @dev Declares the contract as willing to be an implementer of\n     * `interfaceHash` for `account`.\n     *\n     * See {ITRC1820Registry-setInterfaceImplementer} and\n     * {ITRC1820Registry-interfaceHash}.\n     */\n    function _registerInterfaceForAddress(bytes32 interfaceHash, address account) internal virtual {\n        _supportedInterfaces[interfaceHash][account] = true;\n    }\n}\n",
  "sourcePath": "/home/swatim/TRON/CUR-NFTs/contracts/@openzeppelin/contracts/utils/introspection/TRC1820Implementer.sol",
  "compiler": {
    "name": "solc",
    "version": "0.8.0+commit.7c2e6412.Emscripten.clang"
  },
  "schemaVersion": "2.0.1",
  "updatedAt": "2021-12-16T04:49:26.524Z"
}