{
  "contractName": "TRC1155PresetMinterPauser",
  "abi": [
    {
      "inputs": [
        {
          "internalType": "string",
          "name": "uri",
          "type": "string"
        }
      ],
      "stateMutability": "nonpayable",
      "type": "constructor"
    },
    {
      "anonymous": false,
      "inputs": [
        {
          "indexed": true,
          "internalType": "address",
          "name": "account",
          "type": "address"
        },
        {
          "indexed": true,
          "internalType": "address",
          "name": "operator",
          "type": "address"
        },
        {
          "indexed": false,
          "internalType": "bool",
          "name": "approved",
          "type": "bool"
        }
      ],
      "name": "ApprovalForAll",
      "type": "event"
    },
    {
      "anonymous": false,
      "inputs": [
        {
          "indexed": false,
          "internalType": "address",
          "name": "account",
          "type": "address"
        }
      ],
      "name": "Paused",
      "type": "event"
    },
    {
      "anonymous": false,
      "inputs": [
        {
          "indexed": true,
          "internalType": "bytes32",
          "name": "role",
          "type": "bytes32"
        },
        {
          "indexed": true,
          "internalType": "bytes32",
          "name": "previousAdminRole",
          "type": "bytes32"
        },
        {
          "indexed": true,
          "internalType": "bytes32",
          "name": "newAdminRole",
          "type": "bytes32"
        }
      ],
      "name": "RoleAdminChanged",
      "type": "event"
    },
    {
      "anonymous": false,
      "inputs": [
        {
          "indexed": true,
          "internalType": "bytes32",
          "name": "role",
          "type": "bytes32"
        },
        {
          "indexed": true,
          "internalType": "address",
          "name": "account",
          "type": "address"
        },
        {
          "indexed": true,
          "internalType": "address",
          "name": "sender",
          "type": "address"
        }
      ],
      "name": "RoleGranted",
      "type": "event"
    },
    {
      "anonymous": false,
      "inputs": [
        {
          "indexed": true,
          "internalType": "bytes32",
          "name": "role",
          "type": "bytes32"
        },
        {
          "indexed": true,
          "internalType": "address",
          "name": "account",
          "type": "address"
        },
        {
          "indexed": true,
          "internalType": "address",
          "name": "sender",
          "type": "address"
        }
      ],
      "name": "RoleRevoked",
      "type": "event"
    },
    {
      "anonymous": false,
      "inputs": [
        {
          "indexed": true,
          "internalType": "address",
          "name": "operator",
          "type": "address"
        },
        {
          "indexed": true,
          "internalType": "address",
          "name": "from",
          "type": "address"
        },
        {
          "indexed": true,
          "internalType": "address",
          "name": "to",
          "type": "address"
        },
        {
          "indexed": false,
          "internalType": "uint256[]",
          "name": "ids",
          "type": "uint256[]"
        },
        {
          "indexed": false,
          "internalType": "uint256[]",
          "name": "values",
          "type": "uint256[]"
        }
      ],
      "name": "TransferBatch",
      "type": "event"
    },
    {
      "anonymous": false,
      "inputs": [
        {
          "indexed": true,
          "internalType": "address",
          "name": "operator",
          "type": "address"
        },
        {
          "indexed": true,
          "internalType": "address",
          "name": "from",
          "type": "address"
        },
        {
          "indexed": true,
          "internalType": "address",
          "name": "to",
          "type": "address"
        },
        {
          "indexed": false,
          "internalType": "uint256",
          "name": "id",
          "type": "uint256"
        },
        {
          "indexed": false,
          "internalType": "uint256",
          "name": "value",
          "type": "uint256"
        }
      ],
      "name": "TransferSingle",
      "type": "event"
    },
    {
      "anonymous": false,
      "inputs": [
        {
          "indexed": false,
          "internalType": "string",
          "name": "value",
          "type": "string"
        },
        {
          "indexed": true,
          "internalType": "uint256",
          "name": "id",
          "type": "uint256"
        }
      ],
      "name": "URI",
      "type": "event"
    },
    {
      "anonymous": false,
      "inputs": [
        {
          "indexed": false,
          "internalType": "address",
          "name": "account",
          "type": "address"
        }
      ],
      "name": "Unpaused",
      "type": "event"
    },
    {
      "inputs": [],
      "name": "DEFAULT_ADMIN_ROLE",
      "outputs": [
        {
          "internalType": "bytes32",
          "name": "",
          "type": "bytes32"
        }
      ],
      "stateMutability": "view",
      "type": "function"
    },
    {
      "inputs": [],
      "name": "MINTER_ROLE",
      "outputs": [
        {
          "internalType": "bytes32",
          "name": "",
          "type": "bytes32"
        }
      ],
      "stateMutability": "view",
      "type": "function"
    },
    {
      "inputs": [],
      "name": "PAUSER_ROLE",
      "outputs": [
        {
          "internalType": "bytes32",
          "name": "",
          "type": "bytes32"
        }
      ],
      "stateMutability": "view",
      "type": "function"
    },
    {
      "inputs": [
        {
          "internalType": "address",
          "name": "account",
          "type": "address"
        },
        {
          "internalType": "uint256",
          "name": "id",
          "type": "uint256"
        }
      ],
      "name": "balanceOf",
      "outputs": [
        {
          "internalType": "uint256",
          "name": "",
          "type": "uint256"
        }
      ],
      "stateMutability": "view",
      "type": "function"
    },
    {
      "inputs": [
        {
          "internalType": "address[]",
          "name": "accounts",
          "type": "address[]"
        },
        {
          "internalType": "uint256[]",
          "name": "ids",
          "type": "uint256[]"
        }
      ],
      "name": "balanceOfBatch",
      "outputs": [
        {
          "internalType": "uint256[]",
          "name": "",
          "type": "uint256[]"
        }
      ],
      "stateMutability": "view",
      "type": "function"
    },
    {
      "inputs": [
        {
          "internalType": "address",
          "name": "account",
          "type": "address"
        },
        {
          "internalType": "uint256",
          "name": "id",
          "type": "uint256"
        },
        {
          "internalType": "uint256",
          "name": "value",
          "type": "uint256"
        }
      ],
      "name": "burn",
      "outputs": [],
      "stateMutability": "nonpayable",
      "type": "function"
    },
    {
      "inputs": [
        {
          "internalType": "address",
          "name": "account",
          "type": "address"
        },
        {
          "internalType": "uint256[]",
          "name": "ids",
          "type": "uint256[]"
        },
        {
          "internalType": "uint256[]",
          "name": "values",
          "type": "uint256[]"
        }
      ],
      "name": "burnBatch",
      "outputs": [],
      "stateMutability": "nonpayable",
      "type": "function"
    },
    {
      "inputs": [
        {
          "internalType": "bytes32",
          "name": "role",
          "type": "bytes32"
        }
      ],
      "name": "getRoleAdmin",
      "outputs": [
        {
          "internalType": "bytes32",
          "name": "",
          "type": "bytes32"
        }
      ],
      "stateMutability": "view",
      "type": "function"
    },
    {
      "inputs": [
        {
          "internalType": "bytes32",
          "name": "role",
          "type": "bytes32"
        }
      ],
      "name": "getRoleMembTRCount",
      "outputs": [
        {
          "internalType": "uint256",
          "name": "",
          "type": "uint256"
        }
      ],
      "stateMutability": "view",
      "type": "function"
    },
    {
      "inputs": [
        {
          "internalType": "bytes32",
          "name": "role",
          "type": "bytes32"
        },
        {
          "internalType": "uint256",
          "name": "index",
          "type": "uint256"
        }
      ],
      "name": "getRoleMember",
      "outputs": [
        {
          "internalType": "address",
          "name": "",
          "type": "address"
        }
      ],
      "stateMutability": "view",
      "type": "function"
    },
    {
      "inputs": [
        {
          "internalType": "bytes32",
          "name": "role",
          "type": "bytes32"
        },
        {
          "internalType": "address",
          "name": "account",
          "type": "address"
        }
      ],
      "name": "grantRole",
      "outputs": [],
      "stateMutability": "nonpayable",
      "type": "function"
    },
    {
      "inputs": [
        {
          "internalType": "bytes32",
          "name": "role",
          "type": "bytes32"
        },
        {
          "internalType": "address",
          "name": "account",
          "type": "address"
        }
      ],
      "name": "hasRole",
      "outputs": [
        {
          "internalType": "bool",
          "name": "",
          "type": "bool"
        }
      ],
      "stateMutability": "view",
      "type": "function"
    },
    {
      "inputs": [
        {
          "internalType": "address",
          "name": "account",
          "type": "address"
        },
        {
          "internalType": "address",
          "name": "operator",
          "type": "address"
        }
      ],
      "name": "isApprovedForAll",
      "outputs": [
        {
          "internalType": "bool",
          "name": "",
          "type": "bool"
        }
      ],
      "stateMutability": "view",
      "type": "function"
    },
    {
      "inputs": [
        {
          "internalType": "address",
          "name": "to",
          "type": "address"
        },
        {
          "internalType": "uint256",
          "name": "id",
          "type": "uint256"
        },
        {
          "internalType": "uint256",
          "name": "amount",
          "type": "uint256"
        },
        {
          "internalType": "bytes",
          "name": "data",
          "type": "bytes"
        }
      ],
      "name": "mint",
      "outputs": [],
      "stateMutability": "nonpayable",
      "type": "function"
    },
    {
      "inputs": [
        {
          "internalType": "address",
          "name": "to",
          "type": "address"
        },
        {
          "internalType": "uint256[]",
          "name": "ids",
          "type": "uint256[]"
        },
        {
          "internalType": "uint256[]",
          "name": "amounts",
          "type": "uint256[]"
        },
        {
          "internalType": "bytes",
          "name": "data",
          "type": "bytes"
        }
      ],
      "name": "mintBatch",
      "outputs": [],
      "stateMutability": "nonpayable",
      "type": "function"
    },
    {
      "inputs": [],
      "name": "pause",
      "outputs": [],
      "stateMutability": "nonpayable",
      "type": "function"
    },
    {
      "inputs": [],
      "name": "paused",
      "outputs": [
        {
          "internalType": "bool",
          "name": "",
          "type": "bool"
        }
      ],
      "stateMutability": "view",
      "type": "function"
    },
    {
      "inputs": [
        {
          "internalType": "bytes32",
          "name": "role",
          "type": "bytes32"
        },
        {
          "internalType": "address",
          "name": "account",
          "type": "address"
        }
      ],
      "name": "renounceRole",
      "outputs": [],
      "stateMutability": "nonpayable",
      "type": "function"
    },
    {
      "inputs": [
        {
          "internalType": "bytes32",
          "name": "role",
          "type": "bytes32"
        },
        {
          "internalType": "address",
          "name": "account",
          "type": "address"
        }
      ],
      "name": "revokeRole",
      "outputs": [],
      "stateMutability": "nonpayable",
      "type": "function"
    },
    {
      "inputs": [
        {
          "internalType": "address",
          "name": "from",
          "type": "address"
        },
        {
          "internalType": "address",
          "name": "to",
          "type": "address"
        },
        {
          "internalType": "uint256[]",
          "name": "ids",
          "type": "uint256[]"
        },
        {
          "internalType": "uint256[]",
          "name": "amounts",
          "type": "uint256[]"
        },
        {
          "internalType": "bytes",
          "name": "data",
          "type": "bytes"
        }
      ],
      "name": "safeBatchTransferFrom",
      "outputs": [],
      "stateMutability": "nonpayable",
      "type": "function"
    },
    {
      "inputs": [
        {
          "internalType": "address",
          "name": "from",
          "type": "address"
        },
        {
          "internalType": "address",
          "name": "to",
          "type": "address"
        },
        {
          "internalType": "uint256",
          "name": "id",
          "type": "uint256"
        },
        {
          "internalType": "uint256",
          "name": "amount",
          "type": "uint256"
        },
        {
          "internalType": "bytes",
          "name": "data",
          "type": "bytes"
        }
      ],
      "name": "safeTransferFrom",
      "outputs": [],
      "stateMutability": "nonpayable",
      "type": "function"
    },
    {
      "inputs": [
        {
          "internalType": "address",
          "name": "operator",
          "type": "address"
        },
        {
          "internalType": "bool",
          "name": "approved",
          "type": "bool"
        }
      ],
      "name": "setApprovalForAll",
      "outputs": [],
      "stateMutability": "nonpayable",
      "type": "function"
    },
    {
      "inputs": [
        {
          "internalType": "bytes4",
          "name": "interfaceId",
          "type": "bytes4"
        }
      ],
      "name": "supportsInterface",
      "outputs": [
        {
          "internalType": "bool",
          "name": "",
          "type": "bool"
        }
      ],
      "stateMutability": "view",
      "type": "function"
    },
    {
      "inputs": [],
      "name": "unpause",
      "outputs": [],
      "stateMutability": "nonpayable",
      "type": "function"
    },
    {
      "inputs": [
        {
          "internalType": "uint256",
          "name": "",
          "type": "uint256"
        }
      ],
      "name": "uri",
      "outputs": [
        {
          "internalType": "string",
          "name": "",
          "type": "string"
        }
      ],
      "stateMutability": "view",
      "type": "function"
    }
  ],
  "bytecode": "0x60806040523480156200001157600080fd5b50d380156200001f57600080fd5b50d280156200002d57600080fd5b50604051620030573803806200305783398101604081905262000050916200032e565b806200005c81620000e2565b506005805460ff191690556200007d600062000077620000fb565b620000ff565b620000ac7f9f2df0fed2c77648de5860a4cc508cd0818c85b8b8a1ab4ceeef8d981c8956a662000077620000fb565b620000db7f65d7a28e3265b37a6474929f336521b332c1681b933f6cb9f3376673440d862a62000077620000fb565b5062000450565b8051620000f790600490602084019062000288565b5050565b3390565b6200011682826200014260201b62000a5a1760201c565b60008281526001602090815260409091206200013d91839062000a686200014e821b17901c565b505050565b620000f782826200016e565b600062000165836001600160a01b038416620001f8565b90505b92915050565b6200017a828262000247565b620000f7576000828152602081815260408083206001600160a01b03851684529091529020805460ff19166001179055620001b4620000fb565b6001600160a01b0316816001600160a01b0316837f2f8788117e7eff1d82e926ec794901d17c78024a50270940304540a733656f0d60405160405180910390a45050565b600062000206838362000270565b6200023e5750815460018181018455600084815260208082209093018490558454848252828601909352604090209190915562000168565b50600062000168565b6000918252602082815260408084206001600160a01b0393909316845291905290205460ff1690565b60009081526001919091016020526040902054151590565b8280546200029690620003fd565b90600052602060002090601f016020900481019282620002ba576000855562000305565b82601f10620002d557805160ff191683800117855562000305565b8280016001018555821562000305579182015b8281111562000305578251825591602001919060010190620002e8565b506200031392915062000317565b5090565b5b8082111562000313576000815560010162000318565b6000602080838503121562000341578182fd5b82516001600160401b038082111562000358578384fd5b818501915085601f8301126200036c578384fd5b8151818111156200038157620003816200043a565b604051601f8201601f1916810185018381118282101715620003a757620003a76200043a565b6040528181528382018501881015620003be578586fd5b8592505b81831015620003e15783830185015181840186015291840191620003c2565b81831115620003f257858583830101525b979650505050505050565b6002810460018216806200041257607f821691505b602082108114156200043457634e487b7160e01b600052602260045260246000fd5b50919050565b634e487b7160e01b600052604160045260246000fd5b612bf780620004606000396000f3fe608060405234801561001057600080fd5b50d3801561001d57600080fd5b50d2801561002a57600080fd5b506004361061018c5760003560e01c80636b20c454116100f8578063a22cb465116100b1578063e63ab1e91161008b578063e63ab1e914610335578063e985e9c51461033d578063f242432a14610350578063f5298aca146103635761018c565b8063a22cb46514610307578063d53913931461031a578063d547741f146103225761018c565b80636b20c4541461029e578063731133e9146102b15780638456cb59146102c45780639010d07c146102cc57806391d14854146102ec578063a217fddf146102ff5761018c565b80632eb2c2d61161014a5780632eb2c2d6146102355780632f2ff15d1461024857806336568abe1461025b5780633f4ba83a1461026e5780634e1273f4146102765780635c975abb146102965761018c565b8062fdd58e1461019157806301ffc9a7146101ba5780630e89341c146101da5780631f7fdffa146101fa57806323f32a081461020f578063248a9ca314610222575b600080fd5b6101a461019f366004611fa3565b610376565b6040516101b19190612380565b60405180910390f35b6101cd6101c836600461216a565b6103d2565b6040516101b19190612375565b6101ed6101e836600461210f565b6103dd565b6040516101b19190612389565b61020d610208366004611ed4565b610471565b005b6101a461021d36600461210f565b6104cb565b6101a461023036600461210f565b6104e2565b61020d610243366004611d5a565b6104f7565b61020d610256366004612127565b610555565b61020d610269366004612127565b61057c565b61020d61059e565b610289610284366004612051565b6105f0565b6040516101b19190612334565b6101cd610710565b61020d6102ac366004611e63565b61071a565b61020d6102bf366004611ffe565b61076f565b61020d6107c3565b6102df6102da366004612149565b610813565b6040516101b1919061227d565b6101cd6102fa366004612127565b610832565b6101a461085b565b61020d610315366004611f69565b610860565b6101a461092e565b61020d610330366004612127565b610952565b6101a461095c565b6101cd61034b366004611d28565b610980565b61020d61035e366004611e00565b6109ae565b61020d610371366004611fcc565b610a05565b60006001600160a01b0383166103a75760405162461bcd60e51b815260040161039e90612758565b60405180910390fd5b5060008181526002602090815260408083206001600160a01b03861684529091529020545b92915050565b60006103cc82610a7d565b6060600480546103ec90612a7b565b80601f016020809104026020016040519081016040528092919081815260200182805461041890612a7b565b80156104655780601f1061043a57610100808354040283529160200191610465565b820191906000526020600020905b81548152906001019060200180831161044857829003601f168201915b50505050509050919050565b61049d7f9f2df0fed2c77648de5860a4cc508cd0818c85b8b8a1ab4ceeef8d981c8956a66102fa610abd565b6104b95760405162461bcd60e51b815260040161039e906124dd565b6104c584848484610ac1565b50505050565b60008181526001602052604081206103cc90610c43565b60009081526020819052604090206001015490565b6104ff610abd565b6001600160a01b0316856001600160a01b0316148061052557506105258561034b610abd565b6105415760405162461bcd60e51b815260040161039e90612414565b61054e8585858585610c4e565b5050505050565b61055f8282610e22565b60008281526001602052604090206105779082610a68565b505050565b6105868282610e46565b60008281526001602052604090206105779082610e88565b6105ca7f65d7a28e3265b37a6474929f336521b332c1681b933f6cb9f3376673440d862a6102fa610abd565b6105e65760405162461bcd60e51b815260040161039e9061289d565b6105ee610e9d565b565b606081518351146106135760405162461bcd60e51b815260040161039e90612683565b6000835167ffffffffffffffff81111561063d57634e487b7160e01b600052604160045260246000fd5b604051908082528060200260200182016040528015610666578160200160208202803683370190505b50905060005b8451811015610708576106cd85828151811061069857634e487b7160e01b600052603260045260246000fd5b60200260200101518583815181106106c057634e487b7160e01b600052603260045260246000fd5b6020026020010151610376565b8282815181106106ed57634e487b7160e01b600052603260045260246000fd5b602090810291909101015261070181612ab6565b905061066c565b509392505050565b60055460ff165b90565b610722610abd565b6001600160a01b0316836001600160a01b0316148061074857506107488361034b610abd565b6107645760405162461bcd60e51b815260040161039e90612494565b610577838383610f0b565b61079b7f9f2df0fed2c77648de5860a4cc508cd0818c85b8b8a1ab4ceeef8d981c8956a66102fa610abd565b6107b75760405162461bcd60e51b815260040161039e906124dd565b6104c5848484846110bf565b6107ef7f65d7a28e3265b37a6474929f336521b332c1681b933f6cb9f3376673440d862a6102fa610abd565b61080b5760405162461bcd60e51b815260040161039e90612840565b6105ee6111b0565b600082815260016020526040812061082b908361120b565b9392505050565b6000918252602082815260408084206001600160a01b0393909316845291905290205460ff1690565b600081565b816001600160a01b0316610872610abd565b6001600160a01b031614156108995760405162461bcd60e51b815260040161039e906127a3565b80600360006108a6610abd565b6001600160a01b03908116825260208083019390935260409182016000908120918716808252919093529120805460ff1916921515929092179091556108ea610abd565b6001600160a01b03167f17307eab39ab6107e8899845ad3d59bd9653f200f220920489ca2b5937696c31836040516109229190612375565b60405180910390a35050565b7f9f2df0fed2c77648de5860a4cc508cd0818c85b8b8a1ab4ceeef8d981c8956a681565b6105868282611217565b7f65d7a28e3265b37a6474929f336521b332c1681b933f6cb9f3376673440d862a81565b6001600160a01b03918216600090815260036020908152604080832093909416825291909152205460ff1690565b6109b6610abd565b6001600160a01b0316856001600160a01b031614806109dc57506109dc8561034b610abd565b6109f85760405162461bcd60e51b815260040161039e90612494565b61054e8585858585611236565b610a0d610abd565b6001600160a01b0316836001600160a01b03161480610a335750610a338361034b610abd565b610a4f5760405162461bcd60e51b815260040161039e90612494565b61057783838361136e565b610a648282611481565b5050565b600061082b836001600160a01b038416611506565b60006001600160e01b03198216636cdb3d1360e11b1480610aae57506001600160e01b031982166303a24d0760e21b145b806103cc57506103cc82611550565b3390565b6001600160a01b038416610ae75760405162461bcd60e51b815260040161039e9061253a565b8151835114610b085760405162461bcd60e51b815260040161039e90612710565b6000610b12610abd565b9050610b2381600087878787611575565b60005b8451811015610bdb57838181518110610b4f57634e487b7160e01b600052603260045260246000fd5b602002602001015160026000878481518110610b7b57634e487b7160e01b600052603260045260246000fd5b602002602001015181526020019081526020016000206000886001600160a01b03166001600160a01b031681526020019081526020016000206000828254610bc391906129ea565b90915550819050610bd381612ab6565b915050610b26565b50846001600160a01b031660006001600160a01b0316826001600160a01b03167f4a39dc06d4c0dbc64b70af90fd698a233a518aa5d07e595d983b8c0526c8f7fb8787604051610c2c929190612347565b60405180910390a461054e81600087878787611583565b60006103cc82611688565b8151835114610c6f5760405162461bcd60e51b815260040161039e90612710565b6001600160a01b038416610c955760405162461bcd60e51b815260040161039e90612949565b6000610c9f610abd565b9050610caf818787878787611575565b60005b8451811015610db4576000858281518110610cdd57634e487b7160e01b600052603260045260246000fd5b602002602001015190506000858381518110610d0957634e487b7160e01b600052603260045260246000fd5b60209081029190910181015160008481526002835260408082206001600160a01b038e168352909352919091205490915081811015610d5a5760405162461bcd60e51b815260040161039e9061257b565b60008381526002602090815260408083206001600160a01b038e8116855292528083208585039055908b16825281208054849290610d999084906129ea565b9250508190555050505080610dad90612ab6565b9050610cb2565b50846001600160a01b0316866001600160a01b0316826001600160a01b03167f4a39dc06d4c0dbc64b70af90fd698a233a518aa5d07e595d983b8c0526c8f7fb8787604051610e04929190612347565b60405180910390a4610e1a818787878787611583565b505050505050565b610e2b826104e2565b610e3c81610e37610abd565b61168c565b6105778383611481565b610e4e610abd565b6001600160a01b0316816001600160a01b031614610e7e5760405162461bcd60e51b815260040161039e906128fa565b610a6482826116f0565b600061082b836001600160a01b038416611773565b610ea5610710565b610ec15760405162461bcd60e51b815260040161039e90612466565b6005805460ff191690557f5db9ee0a495bf2e6ff9c91a7834c1ba4fdd244a5e8aa4e537bd38aeae4b073aa610ef4610abd565b604051610f01919061227d565b60405180910390a1565b6001600160a01b038316610f315760405162461bcd60e51b815260040161039e9061239c565b8051825114610f525760405162461bcd60e51b815260040161039e90612710565b6000610f5c610abd565b9050610f7c81856000868660405180602001604052806000815250611575565b60005b8351811015611060576000848281518110610faa57634e487b7160e01b600052603260045260246000fd5b602002602001015190506000848381518110610fd657634e487b7160e01b600052603260045260246000fd5b60209081029190910181015160008481526002835260408082206001600160a01b038c1683529093529190912054909150818110156110275760405162461bcd60e51b815260040161039e906126cc565b60009283526002602090815260408085206001600160a01b038b168652909152909220910390558061105881612ab6565b915050610f7f565b5060006001600160a01b0316846001600160a01b0316826001600160a01b03167f4a39dc06d4c0dbc64b70af90fd698a233a518aa5d07e595d983b8c0526c8f7fb86866040516110b1929190612347565b60405180910390a450505050565b6001600160a01b0384166110e55760405162461bcd60e51b815260040161039e9061253a565b60006110ef610abd565b90506111108160008761110188611890565b61110a88611890565b87611575565b60008481526002602090815260408083206001600160a01b0389168452909152812080548592906111429084906129ea565b92505081905550846001600160a01b031660006001600160a01b0316826001600160a01b03167fc3d58168c5ae7397731d063d5bbf3d657854427343f4c083240f7aacaa2d0f62878760405161119992919061298e565b60405180910390a461054e816000878787876118e9565b6111b8610710565b156111d55760405162461bcd60e51b815260040161039e90612611565b6005805460ff191660011790557f62e78cea01bee320cd4e420270b5ea74000d11b0c9f74754ebdbfc544b05a258610ef4610abd565b600061082b83836119b1565b611220826104e2565b61122c81610e37610abd565b61057783836116f0565b6001600160a01b03841661125c5760405162461bcd60e51b815260040161039e90612949565b6000611266610abd565b905061127781878761110188611890565b60008481526002602090815260408083206001600160a01b038a168452909152902054838110156112ba5760405162461bcd60e51b815260040161039e9061257b565b60008581526002602090815260408083206001600160a01b038b81168552925280832087850390559088168252812080548692906112f99084906129ea565b92505081905550856001600160a01b0316876001600160a01b0316836001600160a01b03167fc3d58168c5ae7397731d063d5bbf3d657854427343f4c083240f7aacaa2d0f62888860405161134f92919061298e565b60405180910390a46113658288888888886118e9565b50505050505050565b6001600160a01b0383166113945760405162461bcd60e51b815260040161039e9061239c565b600061139e610abd565b90506113ce818560006113b087611890565b6113b987611890565b60405180602001604052806000815250611575565b60008381526002602090815260408083206001600160a01b0388168452909152902054828110156114115760405162461bcd60e51b815260040161039e906126cc565b60008481526002602090815260408083206001600160a01b03808a16808652919093528184208786039055905190918516907fc3d58168c5ae7397731d063d5bbf3d657854427343f4c083240f7aacaa2d0f6290611472908990899061298e565b60405180910390a45050505050565b61148b8282610832565b610a64576000828152602081815260408083206001600160a01b03851684529091529020805460ff191660011790556114c2610abd565b6001600160a01b0316816001600160a01b0316837f2f8788117e7eff1d82e926ec794901d17c78024a50270940304540a733656f0d60405160405180910390a45050565b600061151283836119e9565b611548575081546001818101845560008481526020808220909301849055845484825282860190935260409020919091556103cc565b5060006103cc565b60006001600160e01b03198216632cf8fe9d60e21b14806103cc57506103cc82611a01565b610e1a868686868686611a26565b61158c84611a59565b15610e1a576040516383638d0b60e01b81526001600160a01b038516906383638d0b906115c59089908990889088908890600401612291565b602060405180830381600087803b1580156115df57600080fd5b505af192505050801561160f575060408051601f3d908101601f1916820190925261160c91810190612186565b60015b6116585761161b612b03565b806116265750611640565b8060405162461bcd60e51b815260040161039e9190612389565b60405162461bcd60e51b815260040161039e906127ec565b6001600160e01b031981166383638d0b60e01b146113655760405162461bcd60e51b815260040161039e9061263b565b5490565b6116968282610832565b610a64576116ae816001600160a01b03166014611a5f565b6116b9836020611a5f565b6040516020016116ca929190612208565b60408051601f198184030181529082905262461bcd60e51b825261039e91600401612389565b6116fa8282610832565b15610a64576000828152602081815260408083206001600160a01b03851684529091529020805460ff1916905561172f610abd565b6001600160a01b0316816001600160a01b0316837ff6391f5c32d9c69d2a47ea670b442974b53935d1edc7fd64eb21e047a839171b60405160405180910390a45050565b60008181526001830160205260408120548015611886576000611797600183612a21565b85549091506000906117ab90600190612a21565b905081811461182c5760008660000182815481106117d957634e487b7160e01b600052603260045260246000fd5b906000526020600020015490508087600001848154811061180a57634e487b7160e01b600052603260045260246000fd5b6000918252602080832090910192909255918252600188019052604090208390555b855486908061184b57634e487b7160e01b600052603160045260246000fd5b6001900381819060005260206000200160009055905585600101600086815260200190815260200160002060009055600193505050506103cc565b60009150506103cc565b604080516001808252818301909252606091600091906020808301908036833701905050905082816000815181106118d857634e487b7160e01b600052603260045260246000fd5b602090810291909101015292915050565b6118f284611a59565b15610e1a576040516394a9db1560e01b81526001600160a01b038516906394a9db159061192b90899089908890889088906004016122ef565b602060405180830381600087803b15801561194557600080fd5b505af1925050508015611975575060408051601f3d908101601f1916820190925261197291810190612186565b60015b6119815761161b612b03565b6001600160e01b031981166394a9db1560e01b146113655760405162461bcd60e51b815260040161039e9061263b565b60008260000182815481106119d657634e487b7160e01b600052603260045260246000fd5b9060005260206000200154905092915050565b60009081526001919091016020526040902054151590565b60006001600160e01b03198216637965db0b60e01b14806103cc57506103cc82611c11565b611a34868686868686610e1a565b611a3c610710565b15610e1a5760405162461bcd60e51b815260040161039e906125c5565b3b151590565b60606000611a6e836002612a02565b611a799060026129ea565b67ffffffffffffffff811115611a9f57634e487b7160e01b600052604160045260246000fd5b6040519080825280601f01601f191660200182016040528015611ac9576020820181803683370190505b509050600360fc1b81600081518110611af257634e487b7160e01b600052603260045260246000fd5b60200101906001600160f81b031916908160001a905350600f60fb1b81600181518110611b2f57634e487b7160e01b600052603260045260246000fd5b60200101906001600160f81b031916908160001a9053506000611b53846002612a02565b611b5e9060016129ea565b90505b6001811115611bf2576f181899199a1a9b1b9c1cb0b131b232b360811b85600f1660108110611ba057634e487b7160e01b600052603260045260246000fd5b1a60f81b828281518110611bc457634e487b7160e01b600052603260045260246000fd5b60200101906001600160f81b031916908160001a90535060049490941c93611beb81612a64565b9050611b61565b50831561082b5760405162461bcd60e51b815260040161039e906123df565b6001600160e01b031981166301ffc9a760e01b14919050565b600081356001600160a81b0381168114611c42578182fd5b6001600160a01b031692915050565b600082601f830112611c61578081fd5b81356020611c76611c71836129c6565b61299c565b8281528181019085830183850287018401881015611c92578586fd5b855b85811015611cb057813584529284019290840190600101611c94565b5090979650505050505050565b600082601f830112611ccd578081fd5b813567ffffffffffffffff811115611ce757611ce7612ae7565b611cfa601f8201601f191660200161299c565b818152846020838601011115611d0e578283fd5b816020850160208301379081016020019190915292915050565b60008060408385031215611d3a578182fd5b611d4383611c2a565b9150611d5160208401611c2a565b90509250929050565b600080600080600060a08688031215611d71578081fd5b611d7a86611c2a565b9450611d8860208701611c2a565b9350604086013567ffffffffffffffff80821115611da4578283fd5b611db089838a01611c51565b94506060880135915080821115611dc5578283fd5b611dd189838a01611c51565b93506080880135915080821115611de6578283fd5b50611df388828901611cbd565b9150509295509295909350565b600080600080600060a08688031215611e17578081fd5b611e2086611c2a565b9450611e2e60208701611c2a565b93506040860135925060608601359150608086013567ffffffffffffffff811115611e57578182fd5b611df388828901611cbd565b600080600060608486031215611e77578283fd5b611e8084611c2a565b9250602084013567ffffffffffffffff80821115611e9c578384fd5b611ea887838801611c51565b93506040860135915080821115611ebd578283fd5b50611eca86828701611c51565b9150509250925092565b60008060008060808587031215611ee9578384fd5b611ef285611c2a565b9350602085013567ffffffffffffffff80821115611f0e578485fd5b611f1a88838901611c51565b94506040870135915080821115611f2f578384fd5b611f3b88838901611c51565b93506060870135915080821115611f50578283fd5b50611f5d87828801611cbd565b91505092959194509250565b60008060408385031215611f7b578182fd5b611f8483611c2a565b915060208301358015158114611f98578182fd5b809150509250929050565b60008060408385031215611fb5578182fd5b611fbe83611c2a565b946020939093013593505050565b600080600060608486031215611fe0578081fd5b611fe984611c2a565b95602085013595506040909401359392505050565b60008060008060808587031215612013578182fd5b61201c85611c2a565b93506020850135925060408501359150606085013567ffffffffffffffff811115612045578182fd5b611f5d87828801611cbd565b60008060408385031215612063578182fd5b823567ffffffffffffffff8082111561207a578384fd5b818501915085601f83011261208d578384fd5b8135602061209d611c71836129c6565b82815281810190858301838502870184018b10156120b9578889fd5b8896505b848710156120e2576120ce81611c2a565b8352600196909601959183019183016120bd565b50965050860135925050808211156120f8578283fd5b5061210585828601611c51565b9150509250929050565b600060208284031215612120578081fd5b5035919050565b60008060408385031215612139578182fd5b82359150611d5160208401611c2a565b6000806040838503121561215b578182fd5b50508035926020909101359150565b60006020828403121561217b578081fd5b813561082b81612ba8565b600060208284031215612197578081fd5b815161082b81612ba8565b6000815180845260208085019450808401835b838110156121d1578151875295820195908201906001016121b5565b509495945050505050565b600081518084526121f4816020860160208601612a38565b601f01601f19169290920160200192915050565b60007f416363657373436f6e74726f6c3a206163636f756e742000000000000000000082528351612240816017850160208801612a38565b7001034b99036b4b9b9b4b733903937b6329607d1b6017918401918201528351612271816028840160208801612a38565b01602801949350505050565b6001600160a01b0391909116815260200190565b6001600160a01b0386811682528516602082015260a0604082018190526000906122bd908301866121a2565b82810360608401526122cf81866121a2565b905082810360808401526122e381856121dc565b98975050505050505050565b6001600160a01b03868116825285166020820152604081018490526060810183905260a060808201819052600090612329908301846121dc565b979650505050505050565b60006020825261082b60208301846121a2565b60006040825261235a60408301856121a2565b828103602084015261236c81856121a2565b95945050505050565b901515815260200190565b90815260200190565b60006020825261082b60208301846121dc565b60208082526023908201527f545243313135353a206275726e2066726f6d20746865207a65726f206164647260408201526265737360e81b606082015260800190565b6020808252818101527f537472696e67733a20686578206c656e67746820696e73756666696369656e74604082015260600190565b60208082526032908201527f545243313135353a207472616e736665722063616c6c6572206973206e6f74206040820152711bdddb995c881b9bdc88185c1c1c9bdd995960721b606082015260800190565b60208082526014908201527314185d5cd8589b194e881b9bdd081c185d5cd95960621b604082015260600190565b60208082526029908201527f545243313135353a2063616c6c6572206973206e6f74206f776e6572206e6f7260408201526808185c1c1c9bdd995960ba1b606082015260800190565b60208082526038908201527f545243313135355072657365744d696e7465725061757365723a206d7573742060408201527f68617665206d696e74657220726f6c6520746f206d696e740000000000000000606082015260800190565b60208082526021908201527f545243313135353a206d696e7420746f20746865207a65726f206164647265736040820152607360f81b606082015260800190565b6020808252602a908201527f545243313135353a20696e73756666696369656e742062616c616e636520666f60408201526939103a3930b739b332b960b11b606082015260800190565b6020808252602c908201527f545243313135355061757361626c653a20746f6b656e207472616e736665722060408201526b1dda1a5b19481c185d5cd95960a21b606082015260800190565b60208082526010908201526f14185d5cd8589b194e881c185d5cd95960821b604082015260600190565b60208082526028908201527f545243313135353a205452433131353552656365697665722072656a656374656040820152676420746f6b656e7360c01b606082015260800190565b60208082526029908201527f545243313135353a206163636f756e747320616e6420696473206c656e677468604082015268040dad2e6dac2e8c6d60bb1b606082015260800190565b60208082526024908201527f545243313135353a206275726e20616d6f756e7420657863656564732062616c604082015263616e636560e01b606082015260800190565b60208082526028908201527f545243313135353a2069647320616e6420616d6f756e7473206c656e677468206040820152670dad2e6dac2e8c6d60c31b606082015260800190565b6020808252602b908201527f545243313135353a2062616c616e636520717565727920666f7220746865207a60408201526a65726f206164647265737360a81b606082015260800190565b60208082526029908201527f545243313135353a2073657474696e6720617070726f76616c20737461747573604082015268103337b91039b2b63360b91b606082015260800190565b60208082526034908201527f545243313135353a207472616e7366657220746f206e6f6e20545243313135356040820152732932b1b2b4bb32b91034b6b83632b6b2b73a32b960611b606082015260800190565b60208082526039908201527f545243313135355072657365744d696e7465725061757365723a206d7573742060408201527f686176652070617573657220726f6c6520746f20706175736500000000000000606082015260800190565b6020808252603b908201527f545243313135355072657365744d696e7465725061757365723a206d7573742060408201527f686176652070617573657220726f6c6520746f20756e70617573650000000000606082015260800190565b6020808252602f908201527f416363657373436f6e74726f6c3a2063616e206f6e6c792072656e6f756e636560408201526e103937b632b9903337b91039b2b63360891b606082015260800190565b60208082526025908201527f545243313135353a207472616e7366657220746f20746865207a65726f206164604082015264647265737360d81b606082015260800190565b918252602082015260400190565b60405181810167ffffffffffffffff811182821017156129be576129be612ae7565b604052919050565b600067ffffffffffffffff8211156129e0576129e0612ae7565b5060209081020190565b600082198211156129fd576129fd612ad1565b500190565b6000816000190483118215151615612a1c57612a1c612ad1565b500290565b600082821015612a3357612a33612ad1565b500390565b60005b83811015612a53578181015183820152602001612a3b565b838111156104c55750506000910152565b600081612a7357612a73612ad1565b506000190190565b600281046001821680612a8f57607f821691505b60208210811415612ab057634e487b7160e01b600052602260045260246000fd5b50919050565b6000600019821415612aca57612aca612ad1565b5060010190565b634e487b7160e01b600052601160045260246000fd5b634e487b7160e01b600052604160045260246000fd5b60e01c90565b600060443d1015612b1357610717565b600481823e6308c379a0612b278251612afd565b14612b3157610717565b6040513d600319016004823e80513d67ffffffffffffffff8160248401118184111715612b615750505050610717565b82840192508251915080821115612b7b5750505050610717565b503d83016020828401011115612b9357505050610717565b601f01601f1916810160200160405291505090565b6001600160e01b031981168114612bbe57600080fd5b5056fea26469706673582212202e8681fe56ec4bb1d4369bb6f2f91f6fb752223c5908744ce8d6a724fe51a44a64736f6c63430008000033",
  "source": "// SPDX-License-Identifier: MIT\n\npragma solidity ^0.8.0;\n\nimport \"../TRC1155.sol\";\nimport \"../extensions/TRC1155Burnable.sol\";\nimport \"../extensions/TRC1155Pausable.sol\";\nimport \"../../../access/AccessControlEnumerable.sol\";\nimport \"../../../utils/Context.sol\";\n\n/**\n * @dev {TRC1155} token, including:\n *\n *  - ability for holders to burn (destroy) their tokens\n *  - a minter role that allows for token minting (creation)\n *  - a pauser role that allows to stop all token transfers\n *\n * This contract uses {AccessControl} to lock permissioned functions using the\n * different roles - head to its documentation for details.\n *\n * The account that deploys the contract will be granted the minter and pauser\n * roles, as well as the default admin role, which will let it grant both minter\n * and pauser roles to other accounts.\n */\ncontract TRC1155PresetMinterPauser is Context, AccessControlEnumerable, TRC1155Burnable, TRC1155Pausable {\n    bytes32 public constant MINTER_ROLE = keccak256(\"MINTER_ROLE\");\n    bytes32 public constant PAUSER_ROLE = keccak256(\"PAUSER_ROLE\");\n\n    /**\n     * @dev Grants `DEFAULT_ADMIN_ROLE`, `MINTER_ROLE`, and `PAUSER_ROLE` to the account that\n     * deploys the contract.\n     */\n    constructor(string memory uri) TRC1155(uri) {\n        _setupRole(DEFAULT_ADMIN_ROLE, _msgSender());\n\n        _setupRole(MINTER_ROLE, _msgSender());\n        _setupRole(PAUSER_ROLE, _msgSender());\n    }\n\n    /**\n     * @dev Creates `amount` new tokens for `to`, of token type `id`.\n     *\n     * See {TRC1155-_mint}.\n     *\n     * Requirements:\n     *\n     * - the caller must have the `MINTER_ROLE`.\n     */\n    function mint(\n        address to,\n        uint256 id,\n        uint256 amount,\n        bytes memory data\n    ) public virtual {\n        require(hasRole(MINTER_ROLE, _msgSender()), \"TRC1155PresetMinterPauser: must have minter role to mint\");\n\n        _mint(to, id, amount, data);\n    }\n\n    /**\n     * @dev xref:ROOT:TRC1155.adoc#batch-operations[Batched] variant of {mint}.\n     */\n    function mintBatch(\n        address to,\n        uint256[] memory ids,\n        uint256[] memory amounts,\n        bytes memory data\n    ) public virtual {\n        require(hasRole(MINTER_ROLE, _msgSender()), \"TRC1155PresetMinterPauser: must have minter role to mint\");\n\n        _mintBatch(to, ids, amounts, data);\n    }\n\n    /**\n     * @dev Pauses all token transfers.\n     *\n     * See {TRC1155Pausable} and {Pausable-_pause}.\n     *\n     * Requirements:\n     *\n     * - the caller must have the `PAUSER_ROLE`.\n     */\n    function pause() public virtual {\n        require(hasRole(PAUSER_ROLE, _msgSender()), \"TRC1155PresetMinterPauser: must have pauser role to pause\");\n        _pause();\n    }\n\n    /**\n     * @dev Unpauses all token transfers.\n     *\n     * See {TRC1155Pausable} and {Pausable-_unpause}.\n     *\n     * Requirements:\n     *\n     * - the caller must have the `PAUSER_ROLE`.\n     */\n    function unpause() public virtual {\n        require(hasRole(PAUSER_ROLE, _msgSender()), \"TRC1155PresetMinterPauser: must have pauser role to unpause\");\n        _unpause();\n    }\n\n    /**\n     * @dev See {ITRC165-supportsInterface}.\n     */\n    function supportsInterface(bytes4 interfaceId)\n        public\n        view\n        virtual\n        override(AccessControlEnumerable, TRC1155)\n        returns (bool)\n    {\n        return super.supportsInterface(interfaceId);\n    }\n\n    function _beforeTokenTransfer(\n        address operator,\n        address from,\n        address to,\n        uint256[] memory ids,\n        uint256[] memory amounts,\n        bytes memory data\n    ) internal virtual override(TRC1155, TRC1155Pausable) {\n        super._beforeTokenTransfer(operator, from, to, ids, amounts, data);\n    }\n}\n",
  "sourcePath": "/home/swatim/TRON/CUR-NFTs/contracts/@openzeppelin/contracts/token/TRC1155/presets/TRC1155PresetMinterPauser.sol",
  "compiler": {
    "name": "solc",
    "version": "0.8.0+commit.7c2e6412.Emscripten.clang"
  },
  "schemaVersion": "2.0.1",
  "updatedAt": "2021-12-16T04:49:26.465Z"
}