{
  "contractName": "TRC1155Holder",
  "abi": [
    {
      "inputs": [
        {
          "internalType": "address",
          "name": "",
          "type": "address"
        },
        {
          "internalType": "address",
          "name": "",
          "type": "address"
        },
        {
          "internalType": "uint256[]",
          "name": "",
          "type": "uint256[]"
        },
        {
          "internalType": "uint256[]",
          "name": "",
          "type": "uint256[]"
        },
        {
          "internalType": "bytes",
          "name": "",
          "type": "bytes"
        }
      ],
      "name": "onTRC1155BatchReceived",
      "outputs": [
        {
          "internalType": "bytes4",
          "name": "",
          "type": "bytes4"
        }
      ],
      "stateMutability": "nonpayable",
      "type": "function"
    },
    {
      "inputs": [
        {
          "internalType": "address",
          "name": "",
          "type": "address"
        },
        {
          "internalType": "address",
          "name": "",
          "type": "address"
        },
        {
          "internalType": "uint256",
          "name": "",
          "type": "uint256"
        },
        {
          "internalType": "uint256",
          "name": "",
          "type": "uint256"
        },
        {
          "internalType": "bytes",
          "name": "",
          "type": "bytes"
        }
      ],
      "name": "onTRC1155Received",
      "outputs": [
        {
          "internalType": "bytes4",
          "name": "",
          "type": "bytes4"
        }
      ],
      "stateMutability": "nonpayable",
      "type": "function"
    },
    {
      "inputs": [
        {
          "internalType": "bytes4",
          "name": "interfaceId",
          "type": "bytes4"
        }
      ],
      "name": "supportsInterface",
      "outputs": [
        {
          "internalType": "bool",
          "name": "",
          "type": "bool"
        }
      ],
      "stateMutability": "view",
      "type": "function"
    }
  ],
  "bytecode": "0x608060405234801561001057600080fd5b50d3801561001d57600080fd5b50d2801561002a57600080fd5b506104048061003a6000396000f3fe608060405234801561001057600080fd5b50d3801561001d57600080fd5b50d2801561002a57600080fd5b506004361061005b5760003560e01c806301ffc9a71461006057806383638d0b1461008957806394a9db15146100a9575b600080fd5b61007361006e36600461033f565b6100bc565b604051610080919061036e565b60405180910390f35b61009c610097366004610236565b6100e7565b6040516100809190610379565b61009c6100b73660046102dc565b6100f8565b60006001600160e01b03198216630be52b0f60e11b14806100e157506100e182610109565b92915050565b6383638d0b60e01b95945050505050565b6394a9db1560e01b95945050505050565b6001600160e01b031981166301ffc9a760e01b14919050565b600081356001600160a81b038116811461013a578182fd5b6001600160a01b031692915050565b600082601f830112610159578081fd5b8135602067ffffffffffffffff821115610175576101756103b8565b80820261018382820161038e565b83815282810190868401838801850189101561019d578687fd5b8693505b858410156101bf5780358352600193909301929184019184016101a1565b50979650505050505050565b600082601f8301126101db578081fd5b813567ffffffffffffffff8111156101f5576101f56103b8565b610208601f8201601f191660200161038e565b81815284602083860101111561021c578283fd5b816020850160208301379081016020019190915292915050565b600080600080600060a0868803121561024d578081fd5b61025686610122565b945061026460208701610122565b9350604086013567ffffffffffffffff80821115610280578283fd5b61028c89838a01610149565b945060608801359150808211156102a1578283fd5b6102ad89838a01610149565b935060808801359150808211156102c2578283fd5b506102cf888289016101cb565b9150509295509295909350565b600080600080600060a086880312156102f3578081fd5b6102fc86610122565b945061030a60208701610122565b93506040860135925060608601359150608086013567ffffffffffffffff811115610333578182fd5b6102cf888289016101cb565b600060208284031215610350578081fd5b81356001600160e01b031981168114610367578182fd5b9392505050565b901515815260200190565b6001600160e01b031991909116815260200190565b60405181810167ffffffffffffffff811182821017156103b0576103b06103b8565b604052919050565b634e487b7160e01b600052604160045260246000fdfea2646970667358221220595248dc424c06ecb9466447e31341f8e814c55658458a30021c7d65245ba15f64736f6c63430008000033",
  "source": "// SPDX-License-Identifier: MIT\n\npragma solidity ^0.8.0;\n\nimport \"./TRC1155Receiver.sol\";\n\n/**\n * @dev _Available since v3.1._\n */\ncontract TRC1155Holder is TRC1155Receiver {\n    function onTRC1155Received(\n        address,\n        address,\n        uint256,\n        uint256,\n        bytes memory\n    ) public virtual override returns (bytes4) {\n        return this.onTRC1155Received.selector;\n    }\n\n    function onTRC1155BatchReceived(\n        address,\n        address,\n        uint256[] memory,\n        uint256[] memory,\n        bytes memory\n    ) public virtual override returns (bytes4) {\n        return this.onTRC1155BatchReceived.selector;\n    }\n}\n",
  "sourcePath": "/home/swatim/TRON/CUR-NFTs/contracts/@openzeppelin/contracts/token/TRC1155/utils/TRC1155Holder.sol",
  "compiler": {
    "name": "solc",
    "version": "0.8.0+commit.7c2e6412.Emscripten.clang"
  },
  "schemaVersion": "2.0.1",
  "updatedAt": "2021-12-16T04:49:26.460Z"
}