{
  "contractName": "TRC20PresetFixedSupply",
  "abi": [
    {
      "inputs": [
        {
          "internalType": "string",
          "name": "name",
          "type": "string"
        },
        {
          "internalType": "string",
          "name": "symbol",
          "type": "string"
        },
        {
          "internalType": "uint256",
          "name": "initialSupply",
          "type": "uint256"
        },
        {
          "internalType": "address",
          "name": "owner",
          "type": "address"
        }
      ],
      "stateMutability": "nonpayable",
      "type": "constructor"
    },
    {
      "anonymous": false,
      "inputs": [
        {
          "indexed": true,
          "internalType": "address",
          "name": "owner",
          "type": "address"
        },
        {
          "indexed": true,
          "internalType": "address",
          "name": "spender",
          "type": "address"
        },
        {
          "indexed": false,
          "internalType": "uint256",
          "name": "value",
          "type": "uint256"
        }
      ],
      "name": "Approval",
      "type": "event"
    },
    {
      "anonymous": false,
      "inputs": [
        {
          "indexed": true,
          "internalType": "address",
          "name": "from",
          "type": "address"
        },
        {
          "indexed": true,
          "internalType": "address",
          "name": "to",
          "type": "address"
        },
        {
          "indexed": false,
          "internalType": "uint256",
          "name": "value",
          "type": "uint256"
        }
      ],
      "name": "Transfer",
      "type": "event"
    },
    {
      "inputs": [
        {
          "internalType": "address",
          "name": "owner",
          "type": "address"
        },
        {
          "internalType": "address",
          "name": "spender",
          "type": "address"
        }
      ],
      "name": "allowance",
      "outputs": [
        {
          "internalType": "uint256",
          "name": "",
          "type": "uint256"
        }
      ],
      "stateMutability": "view",
      "type": "function"
    },
    {
      "inputs": [
        {
          "internalType": "address",
          "name": "spender",
          "type": "address"
        },
        {
          "internalType": "uint256",
          "name": "amount",
          "type": "uint256"
        }
      ],
      "name": "approve",
      "outputs": [
        {
          "internalType": "bool",
          "name": "",
          "type": "bool"
        }
      ],
      "stateMutability": "nonpayable",
      "type": "function"
    },
    {
      "inputs": [
        {
          "internalType": "address",
          "name": "account",
          "type": "address"
        }
      ],
      "name": "balanceOf",
      "outputs": [
        {
          "internalType": "uint256",
          "name": "",
          "type": "uint256"
        }
      ],
      "stateMutability": "view",
      "type": "function"
    },
    {
      "inputs": [
        {
          "internalType": "uint256",
          "name": "amount",
          "type": "uint256"
        }
      ],
      "name": "burn",
      "outputs": [],
      "stateMutability": "nonpayable",
      "type": "function"
    },
    {
      "inputs": [
        {
          "internalType": "address",
          "name": "account",
          "type": "address"
        },
        {
          "internalType": "uint256",
          "name": "amount",
          "type": "uint256"
        }
      ],
      "name": "burnFrom",
      "outputs": [],
      "stateMutability": "nonpayable",
      "type": "function"
    },
    {
      "inputs": [],
      "name": "decimals",
      "outputs": [
        {
          "internalType": "uint8",
          "name": "",
          "type": "uint8"
        }
      ],
      "stateMutability": "view",
      "type": "function"
    },
    {
      "inputs": [
        {
          "internalType": "address",
          "name": "spender",
          "type": "address"
        },
        {
          "internalType": "uint256",
          "name": "subtractedValue",
          "type": "uint256"
        }
      ],
      "name": "decreaseAllowance",
      "outputs": [
        {
          "internalType": "bool",
          "name": "",
          "type": "bool"
        }
      ],
      "stateMutability": "nonpayable",
      "type": "function"
    },
    {
      "inputs": [
        {
          "internalType": "address",
          "name": "spender",
          "type": "address"
        },
        {
          "internalType": "uint256",
          "name": "addedValue",
          "type": "uint256"
        }
      ],
      "name": "increaseAllowance",
      "outputs": [
        {
          "internalType": "bool",
          "name": "",
          "type": "bool"
        }
      ],
      "stateMutability": "nonpayable",
      "type": "function"
    },
    {
      "inputs": [],
      "name": "name",
      "outputs": [
        {
          "internalType": "string",
          "name": "",
          "type": "string"
        }
      ],
      "stateMutability": "view",
      "type": "function"
    },
    {
      "inputs": [],
      "name": "symbol",
      "outputs": [
        {
          "internalType": "string",
          "name": "",
          "type": "string"
        }
      ],
      "stateMutability": "view",
      "type": "function"
    },
    {
      "inputs": [],
      "name": "totalSupply",
      "outputs": [
        {
          "internalType": "uint256",
          "name": "",
          "type": "uint256"
        }
      ],
      "stateMutability": "view",
      "type": "function"
    },
    {
      "inputs": [
        {
          "internalType": "address",
          "name": "recipient",
          "type": "address"
        },
        {
          "internalType": "uint256",
          "name": "amount",
          "type": "uint256"
        }
      ],
      "name": "transfer",
      "outputs": [
        {
          "internalType": "bool",
          "name": "",
          "type": "bool"
        }
      ],
      "stateMutability": "nonpayable",
      "type": "function"
    },
    {
      "inputs": [
        {
          "internalType": "address",
          "name": "sender",
          "type": "address"
        },
        {
          "internalType": "address",
          "name": "recipient",
          "type": "address"
        },
        {
          "internalType": "uint256",
          "name": "amount",
          "type": "uint256"
        }
      ],
      "name": "transferFrom",
      "outputs": [
        {
          "internalType": "bool",
          "name": "",
          "type": "bool"
        }
      ],
      "stateMutability": "nonpayable",
      "type": "function"
    }
  ],
  "bytecode": "0x60806040523480156200001157600080fd5b50d380156200001f57600080fd5b50d280156200002d57600080fd5b50604051620010bf380380620010bf8339810160408190526200005091620002d6565b8351849084906200006990600390602085019062000185565b5080516200007f90600490602084019062000185565b5050506200009481836200009e60201b60201c565b505050506200042b565b6001600160a01b038216620000d05760405162461bcd60e51b8152600401620000c79062000373565b60405180910390fd5b620000de6000838362000180565b8060026000828254620000f29190620003b3565b90915550506001600160a01b0382166000908152602081905260408120805483929062000121908490620003b3565b90915550506040516001600160a01b038316906000907fddf252ad1be2c89b69c2b068fc378daa952ba7f163c4a11628f55a4df523b3ef9062000166908590620003aa565b60405180910390a36200017c6000838362000180565b5050565b505050565b8280546200019390620003d8565b90600052602060002090601f016020900481019282620001b7576000855562000202565b82601f10620001d257805160ff191683800117855562000202565b8280016001018555821562000202579182015b8281111562000202578251825591602001919060010190620001e5565b506200021092915062000214565b5090565b5b8082111562000210576000815560010162000215565b600082601f8301126200023c578081fd5b81516001600160401b038082111562000259576200025962000415565b6040516020601f8401601f191682018101838111838210171562000281576200028162000415565b604052838252858401810187101562000298578485fd5b8492505b83831015620002bb57858301810151828401820152918201916200029c565b83831115620002cc57848185840101525b5095945050505050565b60008060008060808587031215620002ec578384fd5b84516001600160401b038082111562000303578586fd5b62000311888389016200022b565b9550602087015191508082111562000327578485fd5b5062000336878288016200022b565b60408701516060880151919550935090506001600160a81b03811681146200035c578182fd5b9396929550909350506001600160a01b0390911690565b6020808252601f908201527f54524332303a206d696e7420746f20746865207a65726f206164647265737300604082015260600190565b90815260200190565b60008219821115620003d357634e487b7160e01b81526011600452602481fd5b500190565b600281046001821680620003ed57607f821691505b602082108114156200040f57634e487b7160e01b600052602260045260246000fd5b50919050565b634e487b7160e01b600052604160045260246000fd5b610c84806200043b6000396000f3fe608060405234801561001057600080fd5b50d3801561001d57600080fd5b50d2801561002a57600080fd5b50600436106100e95760003560e01c806342966c68116100a657806395d89b411161008057806395d89b41146101b7578063a457c2d7146101bf578063a9059cbb146101d2578063dd62ed3e146101e5576100e9565b806342966c681461017c57806370a082311461019157806379cc6790146101a4576100e9565b806306fdde03146100ee578063095ea7b31461010c57806318160ddd1461012c57806323b872dd14610141578063313ce567146101545780633950935114610169575b600080fd5b6100f66101f8565b60405161010391906108bc565b60405180910390f35b61011f61011a366004610870565b61028a565b60405161010391906108b1565b6101346102a7565b6040516101039190610bb7565b61011f61014f366004610835565b6102ad565b61015c610346565b6040516101039190610bc0565b61011f610177366004610870565b61034b565b61018f61018a366004610899565b61039f565b005b61013461019f3660046107e2565b6103b3565b61018f6101b2366004610870565b6103ce565b6100f6610421565b61011f6101cd366004610870565b610430565b61011f6101e0366004610870565b6104a9565b6101346101f3366004610803565b6104bd565b60606003805461020790610bfd565b80601f016020809104026020016040519081016040528092919081815260200182805461023390610bfd565b80156102805780601f1061025557610100808354040283529160200191610280565b820191906000526020600020905b81548152906001019060200180831161026357829003601f168201915b5050505050905090565b600061029e6102976104e8565b84846104ec565b50600192915050565b60025490565b60006102ba8484846105a0565b6001600160a01b0384166000908152600160205260408120816102db6104e8565b6001600160a01b03166001600160a01b03168152602001908152602001600020549050828110156103275760405162461bcd60e51b815260040161031e906109d9565b60405180910390fd5b61033b856103336104e8565b8584036104ec565b506001949350505050565b601290565b600061029e6103586104e8565b8484600160006103666104e8565b6001600160a01b03908116825260208083019390935260409182016000908120918b168152925290205461039a9190610bce565b6104ec565b6103b06103aa6104e8565b826106ca565b50565b6001600160a01b031660009081526020819052604090205490565b60006103dc836101f36104e8565b9050818110156103fe5760405162461bcd60e51b815260040161031e90610b2d565b6104128361040a6104e8565b8484036104ec565b61041c83836106ca565b505050565b60606004805461020790610bfd565b6000806001600061043f6104e8565b6001600160a01b039081168252602080830193909352604091820160009081209188168152925290205490508281101561048b5760405162461bcd60e51b815260040161031e90610a65565b61049f6104966104e8565b858584036104ec565b5060019392505050565b600061029e6104b66104e8565b84846105a0565b6001600160a01b03918216600090815260016020908152604080832093909416825291909152205490565b3390565b6001600160a01b0383166105125760405162461bcd60e51b815260040161031e90610a21565b6001600160a01b0382166105385760405162461bcd60e51b815260040161031e90610952565b6001600160a01b0380841660008181526001602090815260408083209487168084529490915290819020849055517f8c5be1e5ebec7d5bd14f71427d1e84f3dd0314c0f7b2291e5b200ac8c7c3b92590610593908590610bb7565b60405180910390a3505050565b6001600160a01b0383166105c65760405162461bcd60e51b815260040161031e90610994565b6001600160a01b0382166105ec5760405162461bcd60e51b815260040161031e9061090f565b6105f783838361041c565b6001600160a01b038316600090815260208190526040902054818110156106305760405162461bcd60e51b815260040161031e90610b71565b6001600160a01b03808516600090815260208190526040808220858503905591851681529081208054849290610667908490610bce565b92505081905550826001600160a01b0316846001600160a01b03167fddf252ad1be2c89b69c2b068fc378daa952ba7f163c4a11628f55a4df523b3ef846040516106b19190610bb7565b60405180910390a36106c484848461041c565b50505050565b6001600160a01b0382166106f05760405162461bcd60e51b815260040161031e90610aaa565b6106fc8260008361041c565b6001600160a01b038216600090815260208190526040902054818110156107355760405162461bcd60e51b815260040161031e90610aeb565b6001600160a01b0383166000908152602081905260408120838303905560028054849290610764908490610be6565b90915550506040516000906001600160a01b038516907fddf252ad1be2c89b69c2b068fc378daa952ba7f163c4a11628f55a4df523b3ef906107a7908690610bb7565b60405180910390a361041c8360008461041c565b600081356001600160a81b03811681146107d3578182fd5b6001600160a01b031692915050565b6000602082840312156107f3578081fd5b6107fc826107bb565b9392505050565b60008060408385031215610815578081fd5b61081e836107bb565b915061082c602084016107bb565b90509250929050565b600080600060608486031215610849578081fd5b610852846107bb565b9250610860602085016107bb565b9150604084013590509250925092565b60008060408385031215610882578182fd5b61088b836107bb565b946020939093013593505050565b6000602082840312156108aa578081fd5b5035919050565b901515815260200190565b6000602080835283518082850152825b818110156108e8578581018301518582016040015282016108cc565b818111156108f95783604083870101525b50601f01601f1916929092016040019392505050565b60208082526023908201527f54524332303a207472616e7366657220746f20746865207a65726f206164647260408201526265737360e81b606082015260800190565b60208082526022908201527f54524332303a20617070726f766520746f20746865207a65726f206164647265604082015261737360f01b606082015260800190565b60208082526025908201527f54524332303a207472616e736665722066726f6d20746865207a65726f206164604082015264647265737360d81b606082015260800190565b60208082526028908201527f54524332303a207472616e7366657220616d6f756e74206578636565647320616040820152676c6c6f77616e636560c01b606082015260800190565b60208082526024908201527f54524332303a20617070726f76652066726f6d20746865207a65726f206164646040820152637265737360e01b606082015260800190565b60208082526025908201527f54524332303a2064656372656173656420616c6c6f77616e63652062656c6f77604082015264207a65726f60d81b606082015260800190565b60208082526021908201527f54524332303a206275726e2066726f6d20746865207a65726f206164647265736040820152607360f81b606082015260800190565b60208082526022908201527f54524332303a206275726e20616d6f756e7420657863656564732062616c616e604082015261636560f01b606082015260800190565b60208082526024908201527f54524332303a206275726e20616d6f756e74206578636565647320616c6c6f77604082015263616e636560e01b606082015260800190565b60208082526026908201527f54524332303a207472616e7366657220616d6f756e7420657863656564732062604082015265616c616e636560d01b606082015260800190565b90815260200190565b60ff91909116815260200190565b60008219821115610be157610be1610c38565b500190565b600082821015610bf857610bf8610c38565b500390565b600281046001821680610c1157607f821691505b60208210811415610c3257634e487b7160e01b600052602260045260246000fd5b50919050565b634e487b7160e01b600052601160045260246000fdfea2646970667358221220c3d5442c5794f6e7784380d27396500792e87312c98381db8859c1f648ab7e8f64736f6c63430008000033",
  "source": "// SPDX-License-Identifier: MIT\npragma solidity ^0.8.0;\n\nimport \"../extensions/TRC20Burnable.sol\";\n\n/**\n * @dev {TRC20} token, including:\n *\n *  - Preminted initial supply\n *  - Ability for holders to burn (destroy) their tokens\n *  - No access control mechanism (for minting/pausing) and hence no governance\n *\n * This contract uses {TRC20Burnable} to include burn capabilities - head to\n * its documentation for details.\n *\n * _Available since v3.4._\n */\ncontract TRC20PresetFixedSupply is TRC20Burnable {\n    /**\n     * @dev Mints `initialSupply` amount of token and transfers them to `owner`.\n     *\n     * See {TRC20-constructor}.\n     */\n    constructor(\n        string memory name,\n        string memory symbol,\n        uint256 initialSupply,\n        address owner\n    ) TRC20(name, symbol) {\n        _mint(owner, initialSupply);\n    }\n}\n",
  "sourcePath": "/home/swatim/TRON/CUR-NFTs/contracts/@openzeppelin/contracts/token/TRC20/presets/TRC20PresetFixedSupply.sol",
  "compiler": {
    "name": "solc",
    "version": "0.8.0+commit.7c2e6412.Emscripten.clang"
  },
  "schemaVersion": "2.0.1",
  "updatedAt": "2021-12-16T04:49:26.470Z"
}