{
  "contractName": "TRC20PresetMinterPauser",
  "abi": [
    {
      "inputs": [
        {
          "internalType": "string",
          "name": "name",
          "type": "string"
        },
        {
          "internalType": "string",
          "name": "symbol",
          "type": "string"
        }
      ],
      "stateMutability": "nonpayable",
      "type": "constructor"
    },
    {
      "anonymous": false,
      "inputs": [
        {
          "indexed": true,
          "internalType": "address",
          "name": "owner",
          "type": "address"
        },
        {
          "indexed": true,
          "internalType": "address",
          "name": "spender",
          "type": "address"
        },
        {
          "indexed": false,
          "internalType": "uint256",
          "name": "value",
          "type": "uint256"
        }
      ],
      "name": "Approval",
      "type": "event"
    },
    {
      "anonymous": false,
      "inputs": [
        {
          "indexed": false,
          "internalType": "address",
          "name": "account",
          "type": "address"
        }
      ],
      "name": "Paused",
      "type": "event"
    },
    {
      "anonymous": false,
      "inputs": [
        {
          "indexed": true,
          "internalType": "bytes32",
          "name": "role",
          "type": "bytes32"
        },
        {
          "indexed": true,
          "internalType": "bytes32",
          "name": "previousAdminRole",
          "type": "bytes32"
        },
        {
          "indexed": true,
          "internalType": "bytes32",
          "name": "newAdminRole",
          "type": "bytes32"
        }
      ],
      "name": "RoleAdminChanged",
      "type": "event"
    },
    {
      "anonymous": false,
      "inputs": [
        {
          "indexed": true,
          "internalType": "bytes32",
          "name": "role",
          "type": "bytes32"
        },
        {
          "indexed": true,
          "internalType": "address",
          "name": "account",
          "type": "address"
        },
        {
          "indexed": true,
          "internalType": "address",
          "name": "sender",
          "type": "address"
        }
      ],
      "name": "RoleGranted",
      "type": "event"
    },
    {
      "anonymous": false,
      "inputs": [
        {
          "indexed": true,
          "internalType": "bytes32",
          "name": "role",
          "type": "bytes32"
        },
        {
          "indexed": true,
          "internalType": "address",
          "name": "account",
          "type": "address"
        },
        {
          "indexed": true,
          "internalType": "address",
          "name": "sender",
          "type": "address"
        }
      ],
      "name": "RoleRevoked",
      "type": "event"
    },
    {
      "anonymous": false,
      "inputs": [
        {
          "indexed": true,
          "internalType": "address",
          "name": "from",
          "type": "address"
        },
        {
          "indexed": true,
          "internalType": "address",
          "name": "to",
          "type": "address"
        },
        {
          "indexed": false,
          "internalType": "uint256",
          "name": "value",
          "type": "uint256"
        }
      ],
      "name": "Transfer",
      "type": "event"
    },
    {
      "anonymous": false,
      "inputs": [
        {
          "indexed": false,
          "internalType": "address",
          "name": "account",
          "type": "address"
        }
      ],
      "name": "Unpaused",
      "type": "event"
    },
    {
      "inputs": [],
      "name": "DEFAULT_ADMIN_ROLE",
      "outputs": [
        {
          "internalType": "bytes32",
          "name": "",
          "type": "bytes32"
        }
      ],
      "stateMutability": "view",
      "type": "function"
    },
    {
      "inputs": [],
      "name": "MINTER_ROLE",
      "outputs": [
        {
          "internalType": "bytes32",
          "name": "",
          "type": "bytes32"
        }
      ],
      "stateMutability": "view",
      "type": "function"
    },
    {
      "inputs": [],
      "name": "PAUSER_ROLE",
      "outputs": [
        {
          "internalType": "bytes32",
          "name": "",
          "type": "bytes32"
        }
      ],
      "stateMutability": "view",
      "type": "function"
    },
    {
      "inputs": [
        {
          "internalType": "address",
          "name": "owner",
          "type": "address"
        },
        {
          "internalType": "address",
          "name": "spender",
          "type": "address"
        }
      ],
      "name": "allowance",
      "outputs": [
        {
          "internalType": "uint256",
          "name": "",
          "type": "uint256"
        }
      ],
      "stateMutability": "view",
      "type": "function"
    },
    {
      "inputs": [
        {
          "internalType": "address",
          "name": "spender",
          "type": "address"
        },
        {
          "internalType": "uint256",
          "name": "amount",
          "type": "uint256"
        }
      ],
      "name": "approve",
      "outputs": [
        {
          "internalType": "bool",
          "name": "",
          "type": "bool"
        }
      ],
      "stateMutability": "nonpayable",
      "type": "function"
    },
    {
      "inputs": [
        {
          "internalType": "address",
          "name": "account",
          "type": "address"
        }
      ],
      "name": "balanceOf",
      "outputs": [
        {
          "internalType": "uint256",
          "name": "",
          "type": "uint256"
        }
      ],
      "stateMutability": "view",
      "type": "function"
    },
    {
      "inputs": [
        {
          "internalType": "uint256",
          "name": "amount",
          "type": "uint256"
        }
      ],
      "name": "burn",
      "outputs": [],
      "stateMutability": "nonpayable",
      "type": "function"
    },
    {
      "inputs": [
        {
          "internalType": "address",
          "name": "account",
          "type": "address"
        },
        {
          "internalType": "uint256",
          "name": "amount",
          "type": "uint256"
        }
      ],
      "name": "burnFrom",
      "outputs": [],
      "stateMutability": "nonpayable",
      "type": "function"
    },
    {
      "inputs": [],
      "name": "decimals",
      "outputs": [
        {
          "internalType": "uint8",
          "name": "",
          "type": "uint8"
        }
      ],
      "stateMutability": "view",
      "type": "function"
    },
    {
      "inputs": [
        {
          "internalType": "address",
          "name": "spender",
          "type": "address"
        },
        {
          "internalType": "uint256",
          "name": "subtractedValue",
          "type": "uint256"
        }
      ],
      "name": "decreaseAllowance",
      "outputs": [
        {
          "internalType": "bool",
          "name": "",
          "type": "bool"
        }
      ],
      "stateMutability": "nonpayable",
      "type": "function"
    },
    {
      "inputs": [
        {
          "internalType": "bytes32",
          "name": "role",
          "type": "bytes32"
        }
      ],
      "name": "getRoleAdmin",
      "outputs": [
        {
          "internalType": "bytes32",
          "name": "",
          "type": "bytes32"
        }
      ],
      "stateMutability": "view",
      "type": "function"
    },
    {
      "inputs": [
        {
          "internalType": "bytes32",
          "name": "role",
          "type": "bytes32"
        }
      ],
      "name": "getRoleMembTRCount",
      "outputs": [
        {
          "internalType": "uint256",
          "name": "",
          "type": "uint256"
        }
      ],
      "stateMutability": "view",
      "type": "function"
    },
    {
      "inputs": [
        {
          "internalType": "bytes32",
          "name": "role",
          "type": "bytes32"
        },
        {
          "internalType": "uint256",
          "name": "index",
          "type": "uint256"
        }
      ],
      "name": "getRoleMember",
      "outputs": [
        {
          "internalType": "address",
          "name": "",
          "type": "address"
        }
      ],
      "stateMutability": "view",
      "type": "function"
    },
    {
      "inputs": [
        {
          "internalType": "bytes32",
          "name": "role",
          "type": "bytes32"
        },
        {
          "internalType": "address",
          "name": "account",
          "type": "address"
        }
      ],
      "name": "grantRole",
      "outputs": [],
      "stateMutability": "nonpayable",
      "type": "function"
    },
    {
      "inputs": [
        {
          "internalType": "bytes32",
          "name": "role",
          "type": "bytes32"
        },
        {
          "internalType": "address",
          "name": "account",
          "type": "address"
        }
      ],
      "name": "hasRole",
      "outputs": [
        {
          "internalType": "bool",
          "name": "",
          "type": "bool"
        }
      ],
      "stateMutability": "view",
      "type": "function"
    },
    {
      "inputs": [
        {
          "internalType": "address",
          "name": "spender",
          "type": "address"
        },
        {
          "internalType": "uint256",
          "name": "addedValue",
          "type": "uint256"
        }
      ],
      "name": "increaseAllowance",
      "outputs": [
        {
          "internalType": "bool",
          "name": "",
          "type": "bool"
        }
      ],
      "stateMutability": "nonpayable",
      "type": "function"
    },
    {
      "inputs": [
        {
          "internalType": "address",
          "name": "to",
          "type": "address"
        },
        {
          "internalType": "uint256",
          "name": "amount",
          "type": "uint256"
        }
      ],
      "name": "mint",
      "outputs": [],
      "stateMutability": "nonpayable",
      "type": "function"
    },
    {
      "inputs": [],
      "name": "name",
      "outputs": [
        {
          "internalType": "string",
          "name": "",
          "type": "string"
        }
      ],
      "stateMutability": "view",
      "type": "function"
    },
    {
      "inputs": [],
      "name": "pause",
      "outputs": [],
      "stateMutability": "nonpayable",
      "type": "function"
    },
    {
      "inputs": [],
      "name": "paused",
      "outputs": [
        {
          "internalType": "bool",
          "name": "",
          "type": "bool"
        }
      ],
      "stateMutability": "view",
      "type": "function"
    },
    {
      "inputs": [
        {
          "internalType": "bytes32",
          "name": "role",
          "type": "bytes32"
        },
        {
          "internalType": "address",
          "name": "account",
          "type": "address"
        }
      ],
      "name": "renounceRole",
      "outputs": [],
      "stateMutability": "nonpayable",
      "type": "function"
    },
    {
      "inputs": [
        {
          "internalType": "bytes32",
          "name": "role",
          "type": "bytes32"
        },
        {
          "internalType": "address",
          "name": "account",
          "type": "address"
        }
      ],
      "name": "revokeRole",
      "outputs": [],
      "stateMutability": "nonpayable",
      "type": "function"
    },
    {
      "inputs": [
        {
          "internalType": "bytes4",
          "name": "interfaceId",
          "type": "bytes4"
        }
      ],
      "name": "supportsInterface",
      "outputs": [
        {
          "internalType": "bool",
          "name": "",
          "type": "bool"
        }
      ],
      "stateMutability": "view",
      "type": "function"
    },
    {
      "inputs": [],
      "name": "symbol",
      "outputs": [
        {
          "internalType": "string",
          "name": "",
          "type": "string"
        }
      ],
      "stateMutability": "view",
      "type": "function"
    },
    {
      "inputs": [],
      "name": "totalSupply",
      "outputs": [
        {
          "internalType": "uint256",
          "name": "",
          "type": "uint256"
        }
      ],
      "stateMutability": "view",
      "type": "function"
    },
    {
      "inputs": [
        {
          "internalType": "address",
          "name": "recipient",
          "type": "address"
        },
        {
          "internalType": "uint256",
          "name": "amount",
          "type": "uint256"
        }
      ],
      "name": "transfer",
      "outputs": [
        {
          "internalType": "bool",
          "name": "",
          "type": "bool"
        }
      ],
      "stateMutability": "nonpayable",
      "type": "function"
    },
    {
      "inputs": [
        {
          "internalType": "address",
          "name": "sender",
          "type": "address"
        },
        {
          "internalType": "address",
          "name": "recipient",
          "type": "address"
        },
        {
          "internalType": "uint256",
          "name": "amount",
          "type": "uint256"
        }
      ],
      "name": "transferFrom",
      "outputs": [
        {
          "internalType": "bool",
          "name": "",
          "type": "bool"
        }
      ],
      "stateMutability": "nonpayable",
      "type": "function"
    },
    {
      "inputs": [],
      "name": "unpause",
      "outputs": [],
      "stateMutability": "nonpayable",
      "type": "function"
    }
  ],
  "bytecode": "0x60806040523480156200001157600080fd5b50d380156200001f57600080fd5b50d280156200002d57600080fd5b506040516200209f3803806200209f8339810160408190526200005091620003ea565b8151829082906200006990600590602085019062000299565b5080516200007f90600690602084019062000299565b50506007805460ff1916905550620000a260006200009c62000108565b6200010c565b620000d17f9f2df0fed2c77648de5860a4cc508cd0818c85b8b8a1ab4ceeef8d981c8956a66200009c62000108565b620001007f65d7a28e3265b37a6474929f336521b332c1681b933f6cb9f3376673440d862a6200009c62000108565b5050620004a4565b3390565b6200012382826200014f60201b620009001760201c565b60008281526001602090815260409091206200014a9183906200090a6200015f821b17901c565b505050565b6200015b82826200017f565b5050565b600062000176836001600160a01b03841662000209565b90505b92915050565b6200018b828262000258565b6200015b576000828152602081815260408083206001600160a01b03851684529091529020805460ff19166001179055620001c562000108565b6001600160a01b0316816001600160a01b0316837f2f8788117e7eff1d82e926ec794901d17c78024a50270940304540a733656f0d60405160405180910390a45050565b600062000217838362000281565b6200024f5750815460018181018455600084815260208082209093018490558454848252828601909352604090209190915562000179565b50600062000179565b6000918252602082815260408084206001600160a01b0393909316845291905290205460ff1690565b60009081526001919091016020526040902054151590565b828054620002a79062000451565b90600052602060002090601f016020900481019282620002cb576000855562000316565b82601f10620002e657805160ff191683800117855562000316565b8280016001018555821562000316579182015b8281111562000316578251825591602001919060010190620002f9565b506200032492915062000328565b5090565b5b8082111562000324576000815560010162000329565b600082601f83011262000350578081fd5b81516001600160401b03808211156200036d576200036d6200048e565b6040516020601f8401601f19168201810183811183821017156200039557620003956200048e565b6040528382528584018101871015620003ac578485fd5b8492505b83831015620003cf5785830181015182840182015291820191620003b0565b83831115620003e057848185840101525b5095945050505050565b60008060408385031215620003fd578182fd5b82516001600160401b038082111562000414578384fd5b62000422868387016200033f565b9350602085015191508082111562000438578283fd5b5062000447858286016200033f565b9150509250929050565b6002810460018216806200046657607f821691505b602082108114156200048857634e487b7160e01b600052602260045260246000fd5b50919050565b634e487b7160e01b600052604160045260246000fd5b611beb80620004b46000396000f3fe608060405234801561001057600080fd5b50d3801561001d57600080fd5b50d2801561002a57600080fd5b50600436106101de5760003560e01c80635c975abb11610113578063a217fddf116100b1578063d53913931161008b578063d53913931461039f578063d547741f146103a7578063dd62ed3e146103ba578063e63ab1e9146103cd576101de565b8063a217fddf14610371578063a457c2d714610379578063a9059cbb1461038c576101de565b80638456cb59116100ed5780638456cb591461032e5780639010d07c1461033657806391d148541461035657806395d89b4114610369576101de565b80635c975abb1461030057806370a082311461030857806379cc67901461031b576101de565b80632f2ff15d11610180578063395093511161015a57806339509351146102bf5780633f4ba83a146102d257806340c10f19146102da57806342966c68146102ed576101de565b80632f2ff15d14610282578063313ce5671461029757806336568abe146102ac576101de565b806318160ddd116101bc57806318160ddd1461023457806323b872dd1461024957806323f32a081461025c578063248a9ca31461026f576101de565b806301ffc9a7146101e357806306fdde031461020c578063095ea7b314610221575b600080fd5b6101f66101f13660046114b8565b6103d5565b6040516102039190611569565b60405180910390f35b610214610400565b604051610203919061157d565b6101f661022f366004611434565b610492565b61023c6104af565b6040516102039190611574565b6101f66102573660046113f9565b6104b5565b61023c61026a36600461145d565b61054e565b61023c61027d36600461145d565b610565565b610295610290366004611475565b61057a565b005b61029f6105a1565b6040516102039190611ac5565b6102956102ba366004611475565b6105a6565b6101f66102cd366004611434565b6105c8565b61029561061c565b6102956102e8366004611434565b61066e565b6102956102fb36600461145d565b6106c4565b6101f66106d8565b61023c6103163660046113ad565b6106e1565b610295610329366004611434565b6106fc565b61029561074a565b610349610344366004611497565b61079a565b6040516102039190611555565b6101f6610364366004611475565b6107b9565b6102146107e2565b61023c6107f1565b6101f6610387366004611434565b6107f6565b6101f661039a366004611434565b61086f565b61023c610883565b6102956103b5366004611475565b6108a7565b61023c6103c83660046113c7565b6108b1565b61023c6108dc565b60006001600160e01b03198216632cf8fe9d60e21b14806103fa57506103fa8261091f565b92915050565b60606005805461040f90611b64565b80601f016020809104026020016040519081016040528092919081815260200182805461043b90611b64565b80156104885780601f1061045d57610100808354040283529160200191610488565b820191906000526020600020905b81548152906001019060200180831161046b57829003601f168201915b5050505050905090565b60006104a661049f610944565b8484610948565b50600192915050565b60045490565b60006104c28484846109fc565b6001600160a01b0384166000908152600360205260408120816104e3610944565b6001600160a01b03166001600160a01b031681526020019081526020016000205490508281101561052f5760405162461bcd60e51b8152600401610526906117c7565b60405180910390fd5b6105438561053b610944565b858403610948565b506001949350505050565b60008181526001602052604081206103fa90610b26565b60009081526020819052604090206001015490565b6105848282610b31565b600082815260016020526040902061059c908261090a565b505050565b601290565b6105b08282610b55565b600082815260016020526040902061059c9082610b97565b60006104a66105d5610944565b8484600360006105e3610944565b6001600160a01b03908116825260208083019390935260409182016000908120918b16815292529020546106179190611ad3565b610948565b6106487f65d7a28e3265b37a6474929f336521b332c1681b933f6cb9f3376673440d862a610364610944565b6106645760405162461bcd60e51b81526004016105269061198f565b61066c610bac565b565b61069a7f9f2df0fed2c77648de5860a4cc508cd0818c85b8b8a1ab4ceeef8d981c8956a6610364610944565b6106b65760405162461bcd60e51b815260040161052690611613565b6106c08282610c1a565b5050565b6106d56106cf610944565b82610ce2565b50565b60075460ff1690565b6001600160a01b031660009081526002602052604090205490565b600061070a836103c8610944565b90508181101561072c5760405162461bcd60e51b8152600401610526906119ec565b61074083610738610944565b848403610948565b61059c8383610ce2565b6107767f65d7a28e3265b37a6474929f336521b332c1681b933f6cb9f3376673440d862a610364610944565b6107925760405162461bcd60e51b81526004016105269061176a565b61066c610dd3565b60008281526001602052604081206107b29083610e2e565b9392505050565b6000918252602082815260408084206001600160a01b0393909316845291905290205460ff1690565b60606006805461040f90611b64565b600081565b60008060036000610805610944565b6001600160a01b03908116825260208083019390935260409182016000908120918816815292529020549050828110156108515760405162461bcd60e51b81526004016105269061187d565b61086561085c610944565b85858403610948565b5060019392505050565b60006104a661087c610944565b84846109fc565b7f9f2df0fed2c77648de5860a4cc508cd0818c85b8b8a1ab4ceeef8d981c8956a681565b6105b08282610e3a565b6001600160a01b03918216600090815260036020908152604080832093909416825291909152205490565b7f65d7a28e3265b37a6474929f336521b332c1681b933f6cb9f3376673440d862a81565b6106c08282610e59565b60006107b2836001600160a01b038416610ede565b60006001600160e01b03198216637965db0b60e01b14806103fa57506103fa82610f28565b3390565b6001600160a01b03831661096e5760405162461bcd60e51b815260040161052690611839565b6001600160a01b0382166109945760405162461bcd60e51b8152600401610526906116ac565b6001600160a01b0380841660008181526003602090815260408083209487168084529490915290819020849055517f8c5be1e5ebec7d5bd14f71427d1e84f3dd0314c0f7b2291e5b200ac8c7c3b925906109ef908590611574565b60405180910390a3505050565b6001600160a01b038316610a225760405162461bcd60e51b8152600401610526906116ee565b6001600160a01b038216610a485760405162461bcd60e51b815260040161052690611669565b610a53838383610f41565b6001600160a01b03831660009081526002602052604090205481811015610a8c5760405162461bcd60e51b815260040161052690611a30565b6001600160a01b03808516600090815260026020526040808220858503905591851681529081208054849290610ac3908490611ad3565b92505081905550826001600160a01b0316846001600160a01b03167fddf252ad1be2c89b69c2b068fc378daa952ba7f163c4a11628f55a4df523b3ef84604051610b0d9190611574565b60405180910390a3610b2084848461059c565b50505050565b60006103fa82610f4c565b610b3a82610565565b610b4b81610b46610944565b610f50565b61059c8383610e59565b610b5d610944565b6001600160a01b0316816001600160a01b031614610b8d5760405162461bcd60e51b815260040161052690611a76565b6106c08282610fb4565b60006107b2836001600160a01b038416611037565b610bb46106d8565b610bd05760405162461bcd60e51b8152600401610526906115e5565b6007805460ff191690557f5db9ee0a495bf2e6ff9c91a7834c1ba4fdd244a5e8aa4e537bd38aeae4b073aa610c03610944565b604051610c109190611555565b60405180910390a1565b6001600160a01b038216610c405760405162461bcd60e51b815260040161052690611733565b610c4c60008383610f41565b8060046000828254610c5e9190611ad3565b90915550506001600160a01b03821660009081526002602052604081208054839290610c8b908490611ad3565b90915550506040516001600160a01b038316906000907fddf252ad1be2c89b69c2b068fc378daa952ba7f163c4a11628f55a4df523b3ef90610cce908590611574565b60405180910390a36106c06000838361059c565b6001600160a01b038216610d085760405162461bcd60e51b8152600401610526906118c2565b610d1482600083610f41565b6001600160a01b03821660009081526002602052604090205481811015610d4d5760405162461bcd60e51b81526004016105269061194d565b6001600160a01b0383166000908152600260205260408120838303905560048054849290610d7c908490611b0a565b90915550506040516000906001600160a01b038516907fddf252ad1be2c89b69c2b068fc378daa952ba7f163c4a11628f55a4df523b3ef90610dbf908690611574565b60405180910390a361059c8360008461059c565b610ddb6106d8565b15610df85760405162461bcd60e51b81526004016105269061180f565b6007805460ff191660011790557f62e78cea01bee320cd4e420270b5ea74000d11b0c9f74754ebdbfc544b05a258610c03610944565b60006107b28383611154565b610e4382610565565b610e4f81610b46610944565b61059c8383610fb4565b610e6382826107b9565b6106c0576000828152602081815260408083206001600160a01b03851684529091529020805460ff19166001179055610e9a610944565b6001600160a01b0316816001600160a01b0316837f2f8788117e7eff1d82e926ec794901d17c78024a50270940304540a733656f0d60405160405180910390a45050565b6000610eea838361118c565b610f20575081546001818101845560008481526020808220909301849055845484825282860190935260409020919091556103fa565b5060006103fa565b6001600160e01b031981166301ffc9a760e01b14919050565b61059c8383836111a4565b5490565b610f5a82826107b9565b6106c057610f72816001600160a01b031660146111d4565b610f7d8360206111d4565b604051602001610f8e9291906114e0565b60408051601f198184030181529082905262461bcd60e51b82526105269160040161157d565b610fbe82826107b9565b156106c0576000828152602081815260408083206001600160a01b03851684529091529020805460ff19169055610ff3610944565b6001600160a01b0316816001600160a01b0316837ff6391f5c32d9c69d2a47ea670b442974b53935d1edc7fd64eb21e047a839171b60405160405180910390a45050565b6000818152600183016020526040812054801561114a57600061105b600183611b0a565b855490915060009061106f90600190611b0a565b90508181146110f057600086600001828154811061109d57634e487b7160e01b600052603260045260246000fd5b90600052602060002001549050808760000184815481106110ce57634e487b7160e01b600052603260045260246000fd5b6000918252602080832090910192909255918252600188019052604090208390555b855486908061110f57634e487b7160e01b600052603160045260246000fd5b6001900381819060005260206000200160009055905585600101600086815260200190815260200160002060009055600193505050506103fa565b60009150506103fa565b600082600001828154811061117957634e487b7160e01b600052603260045260246000fd5b9060005260206000200154905092915050565b60009081526001919091016020526040902054151590565b6111af83838361059c565b6111b76106d8565b1561059c5760405162461bcd60e51b815260040161052690611903565b606060006111e3836002611aeb565b6111ee906002611ad3565b67ffffffffffffffff81111561121457634e487b7160e01b600052604160045260246000fd5b6040519080825280601f01601f19166020018201604052801561123e576020820181803683370190505b509050600360fc1b8160008151811061126757634e487b7160e01b600052603260045260246000fd5b60200101906001600160f81b031916908160001a905350600f60fb1b816001815181106112a457634e487b7160e01b600052603260045260246000fd5b60200101906001600160f81b031916908160001a90535060006112c8846002611aeb565b6112d3906001611ad3565b90505b6001811115611367576f181899199a1a9b1b9c1cb0b131b232b360811b85600f166010811061131557634e487b7160e01b600052603260045260246000fd5b1a60f81b82828151811061133957634e487b7160e01b600052603260045260246000fd5b60200101906001600160f81b031916908160001a90535060049490941c9361136081611b4d565b90506112d6565b5083156107b25760405162461bcd60e51b8152600401610526906115b0565b600081356001600160a81b038116811461139e578182fd5b6001600160a01b031692915050565b6000602082840312156113be578081fd5b6107b282611386565b600080604083850312156113d9578081fd5b6113e283611386565b91506113f060208401611386565b90509250929050565b60008060006060848603121561140d578081fd5b61141684611386565b925061142460208501611386565b9150604084013590509250925092565b60008060408385031215611446578182fd5b61144f83611386565b946020939093013593505050565b60006020828403121561146e578081fd5b5035919050565b60008060408385031215611487578182fd5b823591506113f060208401611386565b600080604083850312156114a9578182fd5b50508035926020909101359150565b6000602082840312156114c9578081fd5b81356001600160e01b0319811681146107b2578182fd5b60007f416363657373436f6e74726f6c3a206163636f756e742000000000000000000082528351611518816017850160208801611b21565b7001034b99036b4b9b9b4b733903937b6329607d1b6017918401918201528351611549816028840160208801611b21565b01602801949350505050565b6001600160a01b0391909116815260200190565b901515815260200190565b90815260200190565b600060208252825180602084015261159c816040850160208701611b21565b601f01601f19169190910160400192915050565b6020808252818101527f537472696e67733a20686578206c656e67746820696e73756666696369656e74604082015260600190565b60208082526014908201527314185d5cd8589b194e881b9bdd081c185d5cd95960621b604082015260600190565b60208082526036908201527f54524332305072657365744d696e7465725061757365723a206d7573742068616040820152751d99481b5a5b9d195c881c9bdb19481d1bc81b5a5b9d60521b606082015260800190565b60208082526023908201527f54524332303a207472616e7366657220746f20746865207a65726f206164647260408201526265737360e81b606082015260800190565b60208082526022908201527f54524332303a20617070726f766520746f20746865207a65726f206164647265604082015261737360f01b606082015260800190565b60208082526025908201527f54524332303a207472616e736665722066726f6d20746865207a65726f206164604082015264647265737360d81b606082015260800190565b6020808252601f908201527f54524332303a206d696e7420746f20746865207a65726f206164647265737300604082015260600190565b60208082526037908201527f54524332305072657365744d696e7465725061757365723a206d75737420686160408201527f76652070617573657220726f6c6520746f207061757365000000000000000000606082015260800190565b60208082526028908201527f54524332303a207472616e7366657220616d6f756e74206578636565647320616040820152676c6c6f77616e636560c01b606082015260800190565b60208082526010908201526f14185d5cd8589b194e881c185d5cd95960821b604082015260600190565b60208082526024908201527f54524332303a20617070726f76652066726f6d20746865207a65726f206164646040820152637265737360e01b606082015260800190565b60208082526025908201527f54524332303a2064656372656173656420616c6c6f77616e63652062656c6f77604082015264207a65726f60d81b606082015260800190565b60208082526021908201527f54524332303a206275726e2066726f6d20746865207a65726f206164647265736040820152607360f81b606082015260800190565b6020808252602a908201527f54524332305061757361626c653a20746f6b656e207472616e736665722077686040820152691a5b19481c185d5cd95960b21b606082015260800190565b60208082526022908201527f54524332303a206275726e20616d6f756e7420657863656564732062616c616e604082015261636560f01b606082015260800190565b60208082526039908201527f54524332305072657365744d696e7465725061757365723a206d75737420686160408201527f76652070617573657220726f6c6520746f20756e706175736500000000000000606082015260800190565b60208082526024908201527f54524332303a206275726e20616d6f756e74206578636565647320616c6c6f77604082015263616e636560e01b606082015260800190565b60208082526026908201527f54524332303a207472616e7366657220616d6f756e7420657863656564732062604082015265616c616e636560d01b606082015260800190565b6020808252602f908201527f416363657373436f6e74726f6c3a2063616e206f6e6c792072656e6f756e636560408201526e103937b632b9903337b91039b2b63360891b606082015260800190565b60ff91909116815260200190565b60008219821115611ae657611ae6611b9f565b500190565b6000816000190483118215151615611b0557611b05611b9f565b500290565b600082821015611b1c57611b1c611b9f565b500390565b60005b83811015611b3c578181015183820152602001611b24565b83811115610b205750506000910152565b600081611b5c57611b5c611b9f565b506000190190565b600281046001821680611b7857607f821691505b60208210811415611b9957634e487b7160e01b600052602260045260246000fd5b50919050565b634e487b7160e01b600052601160045260246000fdfea2646970667358221220eee91bea726c79fd07dba5a36382ce195bb986e856a2ba963a268c10e68aa91864736f6c63430008000033",
  "source": "// SPDX-License-Identifier: MIT\n\npragma solidity ^0.8.0;\n\nimport \"../TRC20.sol\";\nimport \"../extensions/TRC20Burnable.sol\";\nimport \"../extensions/TRC20Pausable.sol\";\nimport \"../../../access/AccessControlEnumerable.sol\";\nimport \"../../../utils/Context.sol\";\n\n/**\n * @dev {TRC20} token, including:\n *\n *  - ability for holders to burn (destroy) their tokens\n *  - a minter role that allows for token minting (creation)\n *  - a pauser role that allows to stop all token transfers\n *\n * This contract uses {AccessControl} to lock permissioned functions using the\n * different roles - head to its documentation for details.\n *\n * The account that deploys the contract will be granted the minter and pauser\n * roles, as well as the default admin role, which will let it grant both minter\n * and pauser roles to other accounts.\n */\ncontract TRC20PresetMinterPauser is Context, AccessControlEnumerable, TRC20Burnable, TRC20Pausable {\n    bytes32 public constant MINTER_ROLE = keccak256(\"MINTER_ROLE\");\n    bytes32 public constant PAUSER_ROLE = keccak256(\"PAUSER_ROLE\");\n\n    /**\n     * @dev Grants `DEFAULT_ADMIN_ROLE`, `MINTER_ROLE` and `PAUSER_ROLE` to the\n     * account that deploys the contract.\n     *\n     * See {TRC20-constructor}.\n     */\n    constructor(string memory name, string memory symbol) TRC20(name, symbol) {\n        _setupRole(DEFAULT_ADMIN_ROLE, _msgSender());\n\n        _setupRole(MINTER_ROLE, _msgSender());\n        _setupRole(PAUSER_ROLE, _msgSender());\n    }\n\n    /**\n     * @dev Creates `amount` new tokens for `to`.\n     *\n     * See {TRC20-_mint}.\n     *\n     * Requirements:\n     *\n     * - the caller must have the `MINTER_ROLE`.\n     */\n    function mint(address to, uint256 amount) public virtual {\n        require(hasRole(MINTER_ROLE, _msgSender()), \"TRC20PresetMinterPauser: must have minter role to mint\");\n        _mint(to, amount);\n    }\n\n    /**\n     * @dev Pauses all token transfers.\n     *\n     * See {TRC20Pausable} and {Pausable-_pause}.\n     *\n     * Requirements:\n     *\n     * - the caller must have the `PAUSER_ROLE`.\n     */\n    function pause() public virtual {\n        require(hasRole(PAUSER_ROLE, _msgSender()), \"TRC20PresetMinterPauser: must have pauser role to pause\");\n        _pause();\n    }\n\n    /**\n     * @dev Unpauses all token transfers.\n     *\n     * See {TRC20Pausable} and {Pausable-_unpause}.\n     *\n     * Requirements:\n     *\n     * - the caller must have the `PAUSER_ROLE`.\n     */\n    function unpause() public virtual {\n        require(hasRole(PAUSER_ROLE, _msgSender()), \"TRC20PresetMinterPauser: must have pauser role to unpause\");\n        _unpause();\n    }\n\n    function _beforeTokenTransfer(\n        address from,\n        address to,\n        uint256 amount\n    ) internal virtual override(TRC20, TRC20Pausable) {\n        super._beforeTokenTransfer(from, to, amount);\n    }\n}\n",
  "sourcePath": "/home/swatim/TRON/CUR-NFTs/contracts/@openzeppelin/contracts/token/TRC20/presets/TRC20PresetMinterPauser.sol",
  "compiler": {
    "name": "solc",
    "version": "0.8.0+commit.7c2e6412.Emscripten.clang"
  },
  "schemaVersion": "2.0.1",
  "updatedAt": "2021-12-16T04:49:26.475Z"
}