{
  "contractName": "TRC721PresetMinterPauserAutoId",
  "abi": [
    {
      "inputs": [
        {
          "internalType": "string",
          "name": "name",
          "type": "string"
        },
        {
          "internalType": "string",
          "name": "symbol",
          "type": "string"
        },
        {
          "internalType": "string",
          "name": "baseTokenURI",
          "type": "string"
        }
      ],
      "stateMutability": "nonpayable",
      "type": "constructor"
    },
    {
      "anonymous": false,
      "inputs": [
        {
          "indexed": true,
          "internalType": "address",
          "name": "owner",
          "type": "address"
        },
        {
          "indexed": true,
          "internalType": "address",
          "name": "approved",
          "type": "address"
        },
        {
          "indexed": true,
          "internalType": "uint256",
          "name": "tokenId",
          "type": "uint256"
        }
      ],
      "name": "Approval",
      "type": "event"
    },
    {
      "anonymous": false,
      "inputs": [
        {
          "indexed": true,
          "internalType": "address",
          "name": "owner",
          "type": "address"
        },
        {
          "indexed": true,
          "internalType": "address",
          "name": "operator",
          "type": "address"
        },
        {
          "indexed": false,
          "internalType": "bool",
          "name": "approved",
          "type": "bool"
        }
      ],
      "name": "ApprovalForAll",
      "type": "event"
    },
    {
      "anonymous": false,
      "inputs": [
        {
          "indexed": false,
          "internalType": "address",
          "name": "account",
          "type": "address"
        }
      ],
      "name": "Paused",
      "type": "event"
    },
    {
      "anonymous": false,
      "inputs": [
        {
          "indexed": true,
          "internalType": "bytes32",
          "name": "role",
          "type": "bytes32"
        },
        {
          "indexed": true,
          "internalType": "bytes32",
          "name": "previousAdminRole",
          "type": "bytes32"
        },
        {
          "indexed": true,
          "internalType": "bytes32",
          "name": "newAdminRole",
          "type": "bytes32"
        }
      ],
      "name": "RoleAdminChanged",
      "type": "event"
    },
    {
      "anonymous": false,
      "inputs": [
        {
          "indexed": true,
          "internalType": "bytes32",
          "name": "role",
          "type": "bytes32"
        },
        {
          "indexed": true,
          "internalType": "address",
          "name": "account",
          "type": "address"
        },
        {
          "indexed": true,
          "internalType": "address",
          "name": "sender",
          "type": "address"
        }
      ],
      "name": "RoleGranted",
      "type": "event"
    },
    {
      "anonymous": false,
      "inputs": [
        {
          "indexed": true,
          "internalType": "bytes32",
          "name": "role",
          "type": "bytes32"
        },
        {
          "indexed": true,
          "internalType": "address",
          "name": "account",
          "type": "address"
        },
        {
          "indexed": true,
          "internalType": "address",
          "name": "sender",
          "type": "address"
        }
      ],
      "name": "RoleRevoked",
      "type": "event"
    },
    {
      "anonymous": false,
      "inputs": [
        {
          "indexed": true,
          "internalType": "address",
          "name": "from",
          "type": "address"
        },
        {
          "indexed": true,
          "internalType": "address",
          "name": "to",
          "type": "address"
        },
        {
          "indexed": true,
          "internalType": "uint256",
          "name": "tokenId",
          "type": "uint256"
        }
      ],
      "name": "Transfer",
      "type": "event"
    },
    {
      "anonymous": false,
      "inputs": [
        {
          "indexed": false,
          "internalType": "address",
          "name": "account",
          "type": "address"
        }
      ],
      "name": "Unpaused",
      "type": "event"
    },
    {
      "inputs": [],
      "name": "DEFAULT_ADMIN_ROLE",
      "outputs": [
        {
          "internalType": "bytes32",
          "name": "",
          "type": "bytes32"
        }
      ],
      "stateMutability": "view",
      "type": "function"
    },
    {
      "inputs": [],
      "name": "MINTER_ROLE",
      "outputs": [
        {
          "internalType": "bytes32",
          "name": "",
          "type": "bytes32"
        }
      ],
      "stateMutability": "view",
      "type": "function"
    },
    {
      "inputs": [],
      "name": "PAUSER_ROLE",
      "outputs": [
        {
          "internalType": "bytes32",
          "name": "",
          "type": "bytes32"
        }
      ],
      "stateMutability": "view",
      "type": "function"
    },
    {
      "inputs": [
        {
          "internalType": "address",
          "name": "to",
          "type": "address"
        },
        {
          "internalType": "uint256",
          "name": "tokenId",
          "type": "uint256"
        }
      ],
      "name": "approve",
      "outputs": [],
      "stateMutability": "nonpayable",
      "type": "function"
    },
    {
      "inputs": [
        {
          "internalType": "address",
          "name": "owner",
          "type": "address"
        }
      ],
      "name": "balanceOf",
      "outputs": [
        {
          "internalType": "uint256",
          "name": "",
          "type": "uint256"
        }
      ],
      "stateMutability": "view",
      "type": "function"
    },
    {
      "inputs": [
        {
          "internalType": "uint256",
          "name": "tokenId",
          "type": "uint256"
        }
      ],
      "name": "burn",
      "outputs": [],
      "stateMutability": "nonpayable",
      "type": "function"
    },
    {
      "inputs": [
        {
          "internalType": "uint256",
          "name": "tokenId",
          "type": "uint256"
        }
      ],
      "name": "getApproved",
      "outputs": [
        {
          "internalType": "address",
          "name": "",
          "type": "address"
        }
      ],
      "stateMutability": "view",
      "type": "function"
    },
    {
      "inputs": [
        {
          "internalType": "bytes32",
          "name": "role",
          "type": "bytes32"
        }
      ],
      "name": "getRoleAdmin",
      "outputs": [
        {
          "internalType": "bytes32",
          "name": "",
          "type": "bytes32"
        }
      ],
      "stateMutability": "view",
      "type": "function"
    },
    {
      "inputs": [
        {
          "internalType": "bytes32",
          "name": "role",
          "type": "bytes32"
        }
      ],
      "name": "getRoleMembTRCount",
      "outputs": [
        {
          "internalType": "uint256",
          "name": "",
          "type": "uint256"
        }
      ],
      "stateMutability": "view",
      "type": "function"
    },
    {
      "inputs": [
        {
          "internalType": "bytes32",
          "name": "role",
          "type": "bytes32"
        },
        {
          "internalType": "uint256",
          "name": "index",
          "type": "uint256"
        }
      ],
      "name": "getRoleMember",
      "outputs": [
        {
          "internalType": "address",
          "name": "",
          "type": "address"
        }
      ],
      "stateMutability": "view",
      "type": "function"
    },
    {
      "inputs": [
        {
          "internalType": "bytes32",
          "name": "role",
          "type": "bytes32"
        },
        {
          "internalType": "address",
          "name": "account",
          "type": "address"
        }
      ],
      "name": "grantRole",
      "outputs": [],
      "stateMutability": "nonpayable",
      "type": "function"
    },
    {
      "inputs": [
        {
          "internalType": "bytes32",
          "name": "role",
          "type": "bytes32"
        },
        {
          "internalType": "address",
          "name": "account",
          "type": "address"
        }
      ],
      "name": "hasRole",
      "outputs": [
        {
          "internalType": "bool",
          "name": "",
          "type": "bool"
        }
      ],
      "stateMutability": "view",
      "type": "function"
    },
    {
      "inputs": [
        {
          "internalType": "address",
          "name": "owner",
          "type": "address"
        },
        {
          "internalType": "address",
          "name": "operator",
          "type": "address"
        }
      ],
      "name": "isApprovedForAll",
      "outputs": [
        {
          "internalType": "bool",
          "name": "",
          "type": "bool"
        }
      ],
      "stateMutability": "view",
      "type": "function"
    },
    {
      "inputs": [
        {
          "internalType": "address",
          "name": "to",
          "type": "address"
        }
      ],
      "name": "mint",
      "outputs": [],
      "stateMutability": "nonpayable",
      "type": "function"
    },
    {
      "inputs": [],
      "name": "name",
      "outputs": [
        {
          "internalType": "string",
          "name": "",
          "type": "string"
        }
      ],
      "stateMutability": "view",
      "type": "function"
    },
    {
      "inputs": [
        {
          "internalType": "uint256",
          "name": "tokenId",
          "type": "uint256"
        }
      ],
      "name": "ownerOf",
      "outputs": [
        {
          "internalType": "address",
          "name": "",
          "type": "address"
        }
      ],
      "stateMutability": "view",
      "type": "function"
    },
    {
      "inputs": [],
      "name": "pause",
      "outputs": [],
      "stateMutability": "nonpayable",
      "type": "function"
    },
    {
      "inputs": [],
      "name": "paused",
      "outputs": [
        {
          "internalType": "bool",
          "name": "",
          "type": "bool"
        }
      ],
      "stateMutability": "view",
      "type": "function"
    },
    {
      "inputs": [
        {
          "internalType": "bytes32",
          "name": "role",
          "type": "bytes32"
        },
        {
          "internalType": "address",
          "name": "account",
          "type": "address"
        }
      ],
      "name": "renounceRole",
      "outputs": [],
      "stateMutability": "nonpayable",
      "type": "function"
    },
    {
      "inputs": [
        {
          "internalType": "bytes32",
          "name": "role",
          "type": "bytes32"
        },
        {
          "internalType": "address",
          "name": "account",
          "type": "address"
        }
      ],
      "name": "revokeRole",
      "outputs": [],
      "stateMutability": "nonpayable",
      "type": "function"
    },
    {
      "inputs": [
        {
          "internalType": "address",
          "name": "from",
          "type": "address"
        },
        {
          "internalType": "address",
          "name": "to",
          "type": "address"
        },
        {
          "internalType": "uint256",
          "name": "tokenId",
          "type": "uint256"
        }
      ],
      "name": "safeTransferFrom",
      "outputs": [],
      "stateMutability": "nonpayable",
      "type": "function"
    },
    {
      "inputs": [
        {
          "internalType": "address",
          "name": "from",
          "type": "address"
        },
        {
          "internalType": "address",
          "name": "to",
          "type": "address"
        },
        {
          "internalType": "uint256",
          "name": "tokenId",
          "type": "uint256"
        },
        {
          "internalType": "bytes",
          "name": "_data",
          "type": "bytes"
        }
      ],
      "name": "safeTransferFrom",
      "outputs": [],
      "stateMutability": "nonpayable",
      "type": "function"
    },
    {
      "inputs": [
        {
          "internalType": "address",
          "name": "operator",
          "type": "address"
        },
        {
          "internalType": "bool",
          "name": "approved",
          "type": "bool"
        }
      ],
      "name": "setApprovalForAll",
      "outputs": [],
      "stateMutability": "nonpayable",
      "type": "function"
    },
    {
      "inputs": [
        {
          "internalType": "bytes4",
          "name": "interfaceId",
          "type": "bytes4"
        }
      ],
      "name": "supportsInterface",
      "outputs": [
        {
          "internalType": "bool",
          "name": "",
          "type": "bool"
        }
      ],
      "stateMutability": "view",
      "type": "function"
    },
    {
      "inputs": [],
      "name": "symbol",
      "outputs": [
        {
          "internalType": "string",
          "name": "",
          "type": "string"
        }
      ],
      "stateMutability": "view",
      "type": "function"
    },
    {
      "inputs": [
        {
          "internalType": "uint256",
          "name": "index",
          "type": "uint256"
        }
      ],
      "name": "tokenByIndex",
      "outputs": [
        {
          "internalType": "uint256",
          "name": "",
          "type": "uint256"
        }
      ],
      "stateMutability": "view",
      "type": "function"
    },
    {
      "inputs": [
        {
          "internalType": "address",
          "name": "owner",
          "type": "address"
        },
        {
          "internalType": "uint256",
          "name": "index",
          "type": "uint256"
        }
      ],
      "name": "tokenOfOwnerByIndex",
      "outputs": [
        {
          "internalType": "uint256",
          "name": "",
          "type": "uint256"
        }
      ],
      "stateMutability": "view",
      "type": "function"
    },
    {
      "inputs": [
        {
          "internalType": "uint256",
          "name": "tokenId",
          "type": "uint256"
        }
      ],
      "name": "tokenURI",
      "outputs": [
        {
          "internalType": "string",
          "name": "",
          "type": "string"
        }
      ],
      "stateMutability": "view",
      "type": "function"
    },
    {
      "inputs": [],
      "name": "totalSupply",
      "outputs": [
        {
          "internalType": "uint256",
          "name": "",
          "type": "uint256"
        }
      ],
      "stateMutability": "view",
      "type": "function"
    },
    {
      "inputs": [
        {
          "internalType": "address",
          "name": "from",
          "type": "address"
        },
        {
          "internalType": "address",
          "name": "to",
          "type": "address"
        },
        {
          "internalType": "uint256",
          "name": "tokenId",
          "type": "uint256"
        }
      ],
      "name": "transferFrom",
      "outputs": [],
      "stateMutability": "nonpayable",
      "type": "function"
    },
    {
      "inputs": [],
      "name": "unpause",
      "outputs": [],
      "stateMutability": "nonpayable",
      "type": "function"
    }
  ],
  "bytecode": "0x60806040523480156200001157600080fd5b50d380156200001f57600080fd5b50d280156200002d57600080fd5b5060405162002cf238038062002cf2833981016040819052620000509162000401565b82518390839062000069906002906020850190620002b0565b5080516200007f906003906020840190620002b0565b5050600c805460ff19169055508051620000a190600e906020840190620002b0565b50620000b86000620000b26200011f565b62000123565b620000e77f9f2df0fed2c77648de5860a4cc508cd0818c85b8b8a1ab4ceeef8d981c8956a6620000b26200011f565b620001167f65d7a28e3265b37a6474929f336521b332c1681b933f6cb9f3376673440d862a620000b26200011f565b505050620004e1565b3390565b6200013a82826200016660201b62000b561760201c565b60008281526001602090815260409091206200016191839062000b6462000176821b17901c565b505050565b62000172828262000196565b5050565b60006200018d836001600160a01b03841662000220565b90505b92915050565b620001a282826200026f565b62000172576000828152602081815260408083206001600160a01b03851684529091529020805460ff19166001179055620001dc6200011f565b6001600160a01b0316816001600160a01b0316837f2f8788117e7eff1d82e926ec794901d17c78024a50270940304540a733656f0d60405160405180910390a45050565b60006200022e838362000298565b620002665750815460018181018455600084815260208082209093018490558454848252828601909352604090209190915562000190565b50600062000190565b6000918252602082815260408084206001600160a01b0393909316845291905290205460ff1690565b60009081526001919091016020526040902054151590565b828054620002be906200048e565b90600052602060002090601f016020900481019282620002e257600085556200032d565b82601f10620002fd57805160ff19168380011785556200032d565b828001600101855582156200032d579182015b828111156200032d57825182559160200191906001019062000310565b506200033b9291506200033f565b5090565b5b808211156200033b576000815560010162000340565b600082601f83011262000367578081fd5b81516001600160401b0380821115620003845762000384620004cb565b6040516020601f8401601f1916820181018381118382101715620003ac57620003ac620004cb565b6040528382528584018101871015620003c3578485fd5b8492505b83831015620003e65785830181015182840182015291820191620003c7565b83831115620003f757848185840101525b5095945050505050565b60008060006060848603121562000416578283fd5b83516001600160401b03808211156200042d578485fd5b6200043b8783880162000356565b9450602086015191508082111562000451578384fd5b6200045f8783880162000356565b9350604086015191508082111562000475578283fd5b50620004848682870162000356565b9150509250925092565b600281046001821680620004a357607f821691505b60208210811415620004c557634e487b7160e01b600052602260045260246000fd5b50919050565b634e487b7160e01b600052604160045260246000fd5b61280180620004f16000396000f3fe608060405234801561001057600080fd5b50d3801561001d57600080fd5b50d2801561002a57600080fd5b50600436106101ff5760003560e01c80635c975abb11610129578063a217fddf116100bc578063d53913931161008b578063d5391393146103f7578063d547741f146103ff578063e63ab1e914610412578063e985e9c51461041a576101ff565b8063a217fddf146103b6578063a22cb465146103be578063b88d4fde146103d1578063c87b56dd146103e4576101ff565b80638456cb59116100f85780638456cb59146103805780639010d07c1461038857806391d148541461039b57806395d89b41146103ae576101ff565b80635c975abb1461033f5780636352211e146103475780636a6278421461035a57806370a082311461036d576101ff565b8063248a9ca3116101a15780633f4ba83a116101705780633f4ba83a146102fe57806342842e0e1461030657806342966c68146103195780634f6ccce71461032c576101ff565b8063248a9ca3146102b25780632f2ff15d146102c55780632f745c59146102d857806336568abe146102eb576101ff565b8063095ea7b3116101dd578063095ea7b31461026257806318160ddd1461027757806323b872dd1461028c57806323f32a081461029f576101ff565b806301ffc9a71461020457806306fdde031461022d578063081812fc14610242575b600080fd5b610217610212366004611dd3565b61042d565b6040516102249190611f2c565b60405180910390f35b610235610440565b6040516102249190611f40565b610255610250366004611d78565b6104d2565b6040516102249190611edb565b610275610270366004611d4f565b61051e565b005b61027f6105b6565b6040516102249190611f37565b61027561029a366004611c0e565b6105bc565b61027f6102ad366004611d78565b6105f4565b61027f6102c0366004611d78565b61060b565b6102756102d3366004611d90565b610620565b61027f6102e6366004611d4f565b610642565b6102756102f9366004611d90565b610697565b6102756106b9565b610275610314366004611c0e565b61070b565b610275610327366004611d78565b610726565b61027f61033a366004611d78565b610759565b6102176107b4565b610255610355366004611d78565b6107bd565b610275610368366004611bc2565b6107f2565b61027f61037b366004611bc2565b610857565b61027561089b565b610255610396366004611db2565b6108eb565b6102176103a9366004611d90565b61090a565b610235610933565b61027f610942565b6102756103cc366004611d15565b610947565b6102756103df366004611c49565b610a15565b6102356103f2366004611d78565b610a54565b61027f610ad6565b61027561040d366004611d90565b610afa565b61027f610b04565b610217610428366004611bdc565b610b28565b600061043882610b79565b90505b919050565b60606002805461044f90612709565b80601f016020809104026020016040519081016040528092919081815260200182805461047b90612709565b80156104c85780601f1061049d576101008083540402835291602001916104c8565b820191906000526020600020905b8154815290600101906020018083116104ab57829003601f168201915b5050505050905090565b60006104dd82610b9e565b6105025760405162461bcd60e51b81526004016104f990612132565b60405180910390fd5b506000908152600660205260409020546001600160a01b031690565b6000610529826107bd565b9050806001600160a01b0316836001600160a01b0316141561055d5760405162461bcd60e51b81526004016104f9906122a0565b806001600160a01b031661056f610bbb565b6001600160a01b0316148061058b575061058b81610428610bbb565b6105a75760405162461bcd60e51b81526004016104f9906124a6565b6105b18383610bbf565b505050565b600a5490565b6105cd6105c7610bbb565b82610c2d565b6105e95760405162461bcd60e51b81526004016104f990612455565b6105b1838383610cb2565b600081815260016020526040812061043890610ddf565b60009081526020819052604090206001015490565b61062a8282610dea565b60008281526001602052604090206105b19082610b64565b600061064d83610857565b821061066b5760405162461bcd60e51b81526004016104f990612006565b506001600160a01b03821660009081526008602090815260408083208484529091529020545b92915050565b6106a18282610e0e565b60008281526001602052604090206105b19082610e50565b6106e57f65d7a28e3265b37a6474929f336521b332c1681b933f6cb9f3376673440d862a6103a9610bbb565b6107015760405162461bcd60e51b81526004016104f9906122e1565b610709610e65565b565b6105b183838360405180602001604052806000815250610a15565b6107316105c7610bbb565b61074d5760405162461bcd60e51b81526004016104f990611fb6565b61075681610ed3565b50565b60006107636105b6565b82106107815760405162461bcd60e51b81526004016104f990612254565b600a82815481106107a257634e487b7160e01b600052603260045260246000fd5b90600052602060002001549050919050565b600c5460ff1690565b6000818152600460205260408120546001600160a01b0316806104385760405162461bcd60e51b81526004016104f99061233f565b61081e7f9f2df0fed2c77648de5860a4cc508cd0818c85b8b8a1ab4ceeef8d981c8956a66103a9610bbb565b61083a5760405162461bcd60e51b81526004016104f9906121f7565b61084d81610848600d610f7a565b610f7e565b610756600d61105d565b60006001600160a01b03821661087f5760405162461bcd60e51b81526004016104f990612388565b506001600160a01b031660009081526005602052604090205490565b6108c77f65d7a28e3265b37a6474929f336521b332c1681b933f6cb9f3376673440d862a6103a9610bbb565b6108e35760405162461bcd60e51b81526004016104f990612503565b610709611066565b600082815260016020526040812061090390836110c1565b9392505050565b6000918252602082815260408084206001600160a01b0393909316845291905290205460ff1690565b60606003805461044f90612709565b600081565b61094f610bbb565b6001600160a01b0316826001600160a01b031614156109805760405162461bcd60e51b81526004016104f990612560565b806007600061098d610bbb565b6001600160a01b03908116825260208083019390935260409182016000908120918716808252919093529120805460ff1916921515929092179091556109d1610bbb565b6001600160a01b03167f17307eab39ab6107e8899845ad3d59bd9653f200f220920489ca2b5937696c3183604051610a099190611f2c565b60405180910390a35050565b610a26610a20610bbb565b83610c2d565b610a425760405162461bcd60e51b81526004016104f990612455565b610a4e848484846110cd565b50505050565b6060610a5f82610b9e565b610a7b5760405162461bcd60e51b81526004016104f99061217e565b6000610a85611100565b90506000815111610aa55760405180602001604052806000815250610903565b80610aaf8461110f565b604051602001610ac0929190611e37565b6040516020818303038152906040529392505050565b7f9f2df0fed2c77648de5860a4cc508cd0818c85b8b8a1ab4ceeef8d981c8956a681565b6106a1828261122a565b7f65d7a28e3265b37a6474929f336521b332c1681b933f6cb9f3376673440d862a81565b6001600160a01b03918216600090815260076020908152604080832093909416825291909152205460ff1690565b610b608282611249565b5050565b6000610903836001600160a01b0384166112ce565b60006001600160e01b0319821663780e9d6360e01b1480610438575061043882611318565b6000908152600460205260409020546001600160a01b0316151590565b3390565b600081815260066020526040902080546001600160a01b0319166001600160a01b0384169081179091558190610bf4826107bd565b6001600160a01b03167f8c5be1e5ebec7d5bd14f71427d1e84f3dd0314c0f7b2291e5b200ac8c7c3b92560405160405180910390a45050565b6000610c3882610b9e565b610c545760405162461bcd60e51b81526004016104f990612409565b6000610c5f836107bd565b9050806001600160a01b0316846001600160a01b03161480610c9a5750836001600160a01b0316610c8f846104d2565b6001600160a01b0316145b80610caa5750610caa8185610b28565b949350505050565b826001600160a01b0316610cc5826107bd565b6001600160a01b031614610ceb5760405162461bcd60e51b81526004016104f990612597565b6001600160a01b038216610d115760405162461bcd60e51b81526004016104f99061209c565b610d1c838383611358565b610d27600082610bbf565b6001600160a01b0383166000908152600560205260408120805460019290610d509084906126af565b90915550506001600160a01b0382166000908152600560205260408120805460019290610d7e908490612664565b909155505060008181526004602052604080822080546001600160a01b0319166001600160a01b0386811691821790925591518493918716917fddf252ad1be2c89b69c2b068fc378daa952ba7f163c4a11628f55a4df523b3ef91a4505050565b600061043882610f7a565b610df38261060b565b610e0481610dff610bbb565b611363565b6105b18383611249565b610e16610bbb565b6001600160a01b0316816001600160a01b031614610e465760405162461bcd60e51b81526004016104f990612615565b610b6082826113c7565b6000610903836001600160a01b03841661144a565b610e6d6107b4565b610e895760405162461bcd60e51b81526004016104f990611f88565b600c805460ff191690557f5db9ee0a495bf2e6ff9c91a7834c1ba4fdd244a5e8aa4e537bd38aeae4b073aa610ebc610bbb565b604051610ec99190611edb565b60405180910390a1565b6000610ede826107bd565b9050610eec81600084611358565b610ef7600083610bbf565b6001600160a01b0381166000908152600560205260408120805460019290610f209084906126af565b909155505060008281526004602052604080822080546001600160a01b0319169055518391906001600160a01b038416907fddf252ad1be2c89b69c2b068fc378daa952ba7f163c4a11628f55a4df523b3ef908390a45050565b5490565b6001600160a01b038216610fa45760405162461bcd60e51b81526004016104f9906125e0565b610fad81610b9e565b15610fca5760405162461bcd60e51b81526004016104f9906123d2565b610fd660008383611358565b6001600160a01b0382166000908152600560205260408120805460019290610fff908490612664565b909155505060008181526004602052604080822080546001600160a01b0319166001600160a01b03861690811790915590518392907fddf252ad1be2c89b69c2b068fc378daa952ba7f163c4a11628f55a4df523b3ef908290a45050565b80546001019055565b61106e6107b4565b1561108b5760405162461bcd60e51b81526004016104f9906121cd565b600c805460ff191660011790557f62e78cea01bee320cd4e420270b5ea74000d11b0c9f74754ebdbfc544b05a258610ebc610bbb565b60006109038383611567565b6110d8848484610cb2565b6110e48484848461159f565b610a4e5760405162461bcd60e51b81526004016104f9906120e0565b6060600e805461044f90612709565b60608161113457506040805180820190915260018152600360fc1b602082015261043b565b8160005b811561115e578061114881612744565b91506111579050600a8361267c565b9150611138565b60008167ffffffffffffffff81111561118757634e487b7160e01b600052604160045260246000fd5b6040519080825280601f01601f1916602001820160405280156111b1576020820181803683370190505b5090505b8415610caa576111c66001836126af565b91506111d3600a8661275f565b6111de906030612664565b60f81b81838151811061120157634e487b7160e01b600052603260045260246000fd5b60200101906001600160f81b031916908160001a905350611223600a8661267c565b94506111b5565b6112338261060b565b61123f81610dff610bbb565b6105b183836113c7565b611253828261090a565b610b60576000828152602081815260408083206001600160a01b03851684529091529020805460ff1916600117905561128a610bbb565b6001600160a01b0316816001600160a01b0316837f2f8788117e7eff1d82e926ec794901d17c78024a50270940304540a733656f0d60405160405180910390a45050565b60006112da83836116b1565b61131057508154600181810184556000848152602080822090930184905584548482528286019093526040902091909155610691565b506000610691565b60006001600160e01b031982166380ac58cd60e01b148061134957506001600160e01b03198216635b5e139f60e01b145b806104385750610438826116c9565b6105b18383836116ee565b61136d828261090a565b610b6057611385816001600160a01b0316601461171e565b61139083602061171e565b6040516020016113a1929190611e66565b60408051601f198184030181529082905262461bcd60e51b82526104f991600401611f40565b6113d1828261090a565b15610b60576000828152602081815260408083206001600160a01b03851684529091529020805460ff19169055611406610bbb565b6001600160a01b0316816001600160a01b0316837ff6391f5c32d9c69d2a47ea670b442974b53935d1edc7fd64eb21e047a839171b60405160405180910390a45050565b6000818152600183016020526040812054801561155d57600061146e6001836126af565b8554909150600090611482906001906126af565b90508181146115035760008660000182815481106114b057634e487b7160e01b600052603260045260246000fd5b90600052602060002001549050808760000184815481106114e157634e487b7160e01b600052603260045260246000fd5b6000918252602080832090910192909255918252600188019052604090208390555b855486908061152257634e487b7160e01b600052603160045260246000fd5b600190038181906000526020600020016000905590558560010160008681526020019081526020016000206000905560019350505050610691565b6000915050610691565b600082600001828154811061158c57634e487b7160e01b600052603260045260246000fd5b9060005260206000200154905092915050565b60006115aa846118d0565b156116a657836001600160a01b0316635175f8786115c6610bbb565b8786866040518563ffffffff1660e01b81526004016115e89493929190611eef565b602060405180830381600087803b15801561160257600080fd5b505af1925050508015611632575060408051601f3d908101601f1916820190925261162f91810190611def565b60015b61168c573d808015611660576040519150601f19603f3d011682016040523d82523d6000602084013e611665565b606091505b5080516116845760405162461bcd60e51b81526004016104f9906120e0565b805181602001fd5b6001600160e01b031916630a2ebf0f60e31b149050610caa565b506001949350505050565b60009081526001919091016020526040902054151590565b60006001600160e01b03198216632cf8fe9d60e21b14806104385750610438826118d6565b6116f98383836118fb565b6117016107b4565b156105b15760405162461bcd60e51b81526004016104f990612051565b6060600061172d836002612690565b611738906002612664565b67ffffffffffffffff81111561175e57634e487b7160e01b600052604160045260246000fd5b6040519080825280601f01601f191660200182016040528015611788576020820181803683370190505b509050600360fc1b816000815181106117b157634e487b7160e01b600052603260045260246000fd5b60200101906001600160f81b031916908160001a905350600f60fb1b816001815181106117ee57634e487b7160e01b600052603260045260246000fd5b60200101906001600160f81b031916908160001a9053506000611812846002612690565b61181d906001612664565b90505b60018111156118b1576f181899199a1a9b1b9c1cb0b131b232b360811b85600f166010811061185f57634e487b7160e01b600052603260045260246000fd5b1a60f81b82828151811061188357634e487b7160e01b600052603260045260246000fd5b60200101906001600160f81b031916908160001a90535060049490941c936118aa816126f2565b9050611820565b5083156109035760405162461bcd60e51b81526004016104f990611f53565b3b151590565b60006001600160e01b03198216637965db0b60e01b1480610438575061043882611984565b6119068383836105b1565b6001600160a01b0383166119225761191d8161199d565b611945565b816001600160a01b0316836001600160a01b0316146119455761194583826119e1565b6001600160a01b0382166119615761195c81611a7e565b6105b1565b826001600160a01b0316826001600160a01b0316146105b1576105b18282611b57565b6001600160e01b031981166301ffc9a760e01b14919050565b600a80546000838152600b60205260408120829055600182018355919091527fc65a7bb8d6351c1cf70c95a316cc6a92839c986682d98bc35f958f4883f9d2a80155565b600060016119ee84610857565b6119f891906126af565b600083815260096020526040902054909150808214611a4b576001600160a01b03841660009081526008602090815260408083208584528252808320548484528184208190558352600990915290208190555b5060009182526009602090815260408084208490556001600160a01b039094168352600881528383209183525290812055565b600a54600090611a90906001906126af565b6000838152600b6020526040812054600a8054939450909284908110611ac657634e487b7160e01b600052603260045260246000fd5b9060005260206000200154905080600a8381548110611af557634e487b7160e01b600052603260045260246000fd5b6000918252602080832090910192909255828152600b9091526040808220849055858252812055600a805480611b3b57634e487b7160e01b600052603160045260246000fd5b6001900381819060005260206000200160009055905550505050565b6000611b6283610857565b6001600160a01b039093166000908152600860209081526040808320868452825280832085905593825260099052919091209190915550565b600081356001600160a81b0381168114611bb3578182fd5b6001600160a01b031692915050565b600060208284031215611bd3578081fd5b61090382611b9b565b60008060408385031215611bee578081fd5b611bf783611b9b565b9150611c0560208401611b9b565b90509250929050565b600080600060608486031215611c22578081fd5b611c2b84611b9b565b9250611c3960208501611b9b565b9150604084013590509250925092565b60008060008060808587031215611c5e578081fd5b611c6785611b9b565b93506020611c76818701611b9b565b935060408601359250606086013567ffffffffffffffff80821115611c99578384fd5b818801915088601f830112611cac578384fd5b813581811115611cbe57611cbe61279f565b604051601f8201601f1916810185018381118282101715611ce157611ce161279f565b60405281815283820185018b1015611cf7578586fd5b81858501868301379081019093019390935250939692955090935050565b60008060408385031215611d27578182fd5b611d3083611b9b565b915060208301358015158114611d44578182fd5b809150509250929050565b60008060408385031215611d61578182fd5b611d6a83611b9b565b946020939093013593505050565b600060208284031215611d89578081fd5b5035919050565b60008060408385031215611da2578182fd5b82359150611c0560208401611b9b565b60008060408385031215611dc4578182fd5b50508035926020909101359150565b600060208284031215611de4578081fd5b8135610903816127b5565b600060208284031215611e00578081fd5b8151610903816127b5565b60008151808452611e238160208601602086016126c6565b601f01601f19169290920160200192915050565b60008351611e498184602088016126c6565b835190830190611e5d8183602088016126c6565b01949350505050565b60007f416363657373436f6e74726f6c3a206163636f756e742000000000000000000082528351611e9e8160178501602088016126c6565b7001034b99036b4b9b9b4b733903937b6329607d1b6017918401918201528351611ecf8160288401602088016126c6565b01602801949350505050565b6001600160a01b0391909116815260200190565b6001600160a01b0385811682528416602082015260408101839052608060608201819052600090611f2290830184611e0b565b9695505050505050565b901515815260200190565b90815260200190565b6000602082526109036020830184611e0b565b6020808252818101527f537472696e67733a20686578206c656e67746820696e73756666696369656e74604082015260600190565b60208082526014908201527314185d5cd8589b194e881b9bdd081c185d5cd95960621b604082015260600190565b60208082526030908201527f5452433732314275726e61626c653a2063616c6c6572206973206e6f74206f7760408201526f1b995c881b9bdc88185c1c1c9bdd995960821b606082015260800190565b6020808252602b908201527f545243373231456e756d657261626c653a206f776e657220696e646578206f7560408201526a74206f6620626f756e647360a81b606082015260800190565b6020808252602b908201527f5452433732315061757361626c653a20746f6b656e207472616e73666572207760408201526a1a1a5b19481c185d5cd95960aa1b606082015260800190565b60208082526024908201527f5452433732313a207472616e7366657220746f20746865207a65726f206164646040820152637265737360e01b606082015260800190565b60208082526032908201527f5452433732313a207472616e7366657220746f206e6f6e20545243373231526560408201527131b2b4bb32b91034b6b83632b6b2b73a32b960711b606082015260800190565b6020808252602c908201527f5452433732313a20617070726f76656420717565727920666f72206e6f6e657860408201526b34b9ba32b73a103a37b5b2b760a11b606082015260800190565b6020808252602f908201527f5452433732314d657461646174613a2055524920717565727920666f72206e6f60408201526e3732bc34b9ba32b73a103a37b5b2b760891b606082015260800190565b60208082526010908201526f14185d5cd8589b194e881c185d5cd95960821b604082015260600190565b6020808252603d908201527f5452433732315072657365744d696e7465725061757365724175746f49643a2060408201527f6d7573742068617665206d696e74657220726f6c6520746f206d696e74000000606082015260800190565b6020808252602c908201527f545243373231456e756d657261626c653a20676c6f62616c20696e646578206f60408201526b7574206f6620626f756e647360a01b606082015260800190565b60208082526021908201527f5452433732313a20617070726f76616c20746f2063757272656e74206f776e656040820152603960f91b606082015260800190565b602080825260409082018190527f5452433732315072657365744d696e7465725061757365724175746f49643a20908201527f6d75737420686176652070617573657220726f6c6520746f20756e7061757365606082015260800190565b60208082526029908201527f5452433732313a206f776e657220717565727920666f72206e6f6e657869737460408201526832b73a103a37b5b2b760b91b606082015260800190565b6020808252602a908201527f5452433732313a2062616c616e636520717565727920666f7220746865207a65604082015269726f206164647265737360b01b606082015260800190565b6020808252601c908201527f5452433732313a20746f6b656e20616c7265616479206d696e74656400000000604082015260600190565b6020808252602c908201527f5452433732313a206f70657261746f7220717565727920666f72206e6f6e657860408201526b34b9ba32b73a103a37b5b2b760a11b606082015260800190565b60208082526031908201527f5452433732313a207472616e736665722063616c6c6572206973206e6f74206f6040820152701ddb995c881b9bdc88185c1c1c9bdd9959607a1b606082015260800190565b60208082526038908201527f5452433732313a20617070726f76652063616c6c6572206973206e6f74206f7760408201527f6e6572206e6f7220617070726f76656420666f7220616c6c0000000000000000606082015260800190565b6020808252603e908201527f5452433732315072657365744d696e7465725061757365724175746f49643a2060408201527f6d75737420686176652070617573657220726f6c6520746f2070617573650000606082015260800190565b60208082526019908201527f5452433732313a20617070726f766520746f2063616c6c657200000000000000604082015260600190565b60208082526029908201527f5452433732313a207472616e73666572206f6620746f6b656e2074686174206960408201526839903737ba1037bbb760b91b606082015260800190565b6020808252818101527f5452433732313a206d696e7420746f20746865207a65726f2061646472657373604082015260600190565b6020808252602f908201527f416363657373436f6e74726f6c3a2063616e206f6e6c792072656e6f756e636560408201526e103937b632b9903337b91039b2b63360891b606082015260800190565b6000821982111561267757612677612773565b500190565b60008261268b5761268b612789565b500490565b60008160001904831182151516156126aa576126aa612773565b500290565b6000828210156126c1576126c1612773565b500390565b60005b838110156126e15781810151838201526020016126c9565b83811115610a4e5750506000910152565b60008161270157612701612773565b506000190190565b60028104600182168061271d57607f821691505b6020821081141561273e57634e487b7160e01b600052602260045260246000fd5b50919050565b600060001982141561275857612758612773565b5060010190565b60008261276e5761276e612789565b500690565b634e487b7160e01b600052601160045260246000fd5b634e487b7160e01b600052601260045260246000fd5b634e487b7160e01b600052604160045260246000fd5b6001600160e01b03198116811461075657600080fdfea2646970667358221220dbbf2f2eb987bd97568b617a779ead645479295766e875425d66c37efec7c68364736f6c63430008000033",
  "source": "// SPDX-License-Identifier: MIT\n\npragma solidity ^0.8.0;\n\nimport \"../TRC721.sol\";\nimport \"../extensions/TRC721Enumerable.sol\";\nimport \"../extensions/TRC721Burnable.sol\";\nimport \"../extensions/TRC721Pausable.sol\";\nimport \"../../../access/AccessControlEnumerable.sol\";\nimport \"../../../utils/Context.sol\";\nimport \"../../../utils/Counters.sol\";\n\n/**\n * @dev {TRC721} token, including:\n *\n *  - ability for holders to burn (destroy) their tokens\n *  - a minter role that allows for token minting (creation)\n *  - a pauser role that allows to stop all token transfers\n *  - token ID and URI autogeneration\n *\n * This contract uses {AccessControl} to lock permissioned functions using the\n * different roles - head to its documentation for details.\n *\n * The account that deploys the contract will be granted the minter and pauser\n * roles, as well as the default admin role, which will let it grant both minter\n * and pauser roles to other accounts.\n */\ncontract TRC721PresetMinterPauserAutoId is\n    Context,\n    AccessControlEnumerable,\n    TRC721Enumerable,\n    TRC721Burnable,\n    TRC721Pausable\n{\n    using Counters for Counters.Counter;\n\n    bytes32 public constant MINTER_ROLE = keccak256(\"MINTER_ROLE\");\n    bytes32 public constant PAUSER_ROLE = keccak256(\"PAUSER_ROLE\");\n\n    Counters.Counter private _tokenIdTracker;\n\n    string private _baseTokenURI;\n\n    /**\n     * @dev Grants `DEFAULT_ADMIN_ROLE`, `MINTER_ROLE` and `PAUSER_ROLE` to the\n     * account that deploys the contract.\n     *\n     * Token URIs will be autogenerated based on `baseURI` and their token IDs.\n     * See {TRC721-tokenURI}.\n     */\n    constructor(\n        string memory name,\n        string memory symbol,\n        string memory baseTokenURI\n    ) TRC721(name, symbol) {\n        _baseTokenURI = baseTokenURI;\n\n        _setupRole(DEFAULT_ADMIN_ROLE, _msgSender());\n\n        _setupRole(MINTER_ROLE, _msgSender());\n        _setupRole(PAUSER_ROLE, _msgSender());\n    }\n\n    function _baseURI() internal view virtual override returns (string memory) {\n        return _baseTokenURI;\n    }\n\n    /**\n     * @dev Creates a new token for `to`. Its token ID will be automatically\n     * assigned (and available on the emitted {ITRC721-Transfer} event), and the token\n     * URI autogenerated based on the base URI passed at construction.\n     *\n     * See {TRC721-_mint}.\n     *\n     * Requirements:\n     *\n     * - the caller must have the `MINTER_ROLE`.\n     */\n    function mint(address to) public virtual {\n        require(hasRole(MINTER_ROLE, _msgSender()), \"TRC721PresetMinterPauserAutoId: must have minter role to mint\");\n\n        // We cannot just use balanceOf to create the new tokenId because tokens\n        // can be burned (destroyed), so we need a separate counter.\n        _mint(to, _tokenIdTracker.current());\n        _tokenIdTracker.increment();\n    }\n\n    /**\n     * @dev Pauses all token transfers.\n     *\n     * See {TRC721Pausable} and {Pausable-_pause}.\n     *\n     * Requirements:\n     *\n     * - the caller must have the `PAUSER_ROLE`.\n     */\n    function pause() public virtual {\n        require(hasRole(PAUSER_ROLE, _msgSender()), \"TRC721PresetMinterPauserAutoId: must have pauser role to pause\");\n        _pause();\n    }\n\n    /**\n     * @dev Unpauses all token transfers.\n     *\n     * See {TRC721Pausable} and {Pausable-_unpause}.\n     *\n     * Requirements:\n     *\n     * - the caller must have the `PAUSER_ROLE`.\n     */\n    function unpause() public virtual {\n        require(hasRole(PAUSER_ROLE, _msgSender()), \"TRC721PresetMinterPauserAutoId: must have pauser role to unpause\");\n        _unpause();\n    }\n\n    function _beforeTokenTransfer(\n        address from,\n        address to,\n        uint256 tokenId\n    ) internal virtual override(TRC721, TRC721Enumerable, TRC721Pausable) {\n        super._beforeTokenTransfer(from, to, tokenId);\n    }\n\n    /**\n     * @dev See {ITRC165-supportsInterface}.\n     */\n    function supportsInterface(bytes4 interfaceId)\n        public\n        view\n        virtual\n        override(AccessControlEnumerable, TRC721, TRC721Enumerable)\n        returns (bool)\n    {\n        return super.supportsInterface(interfaceId);\n    }\n}\n",
  "sourcePath": "/home/swatim/TRON/CUR-NFTs/contracts/@openzeppelin/contracts/token/TRC721/presets/TRC721PresetMinterPauserAutoId.sol",
  "compiler": {
    "name": "solc",
    "version": "0.8.0+commit.7c2e6412.Emscripten.clang"
  },
  "schemaVersion": "2.0.1",
  "updatedAt": "2021-12-16T04:49:26.488Z"
}