{
  "contractName": "TRC721Holder",
  "abi": [
    {
      "inputs": [
        {
          "internalType": "address",
          "name": "",
          "type": "address"
        },
        {
          "internalType": "address",
          "name": "",
          "type": "address"
        },
        {
          "internalType": "uint256",
          "name": "",
          "type": "uint256"
        },
        {
          "internalType": "bytes",
          "name": "",
          "type": "bytes"
        }
      ],
      "name": "onTRC721Received",
      "outputs": [
        {
          "internalType": "bytes4",
          "name": "",
          "type": "bytes4"
        }
      ],
      "stateMutability": "nonpayable",
      "type": "function"
    }
  ],
  "bytecode": "0x608060405234801561001057600080fd5b50d3801561001d57600080fd5b50d2801561002a57600080fd5b506101d78061003a6000396000f3fe608060405234801561001057600080fd5b50d3801561001d57600080fd5b50d2801561002a57600080fd5b50600436106100455760003560e01c80635175f8781461004a575b600080fd5b61005d6100583660046100aa565b610073565b60405161006a9190610176565b60405180910390f35b630a2ebf0f60e31b949350505050565b600081356001600160a81b038116811461009b578182fd5b6001600160a01b031692915050565b600080600080608085870312156100bf578384fd5b6100c885610083565b935060206100d7818701610083565b935060408601359250606086013567ffffffffffffffff808211156100fa578384fd5b818801915088601f83011261010d578384fd5b81358181111561011f5761011f61018b565b604051601f8201601f19168101850183811182821017156101425761014261018b565b60405281815283820185018b1015610158578586fd5b81858501868301379081019093019390935250939692955090935050565b6001600160e01b031991909116815260200190565b634e487b7160e01b600052604160045260246000fdfea26469706673582212204ce0a1ad12299ce9dffc60537d5e3e658ce41461521eaf3ca3e49a11247b8cbc64736f6c63430008000033",
  "source": "// SPDX-License-Identifier: MIT\n\npragma solidity ^0.8.0;\n\nimport \"../ITRC721Receiver.sol\";\n\n/**\n * @dev Implementation of the {ITRC721Receiver} interface.\n *\n * Accepts all token transfers.\n * Make sure the contract is able to use its token with {ITRC721-safeTransferFrom}, {ITRC721-approve} or {ITRC721-setApprovalForAll}.\n */\ncontract TRC721Holder is ITRC721Receiver {\n    /**\n     * @dev See {ITRC721Receiver-onTRC721Received}.\n     *\n     * Always returns `ITRC721Receiver.onTRC721Received.selector`.\n     */\n    function onTRC721Received(\n        address,\n        address,\n        uint256,\n        bytes memory\n    ) public virtual override returns (bytes4) {\n        return this.onTRC721Received.selector;\n    }\n}\n",
  "sourcePath": "/home/swatim/TRON/CUR-NFTs/contracts/@openzeppelin/contracts/token/TRC721/utils/TRC721Holder.sol",
  "compiler": {
    "name": "solc",
    "version": "0.8.0+commit.7c2e6412.Emscripten.clang"
  },
  "schemaVersion": "2.0.1",
  "updatedAt": "2021-12-16T04:49:26.486Z"
}